:020000040800F2
:10000000F86A0020410100086B0100086D0100083A
:1000100000000000000000000000000000000000E0
:10002000000000000000000000000000E53C0008A7
:100030000000000000000000FF000008ED3F000885
:1000400075010008750100087501000875010008B8
:1000500075010008750100087501000875010008A8
:100060007501000875010008750100087501000898
:10007000750100087501000875010008F5400008C9
:100080007501000875010008750100087501000878
:100090007501000875010008750100087501000868
:1000A0007501000875010008750100087501000858
:1000B0007D4B00089D4B00087501000803488546EC
:1000C00000F040FC00480047AD510008F86A0020ED
:1000D000064B19680868203080F30988022080F3F5
:1000E00014883FBCAE4662B600BD0000C8000020C8
:1000F000EFF3108072B6704780F310887047EFF30B
:1001000009800E4B1A6820381060F0C044464D46F6
:1001100056465F46F0C008B572B606F0D9FD62B625
:100120000CBC116808681030F0C8A046A946B24659
:10013000BB4680F309882038F0C81847C800002063
:100140000D480E49026800608A4203D00C4880477F
:100150000C4800470C480D4901600D480B490160EF
:100160000C4801688D4640680047FEE7FEE7FEE761
:10017000FEE7FEE7FEE70000F07F0020EFBEADDE09
:100180007D400008BD00000818100240010000007A
:100190000000014000D8FF1F30B50B46014600208B
:1001A0002022012409E00D46D5409D4205D31D467D
:1001B0009540491B2546954040191546521E002D75
:1001C000F1DC30BD70B500242546002801DA012499
:1001D0004042002901DA01254942FFF7DDFFAC4228
:1001E00000D04042002C00D0494270BD10B5202AFA
:1001F00004DB0846203AD040002110BD0B46D34016
:10020000D0402024A21A91400843194610BD000096
:100210000549064A08685043054A801808604008A6
:100220007047014908607047C00000206D4EC6410C
:100230003930000003460B439B0703D009E008C98F
:10024000121F08C0042AFAD203E00B780370401C86
:10025000491C521EF9D27047D2B201E00270401C14
:10026000491EFBD270470022F6E710B513460A4636
:1002700004461946FFF7F0FF204610BD421E537892
:10028000521C002BFBD10B781370491C521C002B05
:10029000F9D1704710B5044605E00B780370401C97
:1002A000002B00D0491C521EF7D2204610BD421C24
:1002B0000178401C0029FBD1801A704730B50446F4
:1002C0000020034600E05B1C934203D2E05CCD5C5F
:1002D000401BF8D030BD03460A780270401C491C10
:1002E000002AF9D11846704730B50546002003466C
:1002F00000E05B1C934205D2EC5CC85C201A01D183
:10030000002CF6D130BD70B5064604F0A5FC04689B
:1003100005460A220021304600F03CFA2C6070BDF0
:10032000F8B502464A40D40F42004B0052085B0821
:100330009A4202D20246084611464A0023D0C30D13
:100340004A00DDB2120EAD1A202D35DA490201261F
:10035000490AF6058A19002C00D0524220214F1B71
:100360001146B9402A411018C20D9A4221D0002CE2
:1003700017D0012D08DCDA05801AD20F8019D207B8
:10038000DBB200F047FAF8BDDA05801A012340001D
:100390001B06C01880185A428018CA0F1043490023
:1003A00007E04908C2071143DA05801A801940089E
:1003B000801800F027FAF8BD61000122511A001BD5
:1003C000F7E70122D2075140AAE70122D2075040A5
:1003D000A6E7024670B54A40D30FDB0740002DD098
:1003E0004A002AD0010E140E000212020919400A16
:1003F000520A8418E50104465443000A120A2E04E6
:100400005043A4194219200CC543AA18120C012507
:10041000AD03521C521912047F39240400D0521C1F
:10042000104301D44000491EC2B20C06C009201876
:10043000401C4008802A02D003E0002070BD400824
:100440004000002900DA0020184370BD70B5024654
:100450004A40D50F40004A00ED07400852080028E6
:1004600014D0002A12D0C40DD30D41020120C005C2
:100470005202490A520AE41A091812187D349142AC
:1004800001D3641C00E04900002C01DA002070BD9B
:100490000023914201D3891A0343400849000028F0
:1004A000F7D100290AD0914202D10121C90705E004
:1004B000914201D2012101E00121C943E005C018A8
:1004C000401900F09FF970BDF0B507460846584046
:1004D00087B0C00F049048000E46590040084908F4
:1004E000BC1A884105D2384631461E4617460B468F
:1004F00002465800400810434CD0300D0390400590
:100500005900400D490D0590401A0290402872DABA
:1005100018030121000B090508430190049800927B
:10052000002805D001995242002088410092019094
:10053000029840210A1A0199009800F007F905462F
:100540000C466B4607CB00F011F9C0197141039AB4
:100550000E0D0023D71756401A467A40164344D052
:10056000049A002A2DD0029A012A039A15DC12055A
:10057000C01A914101263605001C7141D20F059E1B
:10058000D2070093019202962A46234600F088F98A
:1005900007B0F0BD38463146FAE71605224A0F4645
:1005A000B218C01AB74101210905001C4F410018BB
:1005B0007F41114618187941E20F10436D196441CB
:1005C00013E0E2076D0815436408C2071443039A59
:1005D00001261205C01A91413605001C7141CE0753
:1005E000400830434908C01851412A46234600F0CC
:1005F0004AF9CDE7FFE7049801224000C117121A1B
:1006000000238B4104983146C417381AA141EEE704
:1006100030B40124E407634030BC55E730B4012412
:10062000E407614030BC4FE70000E0FFC217C10F94
:10063000504010B54018CA079623002100F0EAF890
:1006400010BD10B500229623114600F0E3F810BD4E
:10065000410040020122400AD205090E80187F297C
:1006600001DA00207047962903DC9622511AC8400F
:100670007047963988407047C20FD2074000400843
:100680000BD0C10D0723DB01C91840020905400A40
:100690001143C208400711437047002001467047CC
:1006A000CB0FDB07490010B5490802460A4307D0C3
:1006B0000A0D07240903E401090B121B002A01DCBF
:1006C000002010BDC900440F0C43C100E018D20542
:1006D000801800F097F810BD0122D207002800DB37
:1006E000101A002900DB511A81427047F0B51FB47F
:1006F0000646002082B005464024019100901BE090
:10070000019922460F463046FFF770FD049A059B7B
:10071000801A994110D310461946224600F016F867
:10072000361A8F410197224601200021009F00F0D8
:100730000DF838184D4100902046641E0028DFDC7B
:10074000019B00982946324607B0F0BD10B5202A1B
:1007500004DB0146203A9140002010BD9140202347
:100760009C1A0346E3401943904010BD10B5202A5F
:1007700006DBCB170846203A1041C1170B4306E0B1
:100780000B461341D0402024A21A91400843194639
:1007900010BD0000F7B5009C0F4600262578641CAC
:1007A000002D05D000F0E0F80068405DC007F5D1ED
:1007B0002B2D02D02D2D18D0641E39462046029ACA
:1007C00000F0D6F8002F04D03968A14201D1009979
:1007D00039607105022400290BDA4042002803DD4C
:1007E00004F03AFA0460A007FEBD0120800206432F
:1007F000E3E70028F8DA04F02FFA04600048FEBDB1
:10080000FFFFFF7F002904DA401C490001D14008A6
:100810004000704770B40024050C05D1102400047A
:1008200002D1002921D01124050E01D10002083483
:10083000050F01D10001241D850F01D18000A41CEA
:10084000002801DB4000641C002908D020252E1B55
:100850000D46F540A14000D001212943084301067F
:100860001B1B000ADB1D02D5002070BC7047DB0596
:10087000181880180029F8DA401C4900F5D170BC1E
:1008800040084000704710B5002B08DA0024401CD7
:10089000614192185B411A4301D14008400010BDEC
:1008A000F0B51FB482B005460C0003D0084604F032
:1008B000ADF902E004F0AAF920300246009021468A
:1008C0002846FFF743FF049B059A04460F4618434A
:1008D0001143084314D0184610431BD00098402100
:1008E0000A1A18460599FFF781FC05460E46009A3C
:1008F00005990498FFF72AFF084305D0012004E07A
:100900002046394607B0F0BD0020C11705430E430D
:100910002C43374300990E986305401A7905E40A81
:1009200000220C43FD0A0A3002D500200146E9E707
:100930000105101969410C9C0D9D00196941FFF7D3
:10094000A2FFDFE7064C0125064E05E0E36807CC71
:100950002B430C3C98471034B442F7D3FFF7B2FB5B
:1009600064800008848000080048704760790008AF
:10097000F7B582B0029C00272078641C15460197C9
:10098000302802D0002D15D015E020780127641CF6
:10099000782804D0582802D0002D09D00BE0002D73
:1009A00001D0102D07D1002710252078641C02E00B
:1009B000082500E00A250026009610E0009901278E
:1009C00069430818020C294680B2714300908E18C2
:1009D0003804864201D3012001902078641C294606
:1009E00000F019F80028E9DA0398002805D0002F54
:1009F00001D0641E00E0029C04600198002806D02B
:100A000004F02AF902210160C81E05B0F0BD00996A
:100A100030040843F9E73A2800D230382023024650
:100A20009A43412A01D310463738884201D3002027
:100A3000C043704770B58C180578401C6B075B0F7E
:100A400001D10378401C2A1106D10278401C03E032
:100A500006780E70401C491C5B1EF9D12B0705D48B
:100A60000023521E0DD40B70491CFAE70378401C7A
:100A7000CB1A921C03E01D780D70491C5B1C521EA2
:100A8000F9D5A142D8D3002070BD70B50446002529
:100A900020688068042108408008002829D0206848
:100AA0008068084000280BD0206880680221084038
:100AB000002805D1206880681021084321688860DB
:100AC00000F068FE05460EE000F064FE401B0228C0
:100AD00009D9606C102108436064A06C01210843AF
:100AE000A064012070BD20688068042108400028AF
:100AF000EAD10020F6E770B504460025206880683A
:100B00008007800F01280ED120680068C007C00F41
:100B1000002806D12068C0680121C9030840884226
:100B200001D1012000E00020002837D02068806833
:100B300005210840012800D100E0002000280AD04B
:100B400000BF206880680221084321688860032074
:100B50002168086009E0606C102108436064A06CA3
:100B600001210843A064012070BD00F013FE05467A
:100B70000EE000F00FFE401B022809D9606C102126
:100B800008436064A06C01210843A0640120EBE7E6
:100B900020688068C007C00F0028EAD10020E3E782
:100BA00038B5044600250020009020688068800742
:100BB000800F01280ED120680068C007C00F0028F0
:100BC00006D12068C0680121C9030840884201D1CC
:100BD000012000E00020002843D1206880682249DD
:100BE0000840002801D1012000E00020002809D1A0
:100BF000606C102108436064A06C01210843A0646C
:100C0000012038BD20688068012108432168886080
:100C1000164917480068FFF7BFFA009002E00098F5
:100C2000401E009000980028F9D100F0B3FD054661
:100C30000EE000F0AFFD401B022809D9606C1021C6
:100C400008436064A06C01210843A0640120D8E738
:100C500020680068C007C00F0121484048400028B4
:100C6000E7D00020CDE700001700008040420F00D1
:100C70003800002010B500F09BFD03F0BDF902F034
:100C8000ADFC02F0CBFD02F035FD02F09DFD02F05F
:100C900061FD02F0E7FC02F0A1FB012240210920E6
:100CA000C00600F071FDFF20F53000F061FC00226D
:100CB00040210920C00600F067FD642000F058FCC8
:100CC000012240210920C00600F05EFD642000F0F2
:100CD0004FFC002240210920C00600F055FD642091
:100CE00000F046FC012240210920C00600F04CFD26
:100CF000642000F03DFC002240210920C00600F0E5
:100D000043FD03A0FFF7FFFA0446FFF78AFA10BD80
:100D100032303A33383A3330000000000048704730
:100D200080360020F7B505460126314800680028C6
:100D300035D130482E4908602CE02D480068006805
:100D400007683846FFF7B3FA0446285D202802D02A
:100D5000285D002819D1224639462846FFF7C4FAF3
:100D6000002812D12248006800680C214156002951
:100D70000ADB284604F0EAFA1D49096809680C22D2
:100D80008A56904200D0002608E019480068406862
:100D900017490860164800680028CED100BF1448E3
:100DA000006800280AD0002E08D11349029A019841
:100DB000FFF770FA00200E49086017E00C48006841
:100DC00000280DD00A48006800682A468368029906
:100DD000019898470646002E08D10549086005E0AD
:100DE0000649029A0198FFF755FA00263046FEBDE3
:100DF000A4000020980000209C7C0008F47C0008DF
:100E000070B505460026002D02D172B600BFFEE780
:100E1000082006F04BFC0446002C02D172B600BF3D
:100E2000FEE7002C0CD004F0F1FD2560002060608E
:100E30000448006844600348046004F0F5FD01269E
:100E4000304670BDA000002000BF3B480078030082
:100E500003F0F3FE106C090C1B242D364D6C6C6CEA
:100E60006C566C6C656C02F0D7FF60E0334800781C
:100E7000002809D032480078002805D03048017891
:100E80002E48007802F0BAFE51E02E49032002F00D
:100E900087FD2C49042002F083FD48E00021032057
:100EA00002F07EFD0021042002F07AFD3FE0264999
:100EB000032002F075FD2449042002F071FD36E0A4
:100EC000002122480068FFF707FC04D01F48016892
:100ED000032002F065FD00211D480068FFF7FCFBC0
:100EE00004D01B480168042002F05AFD1FE0154998
:100EF000032002F055FD1749042002F051FD16E0D1
:100F00000E480078002809D00D480078002805D048
:100F10000B4801780948007802F0AAFE07E0032098
:100F200002F05AFF042002F057FF00E000BF00BFAC
:100F30000A2004F04DF988E72D0000202F00002042
:100F40002E0000200000B442000034433000002096
:100F50003400002000000C430146134A0868904208
:100F600001D101207047114A0868904201D1022046
:100F7000F8E70F4A0868904201D10320F2E70D4AD2
:100F80000868904201D10420ECE70B4A08689042BF
:100F900001D10520E6E7094A0868904201D1062000
:100FA000E0E70020DEE70000004400400048004089
:100FB00000180140001C0140004C0040005000405F
:100FC00000B501460B0003F038FE07110507090BB9
:100FD0000D0F1100064800BD0648FCE70648FAE779
:100FE0000648F8E70648F6E70648F4E70020F2E787
:100FF000BC0200202C0300207C040020EC04002014
:101000009C0300200C040020F8B504460D46002681
:101010000020009001210907A06B884215D0A06B29
:10102000012812D0A06B02280FD0A06B03280CD08F
:10103000A06B042809D0A06B052806D0A06B062859
:1010400003D0A06B072800D000BF00BF4020005D88
:10105000012801D10220F8BD01214020015500BF27
:101060002068806804210840800800287ED14D490E
:101070006868884264D02068806A2A78012191409B
:1010800008432168886201210907A06B884229D0A2
:10109000A06B012826D0A06B022823D0A06B0328C8
:1010A00020D0A06B04281DD0A06B05281AD0A06BFF
:1010B000062817D0A06B072814D0A86821684969B2
:1010C0004907490F88420DD020684069C008C00018
:1010D0002168486120684069297A4907490F084317
:1010E000216848612868102805D02868112802D096
:1010F000286812284FD12C4880682968102901D10E
:10110000C90407E02968112902D10121890501E0FC
:1011100001210906084324498860286810283AD12B
:10112000224923480068FFF737F80A214843009016
:1011300002E00098401E009000980028F9D12AE0B3
:101140002068816A2A78012090408143206881626A
:101150002868102805D02868112802D0286812288D
:1011600019D1114880682968102900E00EE001D1EA
:10117000C90407E02968112902D10121890501E08C
:101180000121090688430849886004E0606C202139
:1011900008436064012600BF00214020015500BFC4
:1011A000304658E7011000000027014040420F0080
:1011B00038000020014608200A6810600868006CAA
:1011C0007047000070B5044600260025002C01D1B0
:1011D000012070BD606C002806D1A0640021402071
:1011E0000155204600F0C6F8606C10210840002828
:1011F0007ED1002EFCD12068806804210840800840
:101200000028F5D1606C890188430221084360649D
:10121000206880688007800F01280DD12068006851
:10122000C007C00F002805D12068C06889030840A6
:10123000884201D1012000E0002000280FD1206861
:10124000C06818218843A16808432168C8602068E5
:10125000006980008008616808432168086120688F
:10126000C068424908402168C860A0698003E169FC
:10127000C9030843216A49030843616B012902D06D
:101280000121090300E000210843E16808432169C6
:10129000022901D1042100E000210843216B49000B
:1012A00008430543606A012805D1206A002802D15D
:1012B000012000040543FF21C231A06A884203D007
:1012C000E16AA06A084305432068C0682843216892
:1012D000C86001210907A06B884216D0A06B0128C5
:1012E00013D0A06B022810D0A06B03280DD000E013
:1012F00034E0A06B042808D0A06B052805D0A06BB3
:10130000062802D0A06B07280DD120684069C008CC
:10131000C0002168486120684069218F4907490F52
:101320000843216848612068C06811490840A84204
:1013300008D10020A064606C022188430121084389
:10134000606410E0606C02218843102108436064EF
:10135000A06C01210843A064012604E0606C102108
:10136000084360640126304633E700001902FEFF9F
:10137000E7FF3F8310B586B004460F4920688842D6
:1013800017D100BF0D488069491508430B49886192
:101390000846806949150840009000BF00BF012041
:1013A0000190032002900020039001A9044800F05E
:1013B000EDF806B010BD000000240140001002400E
:1013C00000040048F8B504460D466069082801D1BC
:1013D000082711E02068C068C007C00F00280AD0A5
:1013E000606C20210843606400BF0021402001554B
:1013F00000BF0120F8BD0C2700F0CCF9064614E030
:10140000681C002811D0002D04D000F0C3F9801B07
:10141000A8420AD9606C04210843606400BF00211F
:101420004020015500BF0320E4E7206800683840F1
:101430000028E5D0606C01214902084360642068FF
:10144000C068032189020840002825D1206A0028AD
:1014500022D1206800680821084008281CD1206893
:10146000806804210840800800280DD12068406869
:101470000C21884321684860606CFF21013188435A
:1014800001210843606407E0606C20210843606428
:10149000A06C01210843A064A069002802D10C209F
:1014A000216808600020A5E770B504460025206883
:1014B000806804210840800800282BD100BF40200C
:1014C000005D012801D1022070BD0121402001559D
:1014D00000BFE069012803D02046FFF761FB054605
:1014E000002D18D1606C0D490840FF2101310843DF
:1014F00060640020A06400BF00214020015500BFAF
:101500001C20216808602068806804210843216845
:10151000886000E002252846D6E70000FEF1FFFFC4
:1015200070B50446002500BF4020005D012801D1B0
:10153000022070BD01214020015500BF2046FFF769
:10154000A4FA0546002D0CD12046FFF7D4FA054633
:10155000002D06D1606CFF21013188430121084331
:10156000606400BF00214020015500BF2846E0E72D
:1015700031B5002400F00EF9044600BF00F00AF96E
:10158000001B00998842F9D338BD000078B50346A6
:10159000002200240020E3E0012696400D6835403B
:1015A0002C46002C7ED04D68022D02D04D68122DA5
:1015B00015D1D508AE001D462035A8595507EE0EA9
:1015C0000F25B5400646AE4330465607F60E0D6968
:1015D000B5402843D508AD001E4620367051186826
:1015E00056000325B5400646AE4330460D79AD079B
:1015F000AD0F5600B540284318604D68012D08D046
:101600004D68022D05D04D68112D02D04D68122D68
:1016100018D1986856000325B5400646AE433046BB
:101620005600CD68B540284398605868012595401C
:101630000646AE43304610264D6835402D0995408C
:1016400028435860D86856000325B5400646AE4387
:10165000304656008D68B5402843D86001263607CD
:101660004D683540B5427AD100BF404DAD69012685
:1016700035433E4EB5613546AD69ED07ED0F00953A
:1016800000BF00BF3A4D9608B600A85995072E0F27
:101690000F25B5400646AE4330460925ED06AB4260
:1016A00003D100E05BE0002514E0324DAB4201D1F4
:1016B00001250FE0304DAB4201D102250AE02F4D4C
:1016C000AB4201D1032505E02D4DAB4201D10425EC
:1016D00000E005259607360FB5402843244D9608AF
:1016E000B600A851274D28680546A543284601267F
:1016F00036044D683540B54202D10546254328469B
:10170000204D286068680546A543284601267604D2
:101710004D683540B54202D1054625432846194D4E
:101720006860A8680546A5432846012636054D6829
:101730003540B54202D1054625432846114DA860E3
:10174000E8680546A5432846012676054D683540DC
:10175000B54202D10546254328460A4DE860521C91
:101760000D68D540002D00D016E778BD001002406E
:10177000080001400004004800080048000C004830
:101780000010004800040140002A01D0816100E0FF
:101790008162704701480068704700004C000020DB
:1017A00002480068401C0149086070474C00002056
:1017B00010B506480068102108430449086000205D
:1017C00000F006F800F017F8002010BD00200240DD
:1017D00070B5044600F04AFA06467D21C900FEF7BE
:1017E000DBFC054600F010FE00222146501E00F0F2
:1017F0000FF8002070BD704700BFC206D20E012155
:101800009140024A116000BF7047000000E100E013
:1018100070B504460D4616462946204602F00EF9DC
:1018200070BD0000F8B5044600250026012109041A
:1018300020680840884266D15648006A03210902A0
:101840000840032212026168114088425BD000BF49
:101850005048C0690121090708434E49C86108463C
:10186000C06909040840009000BF00BF4A480068F2
:101870000915084348490860FFF78CFF054606E054
:10188000FFF788FF401B642801D90320F8BD4248B8
:101890000068FF21013108400028F1D03D48006A6E
:1018A00003210902884306463A48006A01210904D7
:1018B0000843384908620846006A01210904884340
:1018C000344908620846066202203040002811D0E0
:1018D000FFF760FF054607E0FFF75CFF401B2F495D
:1018E000884201D90320D1E72A48006A0221084032
:1018F0000028F1D02748006A032109028843616863
:101900000843244908622078C007C00F002807D088
:101910002048006B80088000A16808431D490863C7
:10192000022120680840022808D11A48006B0321D0
:1019300009048843E16808431649086301218904C2
:1019400020680840884208D11248006B03218904AE
:101950008843216908430F49086320212068084013
:10196000202807D10B48006B102188436169084388
:10197000084908630121890220680840884207D18C
:101980000448006B40218843A1690843014908636A
:1019900000207BE700100240007000408813000028
:1019A00070B504460E460025AD480068C007C00F5C
:1019B000B0426ED2AA480068400840003043A849AF
:1019C000086008460068C007C00FB04201D001207F
:1019D00070BD022120680840022807D1A148406854
:1019E000F0218843A16808439E4948602078C007D9
:1019F000C00F002848D06068012808D199480068C5
:101A0000012149040840002821D10120E0E7606855
:101A1000022808D19348006801214906084000289F
:101A200015D10120D4E76068032808D18D48406BA8
:101A3000012109040840002809D10120C8E789488C
:101A4000006802210840002801D10120C0E7854834
:101A50004068800880006168084382494860FFF759
:101A600099FE0546606801280FD107E0FFF792FE56
:101A7000401B7D49884201D90320A9E77948406885
:101A80000C2108400428F1D1D6E06068022810D16A
:101A900008E031E0FFF77EFE401B7349884201D920
:101AA000032095E76F4840680C2108400828F1D1D1
:101AB000C2E0606803280FD107E0FFF76BFE401B10
:101AC0006949884201D9032082E7664840680C21B1
:101AD00008400C28F1D1AFE007E0FFF75BFE401BA8
:101AE0006149884201D9032072E75E4840680C21B1
:101AF00008400028F1D19FE0022120680840022818
:101B000007D158484068F0218843A16808435549E7
:101B100048602078C007C00F00287ED06068012888
:101B200008D150480068012149040840002821D10B
:101B300001204DE76068022808D14A480068012169
:101B400049060840002815D1012041E760680328B4
:101B500008D14448406B012109040840002809D1FC
:101B6000012035E73F48006802210840002801D1E4
:101B700001202DE73B4840688008800061680843E9
:101B800038494860FFF706FE0546606801280FD116
:101B900007E0FFF7FFFD401B3349884201D90320CE
:101BA00016E7304840680C2108400428F1D134E0A1
:101BB000606802280FD107E0FFF7ECFD401B2A49BF
:101BC000884201D9032003E7264840680C210840D9
:101BD0000828F1D121E0606803280FD107E0FFF762
:101BE000D9FD401B2049884201D90320F0E61D4859
:101BF00040680C2108400C28F1D10EE007E0FFF707
:101C0000C9FD401B1849884201D90320E0E6154868
:101C100040680C2108400028F1D1114800684008B4
:101C2000400030430E49086008460068C007C00FF6
:101C3000B04201D00120CBE60421206808400428EE
:101C400008D108484068072109028843E168084331
:101C5000044948600020FFF7BBFD0020B8E6000003
:101C600000200240001002408813000010B500F070
:101C700025F806494968F02211400909044A515CD7
:101C8000C840044908600846006810BD00100240C2
:101C9000587800083800002010B5FFF7E7FF054925
:101CA0004968072212021140090A034A515CC840E0
:101CB00010BD00000010024058780008F0B589B04F
:101CC0002FA001460EC9C06805AC0EC4089030A014
:101CD00001460EC9C06801AC0EC404900024002661
:101CE00000270025002000902D4844680C2020404B
:101CF00000283DD0042804D0082805D00C2836D16F
:101D000032E02848009036E00F2080042040800C0C
:101D100005A90D5C2248C06A0007000F01A90E5CEE
:101D20000320C003204001210904884206D1314626
:101D30001C48FEF731FA6843074613E00320C0034E
:101D400020400321C903884206D131461648FEF7D8
:101D500023FA6843074605E031461248FEF71CFAAD
:101D600068430746009706E00F48009003E000BF75
:101D70000C48009000BF00BF009809B0F0BD000003
:101D800002030405060708090A0B0C0D0E0F1010BC
:101D90000102030405060708090A0B0C0D0E0F10BB
:101DA0000010024000127A00006CDC0238B50446D4
:101DB00000252078C007C00F00286FD0FE4840687B
:101DC0000C21084004280CD0FB4840680840082833
:101DD00013D1F948406849030840012109048842A9
:101DE0000BD1F54800680121490408400028E4D0DF
:101DF0006068002852D1012038BD00BFEE4800685D
:101E0000012109048843EC49086008460068012163
:101E100089048843E849086000BFFFF7BBFC05461A
:101E200006E0FFF7B7FC401B642801D90320E3E775
:101E3000E14800680121490408400028F1D100BFB1
:101E40006068012806D1DC48006849100843DA4977
:101E5000086032E0606800280ED1D7480068012190
:101E600009048843D44908600846006801218904B0
:101E70008843D149086020E0606805280FD1CE482A
:101E80000068012189040843CB49086008460068BE
:101E9000012109040843C84908600EE036E0C6483D
:101EA0000068012109048843C349086008460068A6
:101EB000012189048843C049086000BF6068002888
:101EC00012D0FFF767FC054606E0FFF763FC401BF6
:101ED000642801D903208FE7B7480068012149042D
:101EE00008400028F1D011E0FFF754FC054606E059
:101EF000FFF750FC401B642801D903207CE7AE4863
:101F000000680121490408400028F1D1022120681D
:101F10000840022862D1A84840680C2108400028E7
:101F20000CD0A5484068084008281CD1A248406849
:101F3000490308400121C903884214D19E48006822
:101F400002210840002804D0E068012801D00120C7
:101F500052E799480068F82188432169C90008437D
:101F6000954908603AE0E068002820D0924800686F
:101F70000121084390490860FFF70CFC054606E084
:101F8000FFF708FC401B642801D9032034E78A4886
:101F90000068022108400028F2D087480068F82134
:101FA00088432169C90008438349086016E08248D4
:101FB00000684008400080490860FFF7EBFB0546D9
:101FC00006E0FFF7E7FB401B642801D9032013E775
:101FD00079480068022108400028F2D108212068D1
:101FE0000840082831D1206A002817D07248406A7A
:101FF0000121084370494862FFF7CCFB054606E023
:10200000FFF7C8FB401B642801D90320F4E66A48A7
:10201000406A022108400028F2D016E06648406A73
:102020004008400064494862FFF7B4FB054606E0FB
:10203000FFF7B0FB401B642801D90320DCE65E48B3
:10204000406A022108400028F2D10421206808409B
:10205000042870D100BF5848C06989060843564912
:10206000C8610846C06909040840009000BF00BF6D
:10207000524800680915084350490860FFF78AFB79
:10208000054606E0FFF786FB401B642801D90320C4
:10209000B2E64A480068FF21013108400028F1D02B
:1020A00000BF4548006A40084000434908620846AE
:1020B000006A042188434049086200BFFFF76AFBB9
:1020C000054607E0FFF766FB401B3D49884201D902
:1020D000032091E63848006A022108400028F1D127
:1020E00000BFA068012806D13348006A01210843D7
:1020F000314908622CE0A06800280CD12E48006A03
:10210000400840002C4908620846006A04218843C0
:10211000294908621CE0A06805280DD12648006AFC
:1021200004210843244908620846006A0121084343
:10213000214908620CE034E01F48006A4008400072
:102140001D4908620846006A042188431A4908624A
:1021500000BFA068002812D0FFF71CFB054607E06F
:10216000FFF718FB401B1649884201D9032043E6BC
:102170001148006A022108400028F1D011E0FFF761
:1021800009FB054607E0FFF705FB401B0C498842A9
:1021900001D9032030E60848006A022108400028DF
:1021A000F1D1102120680840102860D16069012811
:1021B0002DD10148406B05E0001002400070004046
:1021C00088130000042108438E4948630846406B89
:1021D000012108438B494863FFF7DCFA054606E016
:1021E000FFF7D8FA401B642801D9032004E685488C
:1021F000406B022108400028F2D08248406BF82151
:102200008843A169C90008437E4948632FE060699B
:10221000401D00280FD17B48406B04218843794939
:1022200048630846406BF8218843A169C900084308
:10223000744948631BE07348406B042108437149AB
:1022400048630846406B400840004863FFF7A2FA25
:10225000054606E0FFF79EFA401B642801D90320DB
:10226000CAE56848406B022108400028F2D12021CD
:1022700020680840202852D1624840680C2108405C
:102280000C280AD05F4840680840082811D15D48F2
:1022900040684903084088420BD15A48406B0121ED
:1022A0000904084000283AD0E069012837D001200D
:1022B000A2E5E069002819D05248406B01210904C9
:1022C000084350494863FFF765FA054606E0FFF703
:1022D00061FA401B642801D903208DE54948406B11
:1022E0000121090408400028F1D018E04548406B5E
:1022F00001210904884343494863FFF74BFA054627
:1023000006E0FFF747FA401B642801D9032073E574
:102310003C48406B0121090408400028F1D1606A63
:1023200000286CD0374840680C210840082864D049
:10233000606A022847D133480068012109068843B2
:1023400030490860FFF726FA054606E0FFF722FA53
:10235000401B642801D903204EE52A48006801216A
:10236000490608400028F1D100BF2648C06A00098C
:102370000001216B08432349C862A16AE06A08434F
:10238000204949687B22D203914308431D49486094
:1023900000BF084600680121090608431949086082
:1023A000FFF7F8F9054606E0FFF7F4F9401B64284B
:1023B00001D9032020E5134800680121490608409F
:1023C0000028F1D01BE00F4800680121090688436E
:1023D0000C490860FFF7DEF9054606E0FFF7DAF979
:1023E000401B642801D9032006E506480068012146
:1023F000490608400028F1D101E00120FCE400205A
:10240000FAE400000010024070B504462546681E3C
:102410000949884201D901200CE0681E074948613A
:102420000321081F01F00AFB0020044988610720EE
:102430000861002070BD0000FFFFFF0000E000E029
:1024400070477047024600BF3820805C012801D1E8
:102450000220704701233820835400BF0223392013
:1024600083544B68086818438B681843CB6818433B
:102470000B6918434B6918438B69184313685864F8
:1024800001233920835400BF00233820835400BF28
:102490000020DEE7024600BF3820805C012801D121
:1024A0000220704701233820835400BF02233920C3
:1024B000835410684068702398431368586010680C
:1024C00040680B6818431368586010688068802360
:1024D000984313689860106880684B6818431368C5
:1024E000986001233920835400BF0023382083548F
:1024F00000BF0020D5E710B50446002C01D1012013
:1025000010BD3920005D002805D10021382001557B
:10251000204600F00DF8022139200155211D2068C8
:1025200001F0F0FD0121392001550020E8E700000D
:1025300010B586B004462149206888421BD100BFEF
:102540001F48C069022108431D49C8610846C06987
:1025500002210840009000BF00BFFF2041300190E1
:1025600002200290002003900490059001A91548D4
:10257000FFF70CF820E01449206888421CD100BF06
:102580000F4880690121090408430D498861084604
:102590008069012109040840009000BF00BF0420A9
:1025A000019002200290002003900490059001A960
:1025B0000920C006FEF7EAFF06B010BD0004004087
:1025C000001002400008004800400140F8B50446F1
:1025D0000D46002600BF3820005D012801D10220F1
:1025E000F8BD01213820015500BF022139200155D5
:1025F000206886687721304688430646FF21090215
:1026000030468843064620688660286850283ED0B9
:102610000CDC202863D004DC002856D0102868D1B8
:1026200058E0302860D0402863D144E0602838D09A
:1026300070280DD001210903401A02D0401A58D148
:1026400017E020688068C008C0002168886051E0F9
:10265000EB686A68A968206801F0B4FD20688668A4
:1026600077213046884306467720064320688660F7
:1026700040E0EB686A68A968206801F0A3FD206863
:1026800080680121890308432168886032E0EA6894
:102690006968206801F016FF5021206801F0A1FD53
:1026A00028E0EA686968206801F027FF6021206857
:1026B00001F097FD1EE0EA686968206801F002FFFA
:1026C0004021206801F08DFD14E00021206801F018
:1026D00088FD0FE01021206801F083FD0AE0202131
:1026E000206801F07EFD05E03021206801F079FDD1
:1026F00000E000BF00BF01213920015500BF0021CB
:102700003820015500BF00206AE7704710B5044625
:102710002068006902210840400800281CD0206879
:10272000C06808404008002816D0481F216808618A
:1027300001202076206880698007800F002803D060
:102740002046FFF7E2FF05E0204600F0C3F82046F0
:1027500000F0B4F9002020762068006904210840C8
:10276000800800281DD02068C06808408008002824
:1027700017D0C8432168086102202076206880694C
:10278000032109020840002803D02046FFF7BDFFBF
:1027900005E0204600F09EF8204600F08FF900206A
:1027A00020762068006908210840C00800281CD055
:1027B0002068C0680840C008002816D0C8432168B7
:1027C0000861042020762068C0698007800F0028F7
:1027D00003D02046FFF799FF05E0204600F07AF885
:1027E000204600F06BF90020207620680069102157
:1027F0000840000900281DD02068C0680840000972
:10280000002817D0C8432168086108202076206876
:10281000C069032109020840002803D02046FFF7C1
:1028200074FF05E0204600F055F8204600F046F918
:102830000020207620680069C007C00F01214840B1
:10284000484000280CD02068C068084048404840F4
:10285000002805D0C81E21680861204600F0BAF99A
:102860002068006980210840C00900280BD020683A
:10287000C0680840C009002805D0C8432168086125
:102880002046FFF7DDFD20680069402108408009EF
:1028900000280BD02068C06808408009002805D0B7
:1028A000C84321680861204600F095F92068006956
:1028B00020210840400900280BD02068C06808404B
:1028C0004009002805D0C843216808612046FFF769
:1028D000B8FD10BD704770B504460D46164600BFE2
:1028E0003820005D012801D1022070BD012138206F
:1028F000015500BF022139200155002E06D0042EBB
:102900001BD0082E33D00C2E62D147E02946206818
:1029100001F074FC206880690821084321688861FF
:102920002068806904218843216888612068806963
:1029300029690843216888614BE02946206801F035
:10294000B7FC206880690121C902084321688861B9
:102950002068806901218902884321688861206894
:1029600080692969090208432168886131E02946A4
:10297000206801F001FD2068C06908210843216832
:10298000C8612068C069042188432168C861206843
:10299000C069296908432168C8611AE0294620688E
:1029A00001F04CFD2068C0690121C902084321687B
:1029B000C8612068C0690121890288432168C86113
:1029C0002068C0692969090208432168C86100E0DC
:1029D00000BF00BF01213920015500BF0021382070
:1029E000015500BF002080E710B50446002C01D13E
:1029F000012010BD3920005D002805D100213820BC
:102A00000155204600F00CF8022139200155211D06
:102A1000206801F077FB0121392001550020E8E70B
:102A200010B586B004462149206888421BD100BFFA
:102A30001F48C069022108431D49C8610846C06992
:102A400002210840009000BF00BFFF2041300190EC
:102A500002200290002003900490059001A91548DF
:102A6000FEF794FD20E01449206888421CD100BF85
:102A70000F4880690121090408430D49886108460F
:102A80008069012109040840009000BF00BF0420B4
:102A9000019002200290002003900490059001A96B
:102AA0000920C006FEF772FD06B010BD000400400C
:102AB000001002400008004800400140704700003C
:102AC00030B504460D4601222946206801F06CFB12
:102AD0001149206888420BD010492068884207D0ED
:102AE0000F492068884203D00E492068884201D1EE
:102AF000012000E00020002806D02068406C012161
:102B0000C90308432168486420680068012108431C
:102B100021680860002030BD002C014000400140C9
:102B2000004401400048014030B504460D460022F3
:102B30002946206801F038FB2149206888420BD0E3
:102B400020492068884207D01F492068884203D066
:102B50001E492068884201D1012000E000200028A1
:102B600014D000BF2068006A1949084000280CD121
:102B70002068006A89100840002806D12068406C4F
:102B80000121C90388432168486400BF00BF206851
:102B9000006A0F49084000280BD12068006A89109C
:102BA0000840002805D120680068400840002168DE
:102BB000086000BF012139200155002030BD000010
:102BC000002C014000400140004401400048014009
:102BD00011110000704770477047704710B50446E8
:102BE0002068C069C007C00F00280FD020680068A7
:102BF000FF2101310840002808D001202168086227
:102C0000E06E01210843E066692001552068C06933
:102C10000221084000280FD020688068C007C00F3C
:102C2000002809D0022021680862E06E04210843D0
:102C3000E0660121692001552068C069042108402F
:102C400000280FD020688068C007C00F002809D076
:102C5000042021680862E06E02210843E066012139
:102C6000692001552068C0690821084000280FD05C
:102C700020688068C007C00F002809D0082021689C
:102C80000862E06E08210843E066012169200155D1
:102C9000E06E002802D02046FFF79FFF2068C06941
:102CA00001210905084000280ED0206880688900AD
:102CB0000840002808D08810216808620121692096
:102CC00001552046FFF788FF2068C0692021084091
:102CD00000280DD0206800680840002808D0204651
:102CE00001F0FEFC206880690821084321688861A2
:102CF0002068C06980210840002807D0206800684B
:102D00000840002802D0204601F07CFE2068C069FF
:102D100040210840002807D02068006808400028AB
:102D200002D0204601F0BEFC10BD10B50446002CB8
:102D300001D1012010BDA069002800D000E000BF33
:102D40006920005D002805D100216820015520463A
:102D500000F02CF802216920015520680068400825
:102D6000400021680860204601F00EFD012800D1D6
:102D7000E0E7606A002802D0204601F0D9FB206815
:102D800040680921C902884321684860206880683A
:102D90002A2188432168886020680068012108434F
:102DA00021680860204601F03BFCC3E710B586B0FF
:102DB0000446AF492068884225D100BFAD488069EC
:102DC000012189030843AB498861084680690121D4
:102DD00089030840009000BF00BFC020019002207E
:102DE00002900120039000200490059001A9A248C0
:102DF000FEF7CCFB002211461B20FEF709FD1B202D
:102E0000FEF7FAFC31E19D492068884227D100BFD6
:102E10009848C0690121490408439649C861084699
:102E2000C069012149040840009000BF00BF0C2088
:102E300001900220029001200390002004900120C4
:102E4000059001A90920C006FEF7A0FB002211464B
:102E50001C20FEF7DDFC1C20FEF7CEFC05E18849B6
:102E60002068884226D100BF8248C06901218904B8
:102E700008438049C8610846C069012189040840A7
:102E8000009000BF00BF02200290012003900020AC
:102E90000490302001900120059001A97948FEF7A7
:102EA00075FB002211461D20FEF7B2FC1D20FEF727
:102EB000A3FCDAE074492068884227D100BF6D483E
:102EC000C0690121C90408436A49C8610846C0694C
:102ED0000121C9040840009000BF00BF02200290F9
:102EE0000120039000200490032080020190002024
:102EF000059001A96348FEF749FB002211461D20F9
:102F0000FEF786FC1D20FEF777FCAEE05F492068E7
:102F100088422ED100BF5748C069012109050843E6
:102F20005449C8610846C06901210905084000905C
:102F300000BF00BF022002900120039000200490F7
:102F4000081201900220059001A94E48FEF71EFBD1
:102F5000042001900220059001A94D48FEF716FBC0
:102F6000002211461D20FEF753FC1D20FEF744FCF5
:102F70007BE048492068884225D100BF3D488069F0
:102F8000202108433B498861084680692021084088
:102F9000009000BF00BF302001900220029001206D
:102FA0000390002004900520059001A90920C00687
:102FB000FEF7ECFA002211461D20FEF729FC1D2029
:102FC000FEF71AFC51E034492068884224D100BF42
:102FD000284880694021084326498861084680695D
:102FE00040210840009000BF00BFC0200190022097
:102FF000029001200390002004900120059001A977
:103000002048FEF7C3FA002211461D20FEF700FCFF
:103010001D20FEF7F1FB28E020492068884224D1DA
:1030200000BF14488069802108431249886108461E
:10303000806980210840009000BF00BF032000028B
:1030400001900220029001200390002004900120B2
:10305000059001A90B48FEF799FA002211461D20A0
:10306000FEF7D6FB1D20FEF7C7FB06B010BD000023
:1030700000380140001002400004004800440040B5
:103080000048004000080048004C0040005000404C
:10309000000C00480014014000180140001C0140D1
:1030A000FFB581B004460D4616466920005D012833
:1030B00003D06920005D122875D1002D01D0002EAB
:1030C00002D1012005B0F0BD00BF6820005D0128DD
:1030D00001D10220F6E701216820015500BF002040
:1030E000E0666920005D122803D132216920015574
:1030F00002E0222169200155582006535A20065328
:1031000000BF01210903A06888420AD12069002874
:1031100003D135495C20015320E0FF215C2001539D
:103120001CE0A06800280AD12069002803D1FF21F3
:103130005C20015312E07F215C2001530EE001214D
:103140000907A068884209D12069002803D17F219E
:103150005C20015302E03F215C20015300BF5C2052
:10316000005B009027E05A20005B401E81B25A208D
:103170000153002220212046049B01F080FC0028FE
:1031800001D003209EE701210903A06888420BD1EA
:103190002069002808D12F462068808C00990840BB
:1031A0003880AD1C07E01CE02068808C0099C9B213
:1031B000084028706D1C5A20005B0028D3DC692071
:1031C000005D322803D112216920015502E001215E
:1031D0006920015500BF00216820015500BF002073
:1031E00070E702206EE70000FF01000038B50446DA
:1031F000002000902046FDF7AFFE800004490D58E6
:103200006946284603F0A3F801200249087038BD3A
:10321000080200205D000020FFB581B004460D4685
:1032200016466920005D012803D06920005D222830
:1032300067D1002D01D0002E02D1012005B0F0BDD4
:1032400000BF6820005D012801D10220F6E70121BE
:103250006820015500BF0020E0666920005D22283B
:1032600003D132216920015502E012216920015564
:10327000502006535220065323E05220005B401E8C
:1032800081B252200153002280212046049B01F08C
:10329000F6FB002801D00320D0E701210903A06834
:1032A00088420AD12069002807D12F463888C005F6
:1032B000C00D21680885AD1C03E028786D1C2168CD
:1032C00008855220005B0028D7DC002240212046E0
:1032D000049B01F0D4FB002801D00320AEE7692055
:1032E000005D322803D122216920015502E001212D
:1032F0006920015500BF00216820015500BF002052
:103300009CE702209AE710B503466920C05C0128BB
:1033100003D06920C05C222835D1002901D0002AC1
:1033200001D1012010BD00BF6820C05C012801D17F
:103330000220F7E701246820C45400BFD96450205C
:10334000C2525220C2520020D8666920C05C222896
:1033500003D132246920C45402E012246920C454E9
:1033600018688068012420431C68A06000BF002406
:103370006820C45400BF18680068802420431C687B
:1033800020600020CEE70220CCE7000038B50446DC
:10339000002000902046FDF7DFFD800004490D5815
:1033A0006946284602F0D3FF01200249087038BD63
:1033B000080200205E00002000B585B0402000908B
:1033C000012001900020029003200390694609200B
:1033D000C006FEF7DBF805B000BD00000EB51148D1
:1033E000114908600020486000210F488160C160D9
:1033F000012101610421416100218161C1610162FA
:103400004162C162016301214163FDF7DBFE0820D7
:103410000090400201900004029069460248FDF7C6
:10342000F3FD0EBD002401406C05002000B58BB0FB
:1034300000204B4A009002900346019203908022A4
:1034400048A14B4803F082F900204A4A00900290BC
:10345000012301920390802247A1494803F076F9A5
:103460000020484A0090029002230192039080229B
:1034700045A1434803F06AF90020454A00900290B4
:10348000032301920390802242A13D4803F05EF99C
:103490000020424A0090029004230192039080226F
:1034A0003FA1374803F052F900203F4A00900290B4
:1034B00005230192039080223CA1314803F046F994
:1034C00000203C4A00900290062301920390802243
:1034D00039A12B4803F03AF90020394A022302901F
:1034E0000093019203900346FF22013235A139482F
:1034F00003F02CF900200A9001210AA801F07AFEBD
:103500003549486000200990012109A801F072FEA8
:103510003149886000200890012108A801F06AFE66
:103520002D49C86000200790012107A801F062FE24
:103530002949086100200690012106A801F05AFEE1
:103540002549486100200590012105A801F052FE9F
:103550002149886102F088FA02F0A2FA0BB000BD9E
:103560000800002044656661756C745461736B00DB
:10357000193D00081000002050315461736B0000A9
:10358000B53A00081400002050325461736B0000FB
:103590001800002050335461736B00001C000020A1
:1035A00050345461736B000020000020503554618A
:1035B000736B00002400002050365461736B0000D0
:1035C0000C00002046726F6E74456E645461736B1C
:1035D00000000000490E00080802002008B500BFE6
:1035E0001F4840690121490408431D4948610846B4
:1035F0004069012149040840009000BF00BF00BF9E
:103600001748406949000843154948610846406920
:10361000012189040840009000BF00BF00BF10488E
:103620004069490008430E49486108464069012144
:10363000C9040840009000BF00BF00BF08484069AF
:1036400049000843064948610846406901210905C7
:103650000840009000BF00BFFFF7AEFE08BD0000AD
:103660000010024000B595B01F4820490860302086
:10367000486000211D4881601D49C1600021016131
:103680004161FEF738FF01200003119011A917488E
:10369000FEF79CFF1548FFF7A7F900200F90109048
:1036A0000FA91248FEF7F6FE0020089009900A9034
:1036B0000B900C90012040030D9000200E9008A963
:1036C0000A48FEF7BFFE60200190002002900390A0
:1036D0000490059006900790002201A90348FFF787
:1036E000FAF815B000BD00000040014004060020BB
:1036F000204E00000EB500BF1448C06901210843E8
:103700001249C8610846C069C007C00F009000BFD9
:1037100000BF88040E4908600020486000210C4862
:1037200081603021C160FEF7E6FE0020019002902A
:1037300001A90748FEF7AEFE002211460F20FEF752
:1037400067F80F20FEF758F80EBD00000010024089
:103750003402002000B58DB01848194908603020A7
:1037600048600021164881601649C160002101614E
:10377000FEF7C1FE01200003099009A91048FEF7D9
:1037800025FF0F48FFF730F900200790089007A9A0
:103790000B48FEF77FFE6020009000200190029011
:1037A0000490002269460648FFF795F8082269460A
:1037B0000348FFF790F80DB000BD00000004004082
:1037C000C8050020204E00000EB500BF1048C0699B
:1037D000202108430E49C8610846C06920210840DD
:1037E000009000BF00BF0B480B49086030204860C4
:1037F0001021094881600121C160FEF77CFE002094
:103800000190029001A90448FEF744FE0EBD00009D
:1038100000100240001400407002002010B500F0BB
:103820000BF800F027F800F07FF800F09BF800F0AC
:103830003FF800F05BF810BD10B50C480C4908606B
:10384000E12000034860002109488160C1600161F6
:103850000C21416100218161C161016200200449A4
:1038600048620846FFF761FA10BD000000440040BE
:10387000BC02002010B50C480C490860E120000390
:103880004860002109488160C16001610C214161EB
:1038900000218161C161016200200449486208463B
:1038A000FFF743FA10BD0000004800402C03002041
:1038B00010B50C480C490860E12000034860002165
:1038C00009488160C16001610C2141610021816171
:1038D000C16101620020044948620846FFF725FAE9
:1038E00010BD0000004C00409C03002010B50C48A7
:1038F0000C490860E120000348600021094881600C
:10390000C16001610C21416100218161C1610162DD
:103910000020044948620846FFF707FA10BD00007E
:10392000005000400C04002010B50C480C49086001
:10393000E12000034860002109488160C160016105
:103940000C21416100218161C161016200200449B3
:1039500048620846FFF7E9F910BD00000018014071
:103960007C04002010B50C480C490860E1200003DD
:103970004860002109488160C16001610C214161FA
:1039800000218161C161016200200449486208464A
:10399000FFF7CBF910BD0000001C0140EC04002033
:1039A000F8B504460D46012C04D0032C15D0042C88
:1039B00039D125E01D492846FCF748FD1C490090F7
:1039C000FCF707FD07461A49FCF7AAFC0646FCF778
:1039D0003FFE18490968486326E014492846FCF769
:1039E00035FD13490090FCF7F4FC07461049FCF73D
:1039F00097FC0646FCF72CFE0F490968486313E064
:103A00000A492846FCF722FD09490090FCF7E1FC31
:103A100007460749FCF784FC0646FCF719FE0649F1
:103A20000968C86300E000BF00BFF8BD0000344370
:103A300000007A4404060020C805002010B50028C4
:103A400019DA1A4A03071B0F083B9B089B00D25840
:103A50008307DC0EFF23A3409A438B071B0E8407CA
:103A6000E40EA3401A43114B0407240F083CA4089A
:103A7000A4001A5118E00E4A03231B02D21883082F
:103A80009B00D2588307DC0EFF23A3409A438B0789
:103A90001B0E8407E40EA3401A43054B03242402A3
:103AA0001B198408A4001A5110BD00001CED00E091
:103AB00000E100E01CB5054600200190ECB200BF1B
:103AC0004548005D002807D132200346012201A9A4
:103AD0000090204601F028FE684600790D280ED19E
:103AE000002001903D48047002203B490855002306
:103AF000022219463A48006802F040F868E0684639
:103B00000079002864D037480078002813D168462F
:103B100000793549087008460078022807D0084621
:103B200000780C2803D00846007806284ED10120E2
:103B30002C4908704AE02B48007801280FD12A4808
:103B40000078022803D0284800780C2807D168465E
:103B500000792649087002202249087036E0214881
:103B6000007802280FD120480078022803D01E4890
:103B700000780C2807D1684600791D49087000209C
:103B80001849087022E01748007801280DD116481E
:103B90000078062809D168460079FCF752FD1549DE
:103BA000086002200F49087010E00E4800780228D3
:103BB0000CD10D480078062808D168460079FCF73A
:103BC00040FD0D4908600020064908700020019062
:103BD00001F03EFF74E70000550000205F00002068
:103BE000B0000020280000202D0000202F00002021
:103BF0002E000020300000203400002070B5044664
:103C00000D46FCF705FB06466100FCF7DBFA081BD6
:103C100040B2164908700A460021515608465A30EB
:103C2000FCF704FD064631460320FFF7B9FEFCF71A
:103C3000EFFA06466100FCF7C5FA081B40B20B49D3
:103C400008700A460021515608465A30FCF7EEFC2F
:103C5000064631460420FFF7A3FE29467D20C0001A
:103C6000FCF7B0FA064601F0B3FA70BD7900002007
:103C700070B504460D46FCF7CBFA06466100FCF72A
:103C8000A1FA081B40B2164908700A460021515695
:103C900008465A30FCF7CAFC064631460320FFF7B7
:103CA0007FFEFCF7B5FA06466100FCF78BFA081BAD
:103CB00040B20B4908700A460021515608468C3024
:103CC000FCF7B4FC064631460420FFF769FE29469E
:103CD0007D20C000FCF776FA064601F079FA70BD47
:103CE0007A0000207047000010B500240948FDF755
:103CF000DBFB00BF0021C9430648FDF763FB00283A
:103D0000F8D10448FDF756FA84B20248FDF708FCE2
:103D1000204610BD6C05002000BF7D20C00001F0D2
:103D200057FAFAE7F8B504460D46012C04D0032CE7
:103D300019D0042C45D12DE023492846FCF786FBF9
:103D400022490090FCF745FB07462049FCF7E8FABA
:103D50000646FCF77DFC1E490968486300211C48A3
:103D6000FEF7AEFE2EE018492846FCF76FFB174918
:103D70000090FCF72EFB07461449FCF7D1FA0646E3
:103D8000FCF766FC13490968486300211148FEF7F7
:103D900097FE17E00C492846FCF758FB0B490090AA
:103DA000FCF717FB07460949FCF7BAFA0646FCF789
:103DB0004FFC08490968C86308210648FEF780FEE1
:103DC00000E000BF00BFF8BD0000344300007A44AB
:103DD00004060020C805002010B50446012C04D0BC
:103DE000032C07D0042C0FD109E000210848FEF76E
:103DF0009BFE0AE000210748FEF796FE05E0082139
:103E00000448FEF791FE00E000BF00BF10BD0000B7
:103E100004060020C8050020F8B56C48007800288A
:103E200003D06A480078012809D169490320FFF7C7
:103E3000B7FD684801680420FFF7B2FD10E0634851
:103E40000078022803D061480078032808D160492F
:103E50000420FFF7A5FD5F4801680320FFF7A0FDE0
:103E6000322001F0B5F959480078002817D1594897
:103E70000068FCF701FC06460022574BFCF724FBC8
:103E80000446FCF70DFC534908605449514800684A
:103E9000FCF722FC02D101204C49087094E04B4809
:103EA0000078012838D14B480068FCF7E5FB06464E
:103EB0000022494BFCF7ACFB0446FCF7F1FB4549FB
:103EC0000860002143480068FCF706FC7CD1022012
:103ED0003E49087042490320FFF762FD4149042032
:103EE000FFF75EFDC82001F073F93F490320FFF79B
:103EF00057FD3D490420FFF753FDC82001F068F944
:103F000038490320FFF74CFD35490420FFF748FDF1
:103F1000642001F05DF957E02C480078022817D1A1
:103F20002C480068FCF7A8FB044600222A4BFCF74B
:103F3000CBFA0646FCF7B4FB26490860274925481A
:103F40000068FCF7C9FB3FD10320204908703BE023
:103F50001E480078032837D11E480068FCF78CFB08
:103F6000044600221C4BFCF753FB0646FCF798FB6B
:103F700018490860002117480068FCF7ADFB23D101
:103F800000201249087016490420FFF709FD154961
:103F90000320FFF705FDC82001F01AF9124904209B
:103FA000FFF7FEFC10490320FFF7FAFCC82001F0E0
:103FB0000FF90C490420FFF7F3FC09490320FFF730
:103FC000EFFC642001F004F9F8BD00007800002047
:103FD0000000B442740000200000E03F00003443C1
:103FE00000008C420000F0410000484210B5FDF78F
:103FF000D7FB01F077F910BD00B599B012200C90F5
:1040000001200F9011901020109012900220159016
:1040100081031691C1041791002118910CA8FDF796
:10402000C5FE012008900220099000200A900B9004
:10403000012108A8FDF7B4FC0E4801900020039070
:104040000490059001A8FDF7EDFB00BF0A488069C8
:10405000012108430849886108468069C007C00FEC
:10406000009000BF00BF00221146501EFDF7D0FB9C
:1040700019B000BD03000400001002401948006898
:10408000012108431749086008464068164908405E
:1040900014494860084600681449084011490860FE
:1040A000084600680121890488430E4908600846D3
:1040B00040683F21090488430A4948600846C06AAD
:1040C00000090001C8620846006B0949084005491B
:1040D00008630846406B4008400048630020886041
:1040E00070470000001002400CB8FF08FFFFF6FE0A
:1040F000ACFEF0FF10B50248FEF708FB10BD000053
:104100003402002010B500220268214B984206D0EC
:1041100001239B07984202D01E4B984205D1702480
:104120001346A3431A464B681A43194B984212D0C0
:1041300001239B0798420ED0164B98420BD0164B8A
:10414000984208D0154B984205D0154B984202D0A2
:10415000144B984206D1032424021346A3431A4663
:10416000CB681A4302608B68C3620B688362084B9A
:10417000984208D0094B984205D0094B984202D08A
:10418000084B984201D10B6903630123436110BDC1
:10419000002C01400004004000200040004001408D
:1041A000004401400048014030B5002301248C4008
:1041B0002346046A9C430462046A15468D402C43DE
:1041C000046230BD70B50C4600218168FF263602BE
:1041D0000D46B54329461D021543254329438160F9
:1041E00070BD10B50A460021816870240B46A343B8
:1041F0001946072313431943816010BD70B500248D
:1042000000220023056A6D086D000562026A43689A
:10421000846970262546B5432C46A408A4000D6881
:104220002C4302261546B5432A468D682A431C4D69
:10423000A84200D10BE01B4DA84200D107E01A4D67
:10424000A84200D103E0194DA8420AD100BF0826B8
:104250001546B5432A46CD682A4304261546B5437C
:104260002A460F4DA84208D00E4DA84205D00E4D4B
:10427000A84202D00D4DA8420CD1FF2601361D46A2
:10428000B5432B4676001D46B5432B464D692B435F
:104290008D692B43436084614D684563026270BD44
:1042A000002C014000400140004401400048014012
:1042B00070B5002400220023056A1026B54305626C
:1042C000026A43688469072636032546B5432C46AF
:1042D000032636022546B5432C460D682D022C4395
:1042E00020261546B5432A468D682D012A431E4DCA
:1042F000A84200D10BE01D4DA84200D100BF1C4DCB
:10430000A84200D100BF1B4DA8420BD10AE0802675
:104310001546B5432A46CD682D012A434026154649
:10432000B5432A46104DA84208D0104DA84205D0EA
:104330000F4DA84202D00F4DA8420ED10126B60261
:104340001D46B5432B4676001D46B5432B464D69A9
:10435000AD002B438D69AD002B43436084614D68F4
:104360008563026270BD0000002C014000400140E6
:10437000004401400048014070B5002400220023A1
:10438000056AFF260136B5430562026A4368C469BF
:1043900070262546B5432C46A408A4000D682C437E
:1043A000012676021546B5432A468D682D022A431A
:1043B0001E4DA84200D10BE01D4DA84200D100BF08
:1043C0001C4DA84200D100BF1B4DA8420CD10BE0F0
:1043D0000126F6021546B5432A46CD682D022A432A
:1043E00076101546B5432A46104DA84208D0104D08
:1043F000A84205D00F4DA84202D00F4DA8420ED1C1
:10440000012636031D46B5432B4676001D46B543AF
:104410002B464D692D012B438D692D012B434360A4
:10442000C4614D68C563026270BD0000002C01408C
:1044300000400140004401400048014070B50022A6
:1044400000230024056A01263603B5430562036A8A
:104450004468C269072636031546B5432A46032633
:1044600036021546B5432A460D682D022A43012619
:1044700076031D46B5432B468D682D032B430D4D0A
:10448000A84208D00C4DA84205D00C4DA84202D03D
:104490000B4DA84207D10126B6032546B5432C464D
:1044A0004D69AD012C434460C2614D6805640362EF
:1044B00070BD0000002C014000400140004401405C
:1044C0000048014070B50B46144600210022026AE4
:1044D000056A6D086D0005628169F0260D46B543D9
:1044E0002946250129430A261546B5432A4615467D
:1044F0001D432A468161026270BD70B50B461446A9
:1045000000210022056A1026B54305628169026A0E
:104510000F2636030D46B543294625032943A02619
:104520001546B5432A461D012A438161026270BDCA
:10453000818CC907C90F002908D001684968012288
:1045400052049143826A1143026851600222416A17
:104550001140002907D001684968D2039143C26A1B
:104560001143026851600422416A1140002907D0BA
:104570000168496812049143026B1143026851605B
:104580000822416A1140002907D0016849681203D6
:104590009143426B1143026851601022416A1140FD
:1045A000002907D00168896812029143826B114388
:1045B000026891602022416A1140002907D00168F9
:1045C000896812029143C26B1143026891604022D4
:1045D000416A1140002915D001684968920391434E
:1045E000026C11430268516001221205016C914274
:1045F00008D101684968032252059143426C114376
:10460000026851608022416A1140002907D0016888
:10461000496812039143826C1143026851607047EC
:1046200010B504460020E0661B492068884207D088
:104630001A492068884203D019492068884221D14C
:10464000206800680821084008280AD17D23DB0083
:1046500000228104204600F012FA002801D0032035
:1046600010BD206800680421084004280AD17D2379
:10467000DB0000220105204600F001FA002801D0ED
:104680000320EDE701216920015500BF00216820CA
:10469000015500BF0020E3E700380140004400401E
:1046A0000048004010B50446206800684021884357
:1046B000216808606920005D322803D12221692029
:1046C000015508E020688068400840002168886043
:1046D0000121692001552046FEF758FE002010BD3B
:1046E00070B504465C20065B6920005D222803D07B
:1046F0006920005D322845D101210903A068884264
:104700000BD12069002808D1656D2068808C30406D
:104710002880606D801C606507E02068808CF1B2A5
:104720000840626D511C616510705A20005B401E8C
:1047300081B25A200153002922D12068006820212B
:104740008843216808606920005D322803D1122166
:10475000692001550FE020680068FF21013188437E
:1047600021680860206880684008400021688860EF
:104770000121692001552046FEF738FD002070BD5B
:104780000020FCE70220FAE7FEB5044600251026CB
:1047900000270020029001902169A0680843616908
:1047A0000843E169084305462068006888490840D5
:1047B0002843216808602068406803210903884372
:1047C000E168084321684860216AA06908430546FA
:1047D000206880680B21090288432843216888608B
:1047E00000BF7C492068884217D17B48006B800756
:1047F000800F002806D0012808D0022808D00328FE
:1048000008D101E0002607E0022605E0042603E0C7
:10481000082601E0102600BF5CE07049206888424D
:104820001AD16D48006B032109040840002808D004
:1048300001210904401A08D0401A08D0401A08D1B2
:1048400001E0002607E0022605E0042603E0082632
:1048500001E0102600BF3DE06149206888421AD17E
:104860005D48006B032189040840002808D001211D
:104870008904401A08D0401A08D0401A08D101E033
:10488000002607E0022605E0042603E0082601E0F2
:10489000102600BF1EE053492068884201D100263F
:1048A00018E051492068884201D1002612E04F49A2
:1048B0002068884201D100260CE04D4920688842DA
:1048C00001D1002606E04B492068884201D100262C
:1048D00000E0102600BF0121C903E06988423FD1F2
:1048E000042E1BD004DC002E07D0022E28D10EE0AF
:1048F000082E1DD0102E23D123E0FDF7CDF9400066
:1049000000906168FBF748FC80B202901CE03A48D6
:104910006168FBF741FC80B2029015E0FDF7CEF92B
:10492000400000906168FBF737FC80B202900BE01A
:10493000012000046168FBF72FFC80B2029003E0C5
:1049400000BF0120019000BF00BF2C490298084021
:10495000074602980007400F07432068C76035E00C
:10496000042E1CD004DC002E07D0022E29D10EE02C
:10497000082E1ED0102E24D124E0FDF78DF90090D2
:104980006168FBF709FC80B22168C8601DE01C4823
:104990006168FBF701FC80B22168C86015E0FDF793
:1049A0008DF900906168FBF7F7FB80B22168C86061
:1049B0000BE00120C0036168FBF7EEFB2168C860D3
:1049C00003E000BF0120019000BF00BF0198FEBDC1
:1049D000F369FFEF0038014000100240004400403E
:1049E00000480040004C00400050004000140140CE
:1049F00000180140001C01400024F400F0FF0000FA
:104A000000127A0001466920405C122803D0692018
:104A1000405C322831D15220405A00280DD108681C
:104A20000068802398430B6818600868006840237A
:104A300018430B6818600020704701231B03886827
:104A400098420CD10869002809D1CA6C1088C005A9
:104A5000C00D0B681885C86C801CC86405E0CB6C61
:104A6000581CC86418780B6818855220405A401E9C
:104A700083B2522043520020DEE70220DCE7FFB57C
:104A800081B004460E461D46FCF784FE0746039897
:104A9000002839D12DE0681C00282AD0002D04D030
:104AA000FCF778FEC01BA84223D92068006880214B
:104AB00088432168086020680068202188432168B5
:104AC000086020680068FF21013188432168086080
:104AD00020688068400840002168886001216920C2
:104AE000015500BF00216820015500BF032005B01B
:104AF000F0BD2068C0693040B04201D1012000E023
:104B000000200028C7D037E02CE0681C002829D0FE
:104B1000002D04D0FCF73EFEC01BA84222D920681D
:104B2000006880218843216808602068006820218F
:104B300088432168086020680068FF2101318843AC
:104B4000216808602068806840084000216888600B
:104B500001216920015500BF00216820015500BFD7
:104B60000320C4E72068C0693040B04201D1012071
:104B700000E000200028C8D10020B8E710B50024CC
:104B80000448FEF72BF8002C03D00120000702494F
:104B9000486010BDBC02002000ED00E010B500240C
:104BA0000A48FEF71BF80A48FEF718F80948FEF70E
:104BB00015F80948FEF712F80848FEF70FF8002C20
:104BC00003D0012000070649486010BD2C030020D7
:104BD0009C0300200C0400207C040020EC04002036
:104BE00000ED00E00FB410B504A9074B02AA03982A
:104BF00000F046F8044602A9002000F07BFA2046A7
:104C000010BC08BC04B01847F55000082021020C65
:104C100001D010211046020A01D0104608390209BD
:104C200001D01046091F820801D01046891E420893
:104C300001D0881E7047081A704730B47446641E4D
:104C40002578641CAB4204D3635D5B00E31830BC81
:104C500018471D46F8E7000000487047C4000020D0
:104C600002E008C8121F08C1002AFAD17047704735
:104C7000002001E001C1121F002AFBD17047000093
:104C8000FFB591B00F460546002606E025280AD05C
:104C9000149A139990476D1C761C28780028F5D13A
:104CA000304615B0F0BD002400940121F34A02946F
:104CB00000E004436D1C2B780846203B98401042CE
:104CC000F7D128782A280ED0022128780246303AD7
:104CD000092A15D8009A0A235A43303A80180C43FF
:104CE0006D1C0090F1E701CF0090002805DA01204B
:104CF00040030443009840420090022004436D1C8E
:104D000028782E2815D10420044368786D1C2A28A1
:104D10000AD101CF6D1C02900BE002990A22514387
:104D2000303940186D1C0290287801463039092925
:104D3000F3D928786C2810D006DC4C281AD06828C3
:104D40000ED06A2817D104E0742813D07A2812D123
:104D500010E00120400504430CE00121090501E0B9
:104D6000032109050C436978814203D10120000524
:104D700024186D1C6D1C287803906E281ED00CDC46
:104D8000632831D004DC00288AD0582811D1B2E041
:104D900064287BD069280CD178E073282DD004DCFE
:104DA0006F2870D0702804D1A7E075286CD07828BF
:104DB0006BD0149A13999047761C62E06002400F02
:104DC000022807D003280AD0042838680AD00660D1
:104DD0003F1D56E03868F11706604160F8E7386813
:104DE0000680F5E70670F3E7387869460874002016
:104DF000487404A80390012003E038680390002061
:104E0000C0433F1D61070FD5002101E00199491CF6
:104E1000029A0191914213DA8142F7DB019A0399D8
:104E2000895C0029F2D10BE0002101E00199491CC5
:104E300001918142FADB019A0399895C0029F5D13D
:104E400001990098139A401A00902146149B00F093
:104E50003BF901998019461807E0039803990078F7
:104E6000491C0391149A139990470198401E019090
:104E7000401CF2D12146149B139A009800F014F9BB
:104E800086196D1C09E741E033E034E00A20002177
:104E9000049005916002410F022905D001CFC2178D
:104EA0009446032905D007E0FF1DFF08FF0003CF4C
:104EB00006E000B2C2179446042902D140B2C117DD
:104EC0008C4600226146944506DA0A46002140429B
:104ED00091418C462D2102E0210504D52B216A4603
:104EE0001176012103E0E10701D02021F7E70191CC
:104EF00054E00A200BE0102009E01020049000216B
:104F00000420044308200591029003E008200021BA
:104F1000059104906002410F022905D001CF0022C3
:104F20009446032906D006E0FF1DFF08FF0003CFCB
:104F30008C4603E080B2042900D1C0B20021019167
:104F400021072BD50399702906D0049A1021059BBF
:104F50004A401A4305D00EE040216A4611760121ED
:104F600008E06146014306D030216A461176039974
:104F7000517602210191049A0821059B4A401A4367
:104F80000CD16146014301D1610707D530216A4642
:104F90001176012101910299491E02910399582924
:104FA00004D037A103910FA90F910DE039A1F9E7C2
:104FB0006146059B049AFBF799FB039B8C469B5C1F
:104FC0000F9A521E0F92137061460143F0D10F9851
:104FD00007A9081A20300390600704D501200004B7
:104FE0008443029801E0012002900399884201DD88
:104FF000401A00E00020411802900198091800981A
:10500000401A0090E00306D42146149B139A00989E
:1050100000F05AF886190020049008E006A9085C00
:10502000149A139990470498401C761C0490019997
:105030008842F3DBE0030CD52146149B139A0098B9
:1050400000F042F8861904E0149A30201399904732
:10505000761C0299481E02900029F5DC08E00F98A2
:105060000F990078491C0F91149A13999047761C58
:105070000399481E03900029F1DCFBE60928010092
:1050800030313233343536373839616263646566BE
:105090000000000030313233343536373839414280
:1050A0004344454600000000F8B5044600251E466E
:1050B0001746880404D405E039462020B0476D1C0B
:1050C000641EF9D52846F8BDFFB50446002581B019
:1050D0001E46C80301D5302700E02027880404D5E8
:1050E00005E038460399B0476D1C641EF9D5284683
:1050F00005B0F0BD0A68531C0B60107070470000CB
:1051000008B50446002C02D172B600BFFEE71A486B
:1051100002881A4801682046FFF764FD18480168B4
:105120002046FBF7ABF82046FBF7C1F885B200201C
:10513000C04332232A46214600901248007800F0EE
:10514000E3FC11481149086300BF00BF00BF00BF66
:1051500000BFBFF34F8F00BF00BF00BF0C480D4919
:10516000C86000BF00BF00BFBFF34F8F00BF00BFCC
:1051700000BF00E000BFFDE7520000206C000020EF
:10518000640000205F000020EFBEADDEC07F002085
:105190000400FA0500ED00E000BFEFF305800028F1
:1051A00001D0012070470020FCE70000FBF762FD02
:1051B00006490320FEF7B6FD04490420FEF7B2FDC0
:1051C000FEF734F900F011F800BFFEE70000B4422A
:1051D00070B504462546002D01D0294600E0012186
:1051E000084601F0C2FC002070BD10B501F019FFA7
:1051F000002010BD70B506460C46012C0FD10322CD
:105200000021012000F063FD0546002D05D000239C
:105210001A461946284600F02CFE284670BD00218B
:10522000204601F014F8F9E738B5044600250020BF
:105230000090FFF7B1FF00280FD06946204601F02B
:1052400086F8012801D0FF2038BD009800280DD035
:10525000012000070649486008E000231A46194665
:10526000204600F006FE012800D0FF252846EBE787
:1052700000ED00E0F8B506460C4600200090002E38
:1052800001D18020F8BD0025601C002801D1451EF9
:1052900005E0002C03D02546002D00D10125FFF7A5
:1052A0007BFF002810D06A460021304601F09DF8AF
:1052B000012801D0FF20E5E7009800280ED001204A
:1052C00000070749486009E000232A46194630468E
:1052D00000F0E4FE012801D0FF20D3E70020D1E751
:1052E00000ED00E010B502F075F8012801D000F0E3
:1052F00033FC10BD70B504460D461646002C02D195
:1053000072B600BFFEE70B4802880BA12046FFF7EC
:1053100069FC012240210920C006FCF735FAC820AB
:10532000FFF756FF002240210920C006FCF72CFAA7
:10533000002070BD5200002048692066726F6D2009
:105340006D6F64756C652025640D0A0001460020B0
:1053500000220AE00B78202B05D1012A04D0431C3F
:1053600058B2012200E00022491C0B78002BF1D139
:10537000012A01D1431E58B27047000030B5032303
:105380001B0317484407640F002C05D0C01DC0083C
:10539000C000134C041B1B1B0246124C226000244D
:1053A000104D6C60D0180838C008C0000E4C20604A
:1053B00000240D4D2D686C600B4D2D682C6011463E
:1053C000441A4C60084C24680C60084D4C682C60F2
:1053D000074D4C682C600124E407064D2C6030BD5D
:1053E000800600208000002088000020900000201F
:1053F0008C00002094000020F8B506460D461746A4
:105400000E480068002802D10D480C4908600B487E
:10541000006800682A4641683046FAF73BFF0748B3
:10542000006840680549086008460068002801D106
:10543000002400E001242046F8BD0000A800002060
:105440009800002000BF01F0BFFD0348006801285C
:10545000F9D900F0FDFAF6E7CC00002010B50146BE
:10546000164800E0006803688B42FBD3024643689D
:105470009B188B4204D143684C681B19436001465A
:105480000A464B689B180468A34211D10C4C036870
:105490002468A34208D04B68046864681B194B60F9
:1054A00003681B680B6005E0054B1B680B6001E09F
:1054B00003680B60884200D0016010BD80000020AE
:1054C000880000200B4909680968002901D10121E1
:1054D00000E00021002904D00021C943064A1160E0
:1054E00006E004490968C968C868034A4168116050
:1054F0007047000080010020E8010020F8B5044654
:105500000F46094D002C02D172B600BFFEE72946B6
:105510002046FAF7E0FE2846FAF7C9FE061930469B
:1055200002F03EF80020F8BDA07A000810B57D21F9
:10553000C90005480068FAF72FFE401E034948617C
:105540000720086110BD00003800002000E000E0E6
:1055500007480068401C002801D1012000E000201D
:10556000002802D172B600BFFEE772B600BFFEE7A8
:105570007C000020F8B504460F46094D002C02D1EE
:1055800072B600BFFEE729462046FAF7A4FE284679
:10559000FAF78DFE0619304601F0A8FF0020F8BD8D
:1055A000F47A00080EB50024611E012000F030F9E5
:1055B0004448067800200290FBF7B0FB0190424877
:1055C0000068FAF774FE87B232233A463E48016813
:1055D000304600F07DFA00BF0020C0433223012294
:1055E00002A90090304600F09FF83223012202A960
:1055F000304600F06DFA6846007A0D283ED13348F7
:105600000068FAF754FE87B232233A462F48016801
:10561000304600F05DFA002C03D12D492D48FAF7F1
:105620005AFE00BF012292022A480199FBF77AFB39
:1056300005460198FAF73BFE87B20020C0433223AB
:105640003A4600903046019900F05EFA002DE9D10B
:1056500020491F48FAF73FFE002432211D48FAF77F
:1056600002FE1D480068FAF722FE87B232233A464E
:1056700019480168304600F02BFA20E06846007AAD
:105680000A281CD06846007A082807D1002C16DDAD
:10569000601E44B200200F49085510E06846007AA9
:1056A00020280CDB6846007A7E2808DC322C06DADB
:1056B0006846007A40B207490855601C44B200F0C1
:1056C000C7F989E75F000020B4000020B80000207F
:1056D000C03A00208E3A0020BC00002070B505467C
:1056E0000E4631462846FAF7F6FD2846FAF7DFFD62
:1056F000044602E020202855641C0F2CFADB002011
:105700002855281970BD000006480068002806D0FA
:105710000449096808465030096D491C0160014878
:1057200000687047C8000020FFB581B004460F46EE
:105730001E460125A1000F4A50583146FFF79AFD39
:10574000002813D109E02046FBF73AFC00903946C7
:105750000A9B039AFDF7A4FC0546002D01D0032DFA
:10576000F1D1A100034A5058FFF75EFD284605B06D
:10577000F0BD000008020020F8B504460E461746AA
:105780000025002C02D172B600BFFEE7FEF7ACFA8E
:1057900005462B4604480288044801682046FFF766
:1057A00021FA0020F8BD000052000020680000200F
:1057B000F8B57D21C90012480068FAF7EDFC461ED5
:1057C00000BF00BF00BF0F488069371A01F055FCC9
:1057D00004460D484068012189060840002803D08E
:1057E000641C08488069371A0A2060430546074848
:1057F00001683846FAF7D0FC45192846F8BD000084
:105800003800002000E000E000ED00E0040000208F
:10581000F8B506460C4600F0F9F821480068806D9E
:1058200000281DD101211E48006840300177002C5E
:1058300016D01B480068001D00F038F8601C0028D6
:1058400006D117480168091D164800F0C2F805E0A6
:10585000154800680719384601F062F900F0F8F8B9
:1058600000F0E2F800F0D2F80D480068856D002DD8
:105870000DD0002E04D0002009490968886506E093
:105880000749096808465830896D491E01600021A2
:10589000034800684030017700F0C6F82846F8BD9C
:1058A000C8000020B4010020CC01002001460A6994
:1058B0004B68886898608B68486858605068884270
:1058C00001D188685060002008611068401E106097
:1058D00010687047F7B5054616460024072701F003
:1058E0003EF91D4901980968884230D300BF7F1EE8
:1058F00014227A43194BD11862015019012201F088
:10590000CEFB0419002FF2D161014819022214497B
:10591000096801F0C4FB0419610148190222114908
:10592000096801F0BCFB04196101481904220E4901
:1059300001F0B5FB04196101481903220B4901F07C
:10594000AEFB0419002E02D0FFF732FF306001F0E9
:1059500059F82046FEBD0000C8010020CC00002000
:1059600080010020840100209C010020B40100205F
:1059700072B600BFFEE772B600BFFEE7014608310F
:1059800041600021C943816001460831C160016165
:1059900000210160704700210161704710B5024687
:1059A0000B685C1C002C01D1106907E01046083020
:1059B00000E04068446824689C42FAD944684C601E
:1059C0004C68A160886041600A611468641C1460BE
:1059D00010BD42684A6093688B609368596091601B
:1059E000086103685B1C03607047000010B5044940
:1059F00004480068FAF7D0FB0349086010BD0000B6
:105A000010270000380000200400002072B605486E
:105A10000068401C03490860BFF34F8FBFF36F8FCE
:105A2000704700007C00002008480068002802D170
:105A300072B600BFFEE705480068401E03490860D3
:105A400008460068002800D162B670477C0000203C
:105A50000120000703494860BFF34F8FBFF36F8FEA
:105A60007047000000ED00E010B50848FBF7C8F9EA
:105A70000748FBF7C5F90748FBF7C2F90648FBF7EB
:105A8000BFF90648FBF7BCF910BD000078780008A4
:105A9000687800088878000898780008A8780008D6
:105AA0001FB50020064A0090029003460192039021
:105AB000FF22013203A1054800F048FE1FBD00008F
:105AC000B000002055415254436D6400A5550008B4
:105AD000FEB504460E4617461D4601200190A10062
