:020000040800F2
:10000000F0770020410100086B0100086D01000835
:1000100000000000000000000000000000000000E0
:10002000000000000000000000000000554600082D
:100030000000000000000000FF00000871470008F9
:1000400075010008750100087501000875010008B8
:1000500075010008750100087501000875010008A8
:100060007501000849120008A9130008E9130008E7
:10007000750100087501000875010008794800083D
:100080007501000875010008750100087501000878
:100090007501000875010008750100087501000868
:1000A000750100087501000875010008F94F000886
:1000B00019500008395000087501000803488546AA
:1000C00000F032FC00480047A35C0008F0770020F5
:1000D000064B19680868203080F30988022080F3F5
:1000E00014883FBCAE4662B600BD0000480D00203B
:1000F000EFF3108072B6704780F310887047EFF30B
:1001000009800E4B1A6820381060F0C044464D46F6
:1001100056465F46F0C008B572B607F045FD62B6B8
:100120000CBC116808681030F0C8A046A946B24659
:10013000BB4680F309882038F0C81847480D0020D6
:100140000D480E49026800608A4203D00C4880477F
:100150000C4800470C480D4901600D480B490160EF
:100160000C4801688D4640680047FEE7FEE7FEE761
:10017000FEE7FEE7FEE70000F07F0020EFBEADDE09
:1001800001480008BD0000081810024001000000EE
:100190000000014000D8FF1F30B50B46014600208B
:1001A0002022012409E00D46D5409D4205D31D467D
:1001B0009540491B2546954040191546521E002D75
:1001C000F1DC30BD10B5202A04DB0846203AD040CF
:1001D000002110BD0B46D340D0402024A21A9140EC
:1001E0000843194610BD00000549064A08685043F7
:1001F000054A801808604008704701490860704748
:10020000400D00206D4EC6413930000003460B43BF
:100210009B0703D009E008C9121F08C0042AFAD2BC
:1002200003E00B780370401C491C521EF9D2704742
:10023000D2B201E00270401C491EFBD2704700227E
:10024000F6E710B513460A4604461946FFF7F0FFD5
:10025000204610BD421E5378521C002BFBD10B7858
:100260001370491C521C002BF9D1704710B504467D
:1002700005E00B780370401C002B00D0491C521E77
:10028000F7D2204610BD421C0178401C0029FBD14A
:10029000801A704710B5002200E0521C835C8C5C11
:1002A000A34201D1002BF8D1D8B2E1B2401A10BD5F
:1002B00030B504460020034600E05B1C934203D2A5
:1002C000E05CCD5C401BF8D030BD03460A7802707C
:1002D000401C491C002AF9D11846704730B5054624
:1002E0000020034600E05B1C934205D2EC5CC85C36
:1002F000201A01D1002CF6D130BD70B5064604F0AD
:10030000F1FF046805460A220021304600F0CCF8CF
:100310002C6070BD70B5064604F0E4FF0468054625
:100320000A220021304600F0BFF82C6070BDC20FD9
:10033000D207400040080BD0C10D0723DB01C918CC
:1003400040020905400A1143C208400711437047A3
:10035000002001467047CB0FDB07490010B5490864
:1003600002460A4307D00A0D07240903E401090BDA
:10037000121B002A01DC002010BDC900440F0C43F1
:10038000C100E018D205801800F0C6F810BD0000CA
:100390000122D207002800DB101A002900DB511AC5
:1003A00081427047F0B51FB40646002082B0054672
:1003B0004024019100901BE0019922460F463046EF
:1003C000FFF700FF049A059B801A994110D310464D
:1003D0001946224600F0BAFA361A8F410197224692
:1003E00001200021009F00F0B1FA38184D41009023
:1003F0002046641E0028DFDC019B00982946324617
:1004000007B0F0BD0FB400B589B00CA900910B99ED
:100410000023CB60204B214A0693079204220192CD
:100420001F4A02921F4A089202466B46002000F0C3
:100430003AFB09B008BC04B0184770B586B0064650
:100440000020C0430190002015460C460091029107
:1004500004903246694604A8FFF7D4FF0346049887
:100460002118002D05D0002801D00A4600E02246C0
:100470002A6000280DD0002B02DD0098884208D0A9
:10048000081B0190009432466946029404A8FFF7C5
:10049000B9FF06B070BD0000FD0C00081D0D00087E
:1004A000FFFFFF7F9D090008F7B5009C0F4600265F
:1004B0002578641C002D05D000F06CFA0068405DC2
:1004C000C007F5D12B2D02D02D2D18D0641E394632
:1004D0002046029A00F034FC002F04D03968A14273
:1004E00001D1009939607105022400290BDA4042DC
:1004F000002803DD04F0F6FE0460A007FEBD012025
:1005000080020643E3E70028F8DA04F0EBFE04601B
:100510000048FEBDFFFFFF7F002904DA401C4900B0
:1005200001D140084000704770B40024050C05D18B
:100530001024000402D1002921D01124050E01D17C
:1005400000020834050F01D10001241D850F01D1DF
:100550008000A41C002801DB4000641C002908D096
:1005600020252E1B0D46F540A14000D00121294336
:10057000084301061B1B000ADB1D02D5002070BCCE
:100580007047DB05181880180029F8DA401C49006C
:10059000F5D170BC4008400070470000F0B5074638
:1005A0000846584087B0C00F049048000E465900D6
:1005B00040084908BC1A884105D2384631461E46D3
:1005C00017460B4602465800400810434CD0300DE9
:1005D000039040055900400D490D0590401A0290C6
:1005E000402872DA18030121000B09050843019025
:1005F00004980092002805D00199524200208841B9
:1006000000920190029840210A1A0199009800F086
:100610009DF905460C466B4607CB00F0A7F9C019BB
:100620007141039A0E0D0023D71756401A467A409F
:10063000164344D0049A002A2DD0029A012A039A24
:1006400015DC1205C01A914101263605001C7141C6
:10065000D20F059ED2070093019202962A462346A6
:1006600000F0CEFB07B0F0BD38463146FAE716057C
:10067000224A0F46B218C01AB74101210905001CD1
:100680004F4100187F41114618187941E20F10437D
:100690006D19644113E0E2076D0815436408C20751
:1006A0001443039A01261205C01A91413605001C15
:1006B0007141CE07400830434908C01851412A46CD
:1006C000234600F090FBCDE7FFE7049801224000AD
:1006D000C117121A00238B4104983146C417381AE7
:1006E000A141EEE730B40124E407634030BC55E794
:1006F00030B40124E407614030BC4FE70000E0FF64
:10070000F0B51FB488B00B990998002448400999A6
:10071000C00F490049080991C0070B990090490092
:1007200049080B9109990898A64608431CD00B99D3
:100730000A98084318D0099801244000420D480047
:10074000410D099824050003000B204309900B98E4
:100750000003000B20430B9050181C494018002246
:1007600001901446104605E0002001460DB0F0BD92
:10077000032801DA034600E003239C46C11A0AAEAF
:100780000AE05F0008ADED5B4F00F75B7D4300279B
:10079000AA187C41491C5B1E6145F2DD410004AB97
:1007A0005A522104120C0A43240C401C0828DFDB97
:1007B000019802900099704601910090059B049A5F
:1007C0000799069800F01CFBD0E700000DFCFFFF26
:1007D000F0B50C465C4085B0E40FE40703944C0090
:1007E00000266408590094464908024602962243AE
:1007F00021D062460A431ED06200570D4A000E0304
:100800002303550D012402462C492405781B1B0B9C
:10081000360B401823432643614600901C46501A6D
:10082000B44103D30098401C009002E09218009855
:100830005B41002803DA0020014605B0F0BD00202E
:10084000012109050746864611E064461D46141B32
:10085000B54106D36546521BB341744607430C436A
:10086000A646CD0740084908284392185B41054633
:100870000D43EAD11046184313D060461946504044
:100880007140084306D06046101AB34106D20122D7
:10089000002306E000220123DB0702E00122D2430D
:1008A0005310009874460105381C6141029C039D59
:1008B0000019694100F097FABFE70000FD0300004E
:1008C0004A0009030123090B1B0519430A4B10B504
:1008D000520D9A4202DA0020014610BD064B343315
:1008E0009A4203DC9A1AFFF76DFC10BD034BD21835
:1008F00000F02CF810BD0000FF030000CDFBFFFF4F
:1009000010B5002904DB0124E40740428C41214654
:10091000002B04DB1C460123DB075242A341994212
:1009200000D1904210BD0000064C0125064E05E0A6
:10093000E36807CC2B430C3C98471034B442F7D300
:10094000FFF7C0FBC4920008E492000810B5202A0B
:1009500004DB0146203A9140002010BD9140202345
:100960009C1A0346E3401943904010BD10B5202A5D
:1009700006DBCB170846203A1041C1170B4306E0AF
:100980000B461341D0402024A21A91400843194637
:1009900010BD0000004870476888000810B5044684
:1009A000FFF7F8FF0068005DC007C00F10BD000032
:1009B000FFB5087885B01546FF2805D0491C2D28BD
:1009C00004D00022002407E000240BE00122F9E714
:1009D0000A235C430419491C0878FF28F8D1002A2F
:1009E00000D06442002001902A7801462D2A01D0CF
:1009F0002B2A04D16D1C2D2A0DD000220192002635
:100A00002F78FF2F09D00A2200236D1C00F04AFA2C
:100A100038187141F4E70122F0E7089AA21803920E
:100A200002460A430DD00024B24AB14D2646009238
:100A300000F084FA049003980291002807DA4742F4
:100A40001AE0002105980A4606C009B0F0BD074625
:100A500012E0F80707D022462B4630460099FFF7F0
:100A60004FFE0646009122462B4610461946FFF7D8
:100A700047FE04460D467F10002FEAD10398009BE5
:100A8000002802990498324602DAFFF7A1FE01E03D
:100A9000FFF736FE019A002A02D00122D207514008
:100AA000059A03C2D1E7FFB591B000200990002557
:100AB000ED432E209E685C681F460190B9696D1C4D
:100AC000129888470090396A88470028F6D1009824
:100AD000401C0AD00D20C0018443002E12DD009876
:100AE0002B2809D02D280DD103E00020C04315B0DC
:100AF000F0BD012080020443B9696D1C129888473B
:100B0000761E009003A9600501D52D2000E02B2062
:100B10006A461073491C0CA80F9102900AE0B9694B
:100B20006D1C1298884700900120400204431398DE
:100B3000761E0560002E02DD00983028EFD0019966
:100B40000098884246D18020044308E00998401E5E
:100B500009900120400204431399681C0860B96998
:100B60006D1C761E1298884700903028EED031E038
:100B70000199884205D1200603D480200443761EC3
:100B80001EE0009804F07AFC002826D001204002E4
:100B9000044307A90F980331761E88420BD20098B0
:100BA0000F99303808700F98401C0F90200607D519
:100BB0000998401E03E0200602D40998401C0990C1
:100BC000A00502D51399681C0860B9696D1C1298BC
:100BD00088470090002ECBDC59E0002E57DD0098AE
:100BE000652801D0452852D1A00550D50320000228
:100BF0008443B9696D1C761E129888470090002EB8
:100C00000CDD2B2804D02D2808D1FF20013004430F
:100C1000B9696D1C12988847761E0090E00501D5D1
:100C20002D2100E02B21029801700298401C0290B7
:100C3000019025E00120400204430EA902980131F1
:100C4000761E88420ED20098029930380006000EB7
:100C5000087003D10299019881420AD90298401C78
:100C6000029006E0E00501D5234801E02248404219
:100C70000990B9696D1C1298884700901398056017
:100C8000002E04DD009804F0F9FB0028D2D1F969A8
:100C9000129888470F99FF200870029903AA0870DC
:100CA00000200A900B900CA90AA8099BFFF780FE70
:100CB000A00502D40120C04319E72420044209D032
:100CC000E00713D138680B9A0A99031D3B6000684E
:100CD00006C00BE00B990A98FFF73DFB0146E007C1
:100CE00004D13868021D3A60006801602846FEE6BB
:100CF000000024400000F03FF1D8FFFF4268002AC6
:100D000008D001680B78491C002B03D0521E06C086
:100D1000184670470121C160881E70474268002A4A
:100D20000BD0C3680168002B07D183688B4204D0C5
:100D3000491E521C06C0002070470020C043704767
:100D4000F7B582B0029C00272078641C15460197F5
:100D5000302802D0002D15D015E020780127641C22
:100D6000782804D0582802D0002D09D00BE0002D9F
:100D700001D0102D07D1002710252078641C02E037
:100D8000082500E00A250026009610E000990127BA
:100D900069430818020C294680B2714300908E18EE
:100DA0003804864201D3012001902078641C294632
:100DB00000F0B5F80028E9DA0398002805D0002FE4
:100DC00001D0641E00E0029C04600198002806D057
:100DD00004F088FA02210160C81E05B0F0BD009938
:100DE00030040843F9E710B5002B08DA0024401C52
:100DF000614192185B411A4301D14008400010BD87
:100E0000F0B51FB482B005460C0003D0084604F0CC
:100E100043FA02E004F040FA2030024600902146F6
:100E20002846FFF793FD049B059A04460F46184396
:100E30001143084314D0184610431BD0009840219A
:100E40000A1A18460599FFF7BDF905460E46009A9D
:100E500005990498FFF77AFD084305D0012004E0C6
:100E60002046394607B0F0BD0020C11705430E43A8
:100E70002C43374300990E986305401A7905E40A1C
:100E800000220C43FD0A0A3002D500200146E9E7A2
:100E90000105101969410C9C0D9D00196941FFF76E
:100EA000A2FFDFE7F0B51FB486B0002000900190EC
:100EB00002900698069980B204900798090C0204E3
:100EC0000014114307900027089D099806913E469B
:100ED0003C4603900398A9B20204000C03900498C6
:100EE0002D0C1543484300212246FFF72FFDC7195B
:100EF000714110340E46402CECDB3846029AFFF765
:100F000025FD009A019B801800905941029801919B
:100F1000103002904028CCDB00980BB0F0BD3A288E
:100F200000D23038202302469A43412A01D310468A
:100F30003738884201D30020C04370470EB5054AB8
:100F400002920022009213460192FFF759FF03B06C
:100F500000BD00003304000070B58D180478401CFB
:100F6000A207920F01D10278401C231106D1037809
:100F7000401C03E006780E70401C491C521EF9D13B
:100F8000002B15D002780C268A1A3440401C0C2CF9
:100F900003D0A401121B9B1C08E004782402121B3E
:100FA000401CF8E714780C70491C521C5B1EF9D5E4
:100FB000A942D3D3002070BD70B504460025206837
:100FC0008068042108408008002829D020688068B3
:100FD000084000280BD020688068022108400028C3
:100FE00005D120688068102108432168886001F0DD
:100FF00063FC05460EE001F05FFC401B022809D9A6
:10100000606C102108436064A06C01210843A06457
:10101000012070BD20688068042108400028EAD1C2
:101020000020F6E770B50446002520688068800738
:10103000800F01280ED120680068C007C00F00286B
:1010400006D12068C0680121C9030840884201D147
:10105000012000E00020002837D0206880680521AA
:101060000840012800D100E0002000280AD000BF7D
:101070002068806802210843216888600320216875
:10108000086009E0606C102108436064A06C0121D5
:101090000843A064012070BD01F00EFC05460EE07F
:1010A00001F00AFC401B022809D9606C102108439A
:1010B0006064A06C01210843A0640120EBE7206874
:1010C0008068C007C00F0028EAD10020E3E70000D5
:1010D00038B504460025002000902068806880070D
:1010E000800F01280ED120680068C007C00F0028BB
:1010F00006D12068C0680121C9030840884201D197
:10110000012000E00020002843D1206880682249A7
:101110000840002801D1012000E00020002809D16A
:10112000606C102108436064A06C01210843A06436
:10113000012038BD2068806801210843216888604B
:10114000164917480068FFF727F8009002E000985A
:10115000401E009000980028F9D101F0ADFB054633
:101160000EE001F0A9FB401B022809D9606C102198
:1011700008436064A06C01210843A0640120D8E703
:1011800020680068C007C00F01214840484000287F
:10119000E7D00020CDE700001700008040420F009C
:1011A0009004002010B501F095FB03F0E7FA03F07E
:1011B00083F803F01FF903F0C3F803F0F1F802F02D
:1011C00079FF02F04FFF012240210920C00601F003
:1011D0006DFBFF20F53001F05AFA00224021092072
:1011E000C00601F063FB642001F051FA01224021A6
:1011F0000920C00601F05AFB642001F048FA0022E1
:1012000040210920C00601F051FB642001F03FFAA3
:10121000012240210920C00601F048FB642001F0B2
:1012200036FA002240210920C00601F03FFB03A04E
:10123000FFF763F80446FEF7E0FF10BD31363A339E
:10124000303A35330000000010B54C4800F02AFD5C
:10125000062000F04FFA0068808C494909788842DE
:1012600008D0062000F046FA0068808C45490978CD
:10127000884211D1002044490870062000F03AFA53
:101280000068808C3F490978884202D101203F499B
:10129000087003F0E1F970E0062000F02BFA006816
:1012A000808C3B490978884208D0062000F022FA59
:1012B0000068808C37490978884211D10120324971
:1012C0000870062000F016FA0068808C3149097811
:1012D000884202D101202D49087003F0BDF94CE08D
:1012E000062000F007FA0068808C2B4909788842B4
:1012F00008D0062000F0FEF90068808C27490978A4
:10130000884217D10220204908700122402109207B
:10131000C00601F0CBFA062000F0ECF90068808CE2
:101320001E490978884202D101201849087003F04B
:1013300093F922E0062000F0DDF90068808C18495E
:101340000978884208D0062000F0D4F90068808C23
:1013500014490978884210D103200B4908700620EF
:1013600000F0C8F90068808C0E490978884202D1E3
:1013700001200649087003F06FF910BD34120020F7
:101380003B0400203F0400203804002039040020E2
:101390003C040020400400203D04002041040020C3
:1013A0003E0400204204002010B50B4800680121D3
:1013B00049020840400A002803D0084800F072FCA7
:1013C00009E007480068202108404009002802D0B1
:1013D000044800F067FC10BD000002406C120020C1
:1013E000000402401413002010B50C4800680121CD
:1013F00049040840400C002803D0094800F052FC82
:101400000AE006480068012149050840400D00280F
:1014100002D0044800F046FC10BD0000000002406D
:10142000A4120020DC12002010B504686360446838
:10143000102C04D10468A2600468E16003E0046831
:10144000A1600468E26010BD10B50A480A4908604E
:10145000002048600021084881608021C16000218F
:1014600001614161202181610902C16101F0A8F897
:1014700010BD000058000240A412002010B50A4818
:101480000A490860002048600021084881608021E6
:10149000C160002101614161202181610902C161B6
:1014A00001F08EF810BD00006C000240DC1200203C
:1014B00010B50A480A490860002048600021084821
:1014C00081608021C1600021016141612021816131
:1014D0000902C16101F074F810BD00001C04024053
:1014E00014130020004870478C43002030B5034699
:1014F000002400200025156027E000E05B1C1D781B
:10150000002D02D01D78202DF8D100E05B1C1D7845
:10151000002D02D01D78202DF8D01D78002D13D07D
:10152000641C8C4211D1184603E015686D1C1560CF
:101530005B1C1D78002D02D01D78202DF5D115687B
:10154000002D00D1002002E001E08C42D5D300BF85
:1015500030BD0000F7B50546012631480068002877
:1015600035D130482E4908602CE02D4800680068CD
:1015700007683846FEF787FE0446285D202802D01B
:10158000285D002819D1224639462846FEF7A6FED6
:10159000002812D12248006800680C214156002919
:1015A0000ADB284604F044FC1D49096809680C223E
:1015B0008A56904200D0002608E01948006840682A
:1015C00017490860164800680028CED100BF1448AB
:1015D000006800280AD0002E08D11349029A019809
:1015E000FEF744FE00200E49086017E00C48006832
:1015F00000280DD00A48006800682A4683680299CE
:10160000019898470646002E08D10549086005E074
:101610000649029A0198FEF729FE00263046FEBDD3
:10162000200B0020140B0020FC8E0008548F0008B3
:1016300070B505460026002D02D172B600BFFEE748
:10164000082006F09FFF0446002C02D172B600BFAE
:10165000FEE7002C0CD005F037F925600020606013
:101660000448006844600348046005F03BF9012623
:10167000304670BD1C0B00200021084603F062F8C4
:1016800000BF012004F015FBFBE700000146134AF0
:101690000868904201D101207047114A08689042C1
:1016A00001D10220F8E70F4A0868904201D10320D7
:1016B000F2E70D4A0868904201D10420ECE70B4A9A
:1016C0000868904201D10520E6E7094A086890427F
:1016D00001D10620E0E70020DEE7000000440040E2
:1016E0000048004000180140001C0140004C004030
:1016F0000038014000B501460B0003F0E4FD07117E
:101700000507090B0D0F1100064800BD0648FCE750
:101710000648FAE70648F8E70648F6E70648F4E719
:101720000020F2E7B80F0020281000200811002048
:101730007811002098100020480F0020F8B50446CA
:101740000D4600260020009001210907A06B884269
:1017500015D0A06B012812D0A06B02280FD0A06B6F
:1017600003280CD0A06B042809D0A06B052806D054
:10177000A06B062803D0A06B072800D000BF00BFD5
:101780004020005D012801D10220F8BD0121402048
:10179000015500BF206880680421084080080028A7
:1017A0007ED14D496868884264D02068806A2A7872
:1017B0000121914008432168886201210907A06B3B
:1017C000884229D0A06B012826D0A06B022823D004
:1017D000A06B032820D0A06B04281DD0A06B052887
:1017E0001AD0A06B062817D0A06B072814D0A868C1
:1017F000216849694907490F88420DD0206840692E
:10180000C008C0002168486120684069297A4907FA
:10181000490F0843216848612868102805D02868C6
:10182000112802D0286812284FD12C4880682968D6
:10183000102901D1C90407E02968112902D1012129
:10184000890501E0012109060843244988602868C8
:1018500010283AD1224923480068FEF79DFC0A214E
:101860004843009002E00098401E00900098002835
:10187000F9D12AE02068816A2A78012090408143CA
:10188000206881622868102805D02868112802D0B5
:101890002868122819D1114880682968102900E0A9
:1018A0000EE001D1C90407E02968112902D1012104
:1018B000890501E00121090688430849886004E0A0
:1018C000606C202108436064012600BF0021402095
:1018D000015500BF304658E70110000000270140C5
:1018E00040420F0090040020014608200A68106062
:1018F0000868006C7047000070B50446002600259B
:10190000002C01D1012070BD606C002806D1A064BC
:10191000002140200155204600F0C6F8606C1021DF
:10192000084000287ED1002EFCD120688068042168
:10193000084080080028F5D1606C890188430221A5
:1019400008436064206880688007800F01280DD1FB
:1019500020680068C007C00F002805D12068C06853
:1019600089030840884201D1012000E000200028BE
:101970000FD12068C06818218843A16808432168F6
:10198000C860206800698000800861680843216899
:1019900008612068C068424908402168C860A069A1
:1019A0008003E169C9030843216A49030843616B65
:1019B000012902D00121090300E000210843E16868
:1019C00008432169022901D1042100E000210843D4
:1019D000216B490008430543606A012805D1206A4C
:1019E000002802D1012000040543FF21C231A06A72
:1019F000884203D0E16AA06A084305432068C068B2
:101A000028432168C86001210907A06B884216D0CD
:101A1000A06B012813D0A06B022810D0A06B032864
:101A20000DD000E034E0A06B042808D0A06B05289E
:101A300005D0A06B062802D0A06B07280DD1206826
:101A40004069C008C0002168486120684069218F52
:101A50004907490F0843216848612068C068114957
:101A60000840A84208D10020A064606C022188438D
:101A700001210843606410E0606C0221884310215A
:101A800008436064A06C01210843A064012604E0BF
:101A9000606C1021084360640126304633E7000083
:101AA0001902FEFFE7FF3F8310B586B004460F49D9
:101AB0002068884217D100BF0D4880694915084346
:101AC0000B4988610846806949150840009000BFAD
:101AD00000BF01200190032002900020039001A983
:101AE000044800F0E1FD06B010BD000000240140F4
:101AF0000010024000040048F8B504460D46606935
:101B0000082801D1082711E02068C068C007C00F6D
:101B100000280AD0606C20210843606400BF0021C7
:101B20004020015500BF0120F8BD0C2700F0C4FE85
:101B3000064614E0681C002811D0002D04D000F0E7
:101B4000BBFE801BA8420AD9606C04210843606474
:101B500000BF00214020015500BF0320E4E72068BA
:101B6000006838400028E5D0606C01214902084334
:101B700060642068C068032189020840002825D1DC
:101B8000206A002822D1206800680821084008281F
:101B90001CD12068806804210840800800280DD1ED
:101BA000206840680C21884321684860606CFF21F0
:101BB0000131884301210843606407E0606C202103
:101BC00008436064A06C01210843A064A069002858
:101BD00002D10C20216808600020A5E770B50446FA
:101BE00000252068806804210840800800282BD147
:101BF00000BF4020005D012801D1022070BD0121FD
:101C00004020015500BFE069012803D02046FFF7BE
:101C10005FFA0546002D18D1606C0D490840FF2180
:101C20000131084360640020A06400BF002140200F
:101C3000015500BF1C2021680860206880680421CD
:101C400008432168886000E002252846D6E70000A6
:101C5000FEF1FFFF70B50446002500BF4020005D87
:101C6000012801D1022070BD01214020015500BF93
:101C70002046FFF7A1F90546002D0CD12046FFF7BD
:101C8000D1F90546002D06D1606CFF210131884352
:101C900001210843606400BF00214020015500BFBE
:101CA0002846E0E710B50446F8492068884255D92F
:101CB000F7480068F54A783A2168914201D1082135
:101CC0004AE0F24A643A2168914201D1802143E01E
:101CD000EE4A503A2168914201D1C9143CE0EB4AE6
:101CE0003C3A2168914202D10121C90334E0E74A1C
:101CF000283A2168914202D10121C9042CE0E34A2B
:101D0000143A2168914202D10121C90524E0DF4A39
:101D10002168914201D109051EE0DD4A083221689F
:101D2000914201D1082117E0D94A1C322168914221
:101D300001D1802110E0D64A30322168914201D190
:101D4000C91409E0D24A44322168914202D10121EA
:101D5000C90301E00121C904084055E0CB4880389F
:101D60000068CA4A783A2168914201D108214AE0C4
:101D7000C64A643A2168914201D1802143E0C34AB6
:101D8000503A2168914201D1C9143CE0BF4A3C3A23
:101D90002168914202D10121C90334E0BB4A283AAB
:101DA0002168914202D10121C9042CE0B74A143ABA
:101DB0002168914202D10121C90524E0B34A21687A
:101DC000914201D109051EE0B14A083221689142D1
:101DD00001D1082117E0AE4A1C322168914201D19D
:101DE000802110E0AA4A30322168914201D1C91401
:101DF00009E0A74A44322168914202D10121C90376
:101E000001E00121C9040840002872D02068006860
:101E100008210840C0080028F7D0206800688843DF
:101E20002168086099492068884254D997497839CF
:101E30002068884201D108204AE09449643920682A
:101E4000884201D1802043E090495039206888427F
:101E500001D1C0143CE08D493C392068884202D150
:101E60000120C00334E0894928392068884202D122
:101E70000120C0042CE0854914392068884202D131
:101E80000120C00524E081492068884201D1000575
:101E90001EE07F4908312068884201D1082017E000
:101EA0007B491C312068884201D1802010E07849AC
:101EB00030312068884201D1C01409E074494431AE
:101EC0002068884202D10120C00301E00120C00443
:101ED0006F49486055E06D4978392068884201D1E2
:101EE00008204BE0694964392068884202D180208B
:101EF00044E058E0654950392068884201D1C01457
:101F00003CE062493C392068884202D10120C0038C
:101F100034E05E4928392068884202D10120C0049B
:101F20002CE05A4914392068884202D10120C005AA
:101F300024E056492068884201D100051EE054493A
:101F400008312068884201D1082017E050491C312F
:101F50002068884201D1802010E04D49303120684E
:101F6000884201D1C01409E04949443120688842BF
:101F700002D10120C00301E00120C004434980399F
:101F80004860606B012108436063042121200155F2
:101F900000BF00212020015500BF206B002802D087
:101FA0002046216B884739492068884255D93848EE
:101FB0000068364A783A2168914201D104214AE00A
:101FC000324A643A2168914201D1402143E02F4ACC
:101FD000503A2168914201D109153CE02B4A3C3A24
:101FE0002168914202D10121890334E0274A283A2D
:101FF0002168914202D1012189042CE0234A143A3C
:102000002168914202D10121890524E01F4A2168FB
:10201000914201D1C9041EE01D4A08322168914253
:1020200001D1042117E01A4A1C322168914201D1E2
:10203000402110E0164A30322168914201D1091541
:1020400009E0134A44322168914202D101218903F7
:1020500001E001218904084059E00C4880380068FB
:102060000A4A783A2168914201D104214EE0074A98
:10207000643A2168914201D1402147E0034A503A35
:102080002168914206D1091540E00000800002401D
:1020900000040240F74A2168914202D101218903DC
:1020A00034E0F44A14322168914202D101218904BA
:1020B0002CE0F04A28322168914202D101218905A1
:1020C00024E0EC4A3C322168914201D1C9041DE070
:1020D000E94A2168914201D1042117E0E64A14320D
:1020E0002168914201D1402110E0E34A2832216861
:1020F000914201D1091509E0DF4A3C322168914241
:1021000002D10121890301E001218904084000284E
:1021100073D02068006804210840800800286CD033
:102120002068006820210840002805D12068006848
:102130000421884321680860CE493C3120688842E8
:1021400054D9CC493C392068884201D1042049E067
:10215000C84928392068884201D1402042E0C54959
:1021600014392068884201D100153BE0C14920683C
:10217000884202D10120800334E0BE491431206836
:10218000884202D1012080042CE0BA49283120681D
:10219000884202D10120800524E0B6493C31206804
:1021A000884201D1C0041DE0B3492068884201D1B2
:1021B000042017E0B04914312068884201D1402042
:1021C00010E0AD4928312068884201D1001509E0AE
:1021D000A9493C312068884202D10120800301E0F6
:1021E00001208004A4490839486054E0A1493C39E1
:1021F0002068884202D104204AE055E09D492839F0
:102200002068884201D1402042E09A491439206870
:10221000884201D100153BE096492068884202D1EE
:102220000120800334E0934914312068884202D1B0
:10223000012080042CE08F4928312068884202D197
:102240000120800524E08B493C312068884201D17F
:10225000C0041DE088492068884201D1042017E0AD
:10226000854914312068884201D1402010E082491C
:1022700028312068884201D1001509E07E493C31AF
:102280002068884202D10120800301E001208004FF
:10229000784944394860112121200155E06A00281D
:1022A00002D02046E16A884772493C312068884262
:1022B00055D97148083800686E4A3C3A2168914205
:1022C00001D1022149E06B4A283A2168914201D1AB
:1022D000202142E0674A143A2168914201D1491510
:1022E0003BE0644A2168914202D10121490334E074
:1022F000604A14322168914202D1012149042CE044
:102300005C4A28322168914202D10121490524E02A
:10231000584A3C322168914201D189041DE0564A55
:102320002168914201D1022117E0534A14322168F9
:10233000914201D1202110E04F4A28322168914278
:1023400001D1491509E04C4A3C322168914202D141
:102350000121490301E001214904084054E04548B6
:1023600044380068434A3C3A2168914201D1022135
:1023700049E0404A283A2168914201D1202142E0B7
:102380003C4A143A2168914201D149153BE0394A4F
:102390002168914202D10121490334E0354A1432C7
:1023A0002168914202D1012149042CE0314A2832AE
:1023B0002168914202D10121490524E02D4A3C3295
:1023C0002168914201D189041DE02B4A2168914284
:1023D00001D1022117E0284A14322168914201D12B
:1023E000202110E0244A28322168914201D1491568
:1023F00009E0214A3C322168914202D1012149037E
:1024000001E001214904084000286FD020680068DD
:10241000022108404008002868D020680068202178
:102420000840002805D120680068022188432168FF
:10243000086010493C312068884258D90D493C3920
:102440002068884201D102204CE00A4928392068DE
:10245000884201D1202045E006491439206888428D
:1024600001D140153EE003492068884206D1012091
:10247000400337E044000240080402404E4920680F
:10248000884202D1012040042CE04B4914312068DD
:10249000884202D10120400524E0474928312068C4
:1024A000884201D180041DE044492068884201D15E
:1024B000022017E0414914312068884201D12020D0
:1024C00010E03E4928312068884201D1401509E0DA
:1024D0003A493C312068884202D10120400301E0A2
:1024E0000120400435490839486054E063E032492E
:1024F00050392068884201D1022049E02E493C39F8
:102500002068884201D1202042E02B4928392068E8
:10251000884201D140153BE02749143920688842A0
:1025200002D10120400333E023492068884202D1D0
:10253000012040042CE0204914312068884202D157
:102540000120400524E01C4928312068884201D13F
:1025500080041DE019492068884201D1022017E05B
:10256000164914312068884201D1202010E0134917
:1025700028312068884201D1401509E00F493C31DB
:102580002068884202D10120400301E0012040047C
:10259000094958394860606B606301212120015569
:1025A00000BF00212020015500BFA06A002802D0F2
:1025B0002046A16A884710BD580002400804024026
:1025C00001460022002901D1012070472120405CF2
:1025D000002802D100232020435402232120435409
:1025E000086802680C4802408B6848681843CB684A
:1025F00018430B6918434B6918438B691843CB691F
:102600001843024308680260002048630123212028
:1026100043540020D9E700000FC0FFFFF8B504467F
:102620000D4616461F4600BF2020005D012801D13F
:102630000220F8BD01212020015500BF02212120E8
:1026400001552068006840084000216808603B464A
:10265000324629462046FEF7E7FE20680068022140
:102660000843216808602068006804210843216845
:102670000860206800680821084321680860206815
:10268000006801210843216808600020D1E731B5C6
:10269000002400F011F9044600BF00F00DF9001B02
:1026A00000998842F9D338BD78B50346002200244A
:1026B0000020E3E0012696400D6835402C46002CB2
:1026C0007ED04D68022D02D04D68122D15D1D5084F
:1026D000AE001D462035A8595507EE0E0F25B54012
:1026E0000646AE4330465607F60E0D69B540284300
:1026F000D508AD001E4620367051186856000325D7
:10270000B5400646AE4330460D79AD07AD0F5600D5
:10271000B540284318604D68012D08D04D68022D42
:1027200005D04D68112D02D04D68122D18D1986832
:1027300056000325B5400646AE4330465600CD68E8
:10274000B540284398605868012595400646AE4339
:10275000304610264D6835402D0995402843586075
:10276000D86856000325B5400646AE4330465600AD
:102770008D68B5402843D860012636074D6835403E
:10278000B5427AD100BF404DAD69012635433E4E7A
:10279000B5613546AD69ED07ED0F009500BF00BF8F
:1027A0003A4D9608B600A85995072E0F0F25B5404B
:1027B0000646AE4330460925ED06AB4203D100E0A4
:1027C0005BE0002514E0324DAB4201D101250FE062
:1027D000304DAB4201D102250AE02F4DAB4201D171
:1027E000032505E02D4DAB4201D1042500E0052570
:1027F0009607360FB5402843244D9608B600A851D9
:10280000274D28680546A5432846012636044D680D
:102810003540B54202D1054625432846204D286063
:1028200068680546A5432846012676044D6835406C
:10283000B54202D1054625432846194D6860A8686F
:102840000546A5432846012636054D683540B54264
:1028500002D1054625432846114DA860E868054683
:10286000A5432846012676054D683540B54202D17C
:102870000546254328460A4DE860521C0D68D540A0
:10288000002D00D016E778BD00100240080001407E
:102890000004004800080048000C004800100048F0
:1028A0000004014042694A4042617047002A01D059
:1028B000816100E081627047014800687047000054
:1028C000A404002002480068401C014908607047C9
:1028D000A404002010B506480068102108430449EC
:1028E0000860002000F006F800F017F8002010BD86
:1028F0000020024070B5044600F04AFA06467D21E9
:10290000C900FDF749FC054600F010FE00222146F3
:10291000501E00F00FF8002070BD704700BFC206C7
:10292000D20E01219140024A116000BF70470000A1
:1029300000E100E070B504460D46164629462046E3
:1029400001F01EFE70BD0000F8B50446002500260B
:102950000121090420680840884266D15648006A6F
:1029600003210902084003221202616811408842D3
:102970005BD000BF5048C0690121090708434E4998
:10298000C8610846C06909040840009000BF00BF44
:102990004A4800680915084348490860FFF78CFF5A
:1029A000054606E0FFF788FF401B642801D9032095
:1029B000F8BD42480068FF21013108400028F1D0ED
:1029C0003D48006A03210902884306463A48006AE6
:1029D000012109040843384908620846006A0121B8
:1029E00009048843344908620846066202203040E0
:1029F000002811D0FFF760FF054607E0FFF75CFFF6
:102A0000401B2F49884201D90320D1E72A48006A98
:102A1000022108400028F1D02748006A032109025A
:102A2000884361680843244908622078C007C00FC2
:102A3000002807D02048006B80088000A168084368
:102A40001D490863022120680840022808D11A485D
:102A5000006B032109048843E168084316490863B1
:102A60000121890420680840884208D11248006B7F
:102A7000032189048843216908430F490863202101
:102A800020680840202807D10B48006B102188439C
:102A900061690843084908630121890220680840E8
:102AA000884207D10448006B40218843A16908434C
:102AB0000149086300207BE70010024000700040DD
:102AC0008813000070B504460E460025AD48006826
:102AD000C007C00FB0426ED2AA480068400840004C
:102AE0003043A849086008460068C007C00FB042DC
:102AF00001D0012070BD022120680840022807D1C2
:102B0000A1484068F0218843A16808439E49486075
:102B10002078C007C00F002848D06068012808D17D
:102B200099480068012149040840002821D101206A
:102B3000E0E76068022808D193480068012149064F
:102B40000840002815D10120D4E76068032808D187
:102B50008D48406B012109040840002809D101205B
:102B6000C8E78948006802210840002801D10120F7
:102B7000C0E7854840688008800061680843824952
:102B80004860FFF799FE0546606801280FD107E00D
:102B9000FFF792FE401B7D49884201D90320A9E737
:102BA000794840680C2108400428F1D1D6E06068DB
:102BB000022810D108E031E0FFF77EFE401B734988
:102BC000884201D9032095E76F4840680C210840EE
:102BD0000828F1D1C2E0606803280FD107E0FFF7B1
:102BE0006BFE401B6949884201D9032082E7664891
:102BF00040680C2108400C28F1D1AFE007E0FFF756
:102C00005BFE401B6149884201D9032072E75E48A0
:102C100040680C2108400028F1D19FE00221206883
:102C20000840022807D158484068F0218843A1682D
:102C30000843554948602078C007C00F00287ED05F
:102C40006068012808D15048006801214904084003
:102C5000002821D101204DE76068022808D14A48A8
:102C60000068012149060840002815D1012041E7EC
:102C70006068032808D14448406B012109040840DA
:102C8000002809D1012035E73F48006802210840AB
:102C9000002801D101202DE73B48406880088000D2
:102CA0006168084338494860FFF706FE05466068DA
:102CB00001280FD107E0FFF7FFFD401B3349884291
:102CC00001D9032016E7304840680C210840042849
:102CD000F1D134E0606802280FD107E0FFF7ECFD86
:102CE000401B2A49884201D9032003E7264840684F
:102CF0000C2108400828F1D121E0606803280FD199
:102D000007E0FFF7D9FD401B2049884201D9032085
:102D1000F0E61D4840680C2108400C28F1D10EE077
:102D200007E0FFF7C9FD401B1849884201D903207D
:102D3000E0E6154840680C2108400028F1D1114810
:102D400000684008400030430E49086008460068AB
:102D5000C007C00FB04201D00120CBE6042120689B
:102D60000840042808D10848406807210902884320
:102D7000E1680843044948600020FFF7BBFD0020DC
:102D8000B8E6000000200240001002408813000056
:102D900010B500F025F806494968F02211400909EC
:102DA000044A515CC840044908600846006810BDE8
:102DB00000100240308700089004002010B5FFF793
:102DC000E7FF05494968072212021140090A034A30
:102DD000515CC84010BD0000001002403087000860
:102DE000F0B589B02FA001460EC9C06805AC0EC46D
:102DF000089030A001460EC9C06801AC0EC4049012
:102E00000024002600270025002000902D4844685B
:102E10000C20204000283DD0042804D0082805D0EC
:102E20000C2836D132E02848009036E00F2080048C
:102E30002040800C05A90D5C2248C06A0007000FE5
:102E400001A90E5C0320C00320400121090488422F
:102E500006D131461C48FDF79FF96843074613E049
:102E60000320C00320400321C903884206D1314614
:102E70001648FDF791F96843074605E031461248C8
:102E8000FDF78AF968430746009706E00F4800906F
:102E900003E000BF0C48009000BF00BF009809B0DD
:102EA000F0BD000002030405060708090A0B0C0D1B
:102EB0000E0F10100102030405060708090A0B0C87
:102EC0000D0E0F100010024000127A00006CDC02A0
:102ED00038B5044600252078C007C00F00286FD001
:102EE000FE4840680C21084004280CD0FB4840688C
:102EF0000840082813D1F9484068490308400121D7
:102F0000090488420BD1F5480068012149040840B2
:102F10000028E4D06068002852D1012038BD00BFED
:102F2000EE480068012109048843EC49086008461E
:102F30000068012189048843E849086000BFFFF761
:102F4000BBFC054606E0FFF7B7FC401B642801D92F
:102F50000320E3E7E1480068012149040840002814
:102F6000F1D100BF6068012806D1DC480068491033
:102F70000843DA49086032E0606800280ED1D7487B
:102F80000068012109048843D449086008460068A4
:102F9000012189048843D149086020E06068052840
:102FA0000FD1CE480068012189040843CB4908604D
:102FB00008460068012109040843C84908600EE07A
:102FC00036E0C6480068012109048843C349086007
:102FD00008460068012189048843C049086000BF91
:102FE0006068002812D0FFF767FC054606E0FFF78F
:102FF00063FC401B642801D903208FE7B7480068B1
:103000000121490408400028F1D011E0FFF754FCE9
:10301000054606E0FFF750FC401B642801D9032059
:103020007CE7AE4800680121490408400028F1D13E
:10303000022120680840022862D1A84840680C217B
:10304000084000280CD0A5484068084008281CD13A
:10305000A2484068490308400121C903884214D1AD
:103060009E48006802210840002804D0E06801283A
:1030700001D0012052E799480068F821884321696E
:10308000C9000843954908603AE0E068002820D06C
:10309000924800680121084390490860FFF70CFC42
:1030A000054606E0FFF708FC401B642801D9032011
:1030B00034E78A480068022108400028F2D0874897
:1030C0000068F82188432169C900084383490860E2
:1030D00016E0824800684008400080490860FFF719
:1030E000EBFB054606E0FFF7E7FB401B642801D930
:1030F000032013E779480068022108400028F2D134
:10310000082120680840082831D1206A002817D0FB
:103110007248406A0121084370494862FFF7CCFBBE
:10312000054606E0FFF7C8FB401B642801D90320D1
:10313000F4E66A48406A022108400028F2D016E00E
:103140006648406A4008400064494862FFF7B4FBA3
:10315000054606E0FFF7B0FB401B642801D90320B9
:10316000DCE65E48406A022108400028F2D10421D2
:1031700020680840042870D100BF5848C0698906FB
:1031800008435649C8610846C069090408400090D0
:1031900000BF00BF52480068091508435049086045
:1031A000FFF78AFB054606E0FFF786FB401B642815
:1031B00001D90320B2E64A480068FF2101310840E6
:1031C0000028F1D000BF4548006A4008400043494C
:1031D00008620846006A042188434049086200BF2B
:1031E000FFF76AFB054607E0FFF766FB401B3D491A
:1031F000884201D9032091E63848006A022108403C
:103200000028F1D100BFA068012806D13348006A28
:1032100001210843314908622CE0A06800280CD144
:103220002E48006A400840002C4908620846006A9F
:1032300004218843294908621CE0A06805280DD1B3
:103240002648006A04210843244908620846006AA7
:1032500001210843214908620CE034E01F48006A5C
:10326000400840001D4908620846006A042188435E
:103270001A49086200BFA068002812D0FFF71CFBA3
:10328000054607E0FFF718FB401B1649884201D9A5
:10329000032043E61148006A022108400028F1D0CB
:1032A00011E0FFF709FB054607E0FFF705FB401BB0
:1032B0000C49884201D9032030E60848006A0221FF
:1032C00008400028F1D1102120680840102860D162
:1032D000606901282DD10148406B05E000100240D3
:1032E0000070004088130000042108438E494863A1
:1032F0000846406B012108438B494863FFF7DCFA1D
:10330000054606E0FFF7D8FA401B642801D90320E0
:1033100004E68548406B022108400028F2D082482C
:10332000406BF8218843A169C90008437E4948637E
:103330002FE06069401D00280FD17B48406B0421BD
:103340008843794948630846406BF8218843A1695E
:10335000C9000843744948631BE07348406B04216B
:103360000843714948630846406B40084000486381
:10337000FFF7A2FA054606E0FFF79EFA401B642815
:1033800001D90320CAE56848406B022108400028A3
:10339000F2D1202120680840202852D1624840689C
:1033A0000C2108400C280AD05F48406808400828D3
:1033B00011D15D4840684903084088420BD15A4802
:1033C000406B01210904084000283AD0E069012837
:1033D00037D00120A2E5E069002819D05248406B9F
:1033E00001210904084350494863FFF765FA05467F
:1033F00006E0FFF761FA401B642801D903208DE540
:103400004948406B0121090408400028F1D018E028
:103410004548406B01210904884343494863FFF74D
:103420004BFA054606E0FFF747FA401B642801D92E
:10343000032073E53C48406B012109040840002843
:10344000F1D1606A00286CD0374840680C210840F0
:10345000082864D0606A022847D1334800680121F7
:103460000906884330490860FFF726FA054606E05A
:10347000FFF722FA401B642801D903204EE52A48B1
:1034800000680121490608400028F1D100BF264804
:10349000C06A00090001216B08432349C862A16A80
:1034A000E06A0843204949687B22D20391430843DC
:1034B0001D49486000BF084600680121090608430D
:1034C00019490860FFF7F8F9054606E0FFF7F4F937
:1034D000401B642801D9032020E51348006801211E
:1034E000490608400028F1D01BE00F480068012180
:1034F000090688430C490860FFF7DEF9054606E037
:10350000FFF7DAF9401B642801D9032006E50648D5
:1035100000680121490608400028F1D101E001209E
:10352000FCE40020FAE400000010024070B50446FC
:103530002546681E0949884201D901200CE0681E11
:10354000074948610321081F01F01AF800200449C7
:10355000886107200861002070BD0000FFFFFF00A8
:1035600000E000E070477047024600BF3820805CF2
:10357000012801D10220704701233820835400BF65
:1035800002233920835410684068702398431368DD
:103590005860106840680B681843136858601068DA
:1035A00080688023984313689860106880684B682F
:1035B00018431368986001233920835400BF002307
:1035C0003820835400BF0020D5E710B50446002CF6
:1035D00001D1012010BD3920005D002805D1002156
:1035E00038200155204600F00CF802213920015501
:1035F000211D206801F04CF90121392001550020DE
:10360000E8E77047704710B504462068006902215A
:103610000840400800281CD02068C06808404008C6
:10362000002816D0481F21680861012020762068F4
:1036300080698007800F002803D02046FFF7E2FF53
:1036400005E0204600F0C3F8204600F0C1F8002055
:1036500020762068006904210840800800281DD0D9
:103660002068C06808408008002817D0C843216837
:103670000861022020762068806903210902084041
:10368000002803D02046FFF7BDFF05E0204600F0EC
:103690009EF8204600F09CF8002020762068006903
:1036A00008210840C00800281CD02068C0680840D5
:1036B000C008002816D0C84321680861042020767D
:1036C0002068C0698007800F002803D02046FFF7DC
:1036D00099FF05E0204600F07AF8204600F078F8DF
:1036E0000020207620680069102108400009002889
:1036F0001DD02068C06808400009002817D0C843C2
:1037000021680861082020762068C0690321090229
:103710000840002803D02046FFF774FF05E020464C
:1037200000F055F8204600F053F80020207620687D
:103730000069C007C00F01214840484000280CD054
:103740002068C068084048404840002805D0C81E8E
:1037500021680861204600F03CF82068006980215B
:103760000840C00900280BD02068C0680840C00984
:10377000002805D0C843216808612046FFF7F2FE03
:103780002068006940210840800900280BD020688B
:10379000C06808408009002805D0C8432168086136
:1037A000204600F017F820680069202108404009F1
:1037B00000280BD02068C06808404009002805D0C8
:1037C000C843216808612046FFF7CDFE10BD704751
:1037D0007047704770477047704710B504462068BF
:1037E000C069C007C00F00280FD020680068FF2103
:1037F00001310840002808D0012021680862E06EED
:1038000001210843E066692001552068C069022152
:10381000084000280FD020688068C007C00F00282B
:1038200009D0022021680862E06E04210843E066A6
:103830000121692001552068C06904210840002841
:103840000FD020688068C007C00F002809D004206E
:1038500021680862E06E02210843E06601216920C8
:1038600001552068C0690821084000280FD0206851
:103870008068C007C00F002809D0082021680862AE
:10388000E06E08210843E066012169200155E06EE1
:10389000002802D02046FFF79FFF2068C069012161
:1038A0000905084000280ED020688068890008407B
:1038B000002808D08810216808620121692001557C
:1038C0002046FFF788FF2068C069202108400028B3
:1038D0000DD0206800680840002808D0204601F07C
:1038E0003CF92068806908210843216888612068C4
:1038F000C06980210840002807D02068006808407F
:10390000002802D0204601F0BBFA2068C06940219F
:103910000840002807D0206800680840002802D02E
:10392000204601F0FCF810BD10B50446002C01D172
:10393000012010BDA069002800D000E000BF692070
:10394000005D002805D1002168200155204600F0C7
:103950002DF80221692001552068006840084000C8
:1039600021680860204601F04DF9012800D1E0E708
:10397000606A002802D0204600F0DCFF2068406822
:103980000921C902884321684860206880682A218B
:103990008843216888602068006801210843216805
:1039A0000860204601F03EF8C3E7000010B586B07D
:1039B0000446A7492068884225D100BFA5488069F0
:1039C000012189030843A3498861084680690121D0
:1039D00089030840009000BF00BFC0200190022072
:1039E00002900120039000200490059001A99A48BC
:1039F000FEF75AFE002211461B20FEF79BFF1B20FC
:103A0000FEF78CFF21E195492068884227D100BF4D
:103A10009048C0690121490408438E49C86108469D
:103A2000C069012149040840009000BF00BF0C207C
:103A300001900220029001200390002004900120B8
:103A4000059001A90920C006FEF72EFE00221146AE
:103A50001C20FEF76FFF1C20FEF760FFF5E0804999
:103A60002068884226D100BF7A48C06901218904B4
:103A700008437849C8610846C069012189040840A3
:103A8000009000BF00BF02200290012003900020A0
:103A90000490302001900120059001A97148FEF7A3
:103AA00003FE002211461D20FEF744FF1D20FEF7F5
:103AB00035FFCAE06C492068884227D100BF6548BD
:103AC000C0690121C90408436249C8610846C06948
:103AD0000121C9040840009000BF00BF02200290ED
:103AE0000120039000200490032080020190002018
:103AF000059001A95B48FEF7D7FD002211461D2065
:103B0000FEF718FF1D20FEF709FF9EE057492068C9
:103B100088421ED100BF4F48C069012109050843F2
:103B20004C49C8610846C069012109050840009058
:103B300000BF00BF022002900120039000200490EB
:103B4000002211461D20FEF7F5FE1D20FEF7E6FEC1
:103B50007BE047492068884225D100BF3D48806905
:103B6000202108433B49886108468069202108409C
:103B7000009000BF00BF3020019002200290012081
:103B80000390002004900520059001A90920C0069B
:103B9000FEF78AFD002211461D20FEF7CBFE1D20F8
:103BA000FEF7BCFE51E033492068884224D100BFB3
:103BB0002848806940210843264988610846806971
:103BC00040210840009000BF00BFC02001900220AB
:103BD000029001200390002004900120059001A98B
:103BE0002048FEF761FD002211461D20FEF7A2FECF
:103BF0001D20FEF793FE28E01F492068884224D14B
:103C000000BF144880698021084312498861084632
:103C1000806980210840009000BF00BF032000029F
:103C200001900220029001200390002004900120C6
:103C3000059001A90B48FEF737FD002211461D2013
:103C4000FEF778FE1D20FEF769FE06B010BD0000ED
:103C500000380140001002400004004800440040C9
:103C60000048004000080048004C00400050004060
:103C70000014014000180140001C0140FFB581B054
:103C800004460D4616466920005D012803D06920D0
:103C9000005D122875D1002D01D0002E02D1012027
:103CA00005B0F0BD00BF6820005D012801D10220F1
:103CB000F6E701216820015500BF0020E066692079
:103CC000005D122803D132216920015502E0222132
:103CD00069200155582006535A20065300BF012180
:103CE0000903A06888420AD12069002803D1354918
:103CF0005C20015320E0FF215C2001531CE0A06800
:103D000000280AD12069002803D1FF215C2001533B
:103D100012E07F215C2001530EE001210907A06819
:103D2000884209D12069002803D17F215C200153FA
:103D300002E03F215C20015300BF5C20005B00904B
:103D400027E05A20005B401E81B25A200153002216
:103D500020212046049B01F0D0F8002801D0032048
:103D60009EE701210903A06888420BD12069002841
:103D700008D12F462068808C009908403880AD1CFF
:103D800007E01CE02068808C0099C9B208402870C8
:103D90006D1C5A20005B0028D3DC6920005D3228AE
:103DA00003D112216920015502E00121692001554A
:103DB00000BF00216820015500BF002070E70220ED
:103DC0006EE70000FF010000F7B5044615466920C4
:103DD000005D012803D06920005D122841D10198BF
:103DE000002801D0002D01D10120FEBD00BF6820B8
:103DF000005D012801D10220F7E70121682001556B
:103E000000BF01986065582005530020E0666920D6
:103E1000005D122803D132216920015502E02221E0
:103E2000692001551048616E88621048616EC86251
:103E30000F48616E086301AE326823681946243169
:103E40002B46606EFEF7EAFB20688068402108433D
:103E50002168886000BF00216820015500BF002054
:103E6000C3E70220C1E70000CF4A0008114B000859
:103E7000A94A000838B50446002000902046FDF706
:103E800005FC800004490D586946284603F0CBF92B
:103E900001200249087038BD780E0020C1080020BA
:103EA0007047FFB581B004460D4616466920005D97
:103EB000012803D06920005D222867D1002D01D0A0
:103EC000002E02D1012005B0F0BD00BF6820005DCA
:103ED000012801D10220F6E701216820015500BF29
:103EE0000020E0666920005D222803D1322169208C
:103EF000015502E01221692001555020065352203D
:103F0000065323E05220005B401E81B25220015331
:103F1000002280212046049B00F0EFFF002801D002
:103F20000320D0E701210903A06888420AD1206953
:103F3000002807D12F463888C005C00D21680885A4
:103F4000AD1C03E028786D1C216808855220005BB9
:103F50000028D7DC002240212046049B00F0CDFF42
:103F6000002801D00320AEE76920005D322803D18C
:103F700022216920015502E001216920015500BF7D
:103F800000216820015500BF00209CE702209AE72D
:103F900010B503466920C05C012803D06920C05CCD
:103FA000222835D1002901D0002A01D1012010BDDD
:103FB00000BF6820C05C012801D10220F7E701247E
:103FC0006820C45400BFD9645020C2525220C2524B
:103FD0000020D8666920C05C222803D132246920E1
:103FE000C45402E012246920C45418688068012473
:103FF00020431C68A06000BF00246820C45400BF98
:1040000018680068802420431C6820600020CEE7E8
:104010000220CCE738B50446002000902046FDF78A
:1040200035FB800004490D586946284603F0FBF82B
:1040300001200249087038BD780E0020C208002017
:1040400000B585B040200090012001900020029032
:104050000320039069460920C006FEF725FB05B042
:1040600000BD00000EB511481149086000204860ED
:1040700000210F488160C16001210161042141617B
:1040800000218161C16101624162C162016301215C
:104090004163FDF731FC08200090400201900004CC
:1040A000029069460248FDF749FB0EBD002401401D
:1040B000E811002008B500BF1248406901210843FB
:1040C0001049486108464069C007C00F009000BF12
:1040D00000BF00BF08464069022108430949486102
:1040E0000846406902210840009000BF00BFFDF76C
:1040F000ABF9FDF7C3F9FDF7DBF900F0BDFF01F007
:104100009FF808BD0010024000B58BB000204B4A5C
:1041100000900290034601920390802248A14B48F0
:1041200003F080FA00204A4A009002900123019295
:104130000390802247A1494803F074FA0020484ABE
:1041400000900290022301920390802245A14348EF
:1041500003F068FA0020454A009002900323019280
:104160000390802242A13D4803F05CFA0020424ABD
:104170000090029004230192039080223FA13748CF
:1041800003F050FA00203F4A00900290052301926C
:10419000039080223CA1314803F044FA00203C4ABD
:1041A00000900290062301920390802239A12B48AF
:1041B00003F038FA0020394A02230290009301925A
:1041C00003900346FF22013235A1394803F02AFA51
:1041D00000200A9001210AA801F07DFD35494860C0
:1041E00000200990012109A801F075FD314988607E
:1041F00000200890012108A801F06DFD2D49C8603C
:1042000000200790012107A801F065FD29490861F8
:1042100000200690012106A801F05DFD25494861B6
:1042200000200590012105A801F055FD2149886174
:1042300002F078FB02F0A0FB0BB000BD0C020020E6
:1042400044656661756C745461736B00394700088E
:104250001402002050315461736B0000F9450008CE
:104260001802002050325461736B00001C020020C1
:1042700050335461736B00002002002050345461AD
:10428000736B00002402002050355461736B0000F2
:104290002802002050365461736B00001002002089
:1042A00046726F6E74456E645461736B000000005B
:1042B00079160008780E002008B500BF1F48406935
:1042C0000121490408431D4948610846406901210C
:1042D00049040840009000BF00BF00BF1748406974
:1042E000490008431549486108464069012189048D
:1042F0000840009000BF00BF00BF1048406949005F
:1043000008430E494861084640690121C904084034
:10431000009000BF00BF00BF084840694900084343
:104320000649486108464069012109050840009096
:1043300000BF00BFFFF784FE08BD00000010024070
:104340000EB500BF1448C069012108431249C86175
:104350000846C069C007C00F009000BF00BF8804B6
:104360000E4908600020486000210C48816030211F
:10437000C160FFF72AF900200190029001A90748C7
:10438000FFF7F2F8002211460F20FEF7D3FA0F20B4
:10439000FEF7C4FA0EBD000000100240940E00208B
:1043A0000EB500BF1048C069202108430E49C861FE
:1043B0000846C06920210840009000BF00BF0B489C
:1043C0000B490860302048601021094881600121B4
:1043D000C160FFF7FAF800200190029001A904489B
:1043E000FFF7C2F80EBD00000010024000140040AC
:1043F0000C0F002010B500F029F800F045F800F08F
:1044000083F800F09FF800F05DF800F001F810BDAF
:1044100010B50B480B4908600B484860002109485B
:104420008160C16001610C21416100218161C16134
:1044300001620020034948620846FFF775FA10BD83
:1044400000380140480F0020C0C62D0010B50B48B1
:104450000B4908600B484860002109488160C16031
:1044600001610C21416100218161C1610162002073
:10447000034948620846FFF757FA10BD0044004060
:10448000B80F0020C0C62D0010B50B480B490860BE
:104490000B484860002109488160C16001610C211E
:1044A000416100218161C1610162002003494862CC
:1044B0000846FFF739FA10BD0048004028100020D8
:1044C000C0C62D0010B50D480D4908600D48486064
:1044D00000210B488160C16001610C214161002114
:1044E0008161C1610162002005494862082048627B
:1044F000010303484163FFF717FA10BD004C004069
:1045000098100020C0C62D0010B50B480B4908605C
:104510000B484860002109488160C16001610C219D
:10452000416100218161C16101620020034948624B
:104530000846FFF7F9F910BD0018014008110020E6
:10454000C0C62D0010B50B480B4908600B484860E9
:10455000002109488160C16001610C214161002195
:104560008161C16101620020034948620846FFF78A
:10457000DBF910BD001C014078110020C0C62D00E1
:1045800010B5002819DA1A4A03071B0F083B9B08CD
:104590009B00D2588307DC0EFF23A3409A438B076E
:1045A0001B0E8407E40EA3401A43114B0407240F8B
:1045B000083CA408A4001A5118E00E4A03231B0269
:1045C000D21883089B00D2588307DC0EFF23A34038
:1045D0009A438B071B0E8407E40EA3401A43054B36
:1045E000032424021B198408A4001A5110BD0000E2
:1045F0001CED00E000E100E01CB505460020019044
:10460000ECB200BF1048005D002807D132200346FD
:10461000012201A90090204601F0F8FD68460079CA
:104620000D280DD100200190084804700220064991
:1046300008550023022219460548006802F00AFACC
:1046400002F064F9DEE70000B3060020C308002092
:10465000300D00207047000008B527480078022878
:1046600005D1002240210920C006FEF71FF900F005
:104670004BF82249088020480078012804D14021C5
:104680000920C006FEF70EF91D480078002809D160
:104690001A4801781B48C17518480088011219484A
:1046A000817504E01C211748C1758021817512486D
:1046B0000078032805D1012240210920C006FEF719
:1046C000F5F80020C043322302220E491631009033
:1046D000062002F085F908480078032805D1002259
:1046E00040210920C006FEF7E1F8FF224A210548D3
:1046F0002038FBF79DFD08BD38040020440400204D
:10470000390400206604002010B500240948FDF794
:1047100065FA00BF0021C9430648FDF7EDF90028FE
:10472000F8D10448FDF7E0F884B20248FDF792FAA8
:10473000204610BDE811002000BF7D20C00001F020
:10474000B8FAFAE7F8B506460F460320FCF7D2FFA1
:1047500004460620FCF7CEFF0546214600F0A4FCE7
:1047600001200249C8708871F8BD0000B30600201E
:1047700010B5FEF7A7F801F027FB10BD00B599B002
:1047800012200C9001200F90119010201090129088
:104790000220159081031691C104179100211891F0
:1047A0000CA8FEF795FB012008900220099000203C
:1047B0000A900B90012108A8FEF784F90E48019099
:1047C000002003900490059001A8FEF7BDF800BFFB
:1047D0000A488069012108430849886108468069C0
:1047E000C007C00F009000BF00BF00221146501E3E
:1047F000FEF7A0F819B000BD03000400001002404D
:1048000019480068012108431749086008464068B4
:104810001649084014494860084600681449084091
:1048200011490860084600680121890488430E493F
:104830000860084640683F21090488430A494860E7
:104840000846C06A00090001C8620846006B0949B1
:104850000840054908630846406B4008400048632B
:104860000020886070470000001002400CB8FF086C
:10487000FFFFF6FEACFEF0FF10B501200249087004
:104880000248FEF7C0FE10BDB2060020940E0020C4
:1048900010B500220268214B984206D001239B07E5
:1048A000984202D01E4B984205D170241346A34370
:1048B0001A464B681A43194B984212D001239B07A2
:1048C00098420ED0164B98420BD0164B984208D007
:1048D000154B984205D0154B984202D0144B984284
:1048E00006D1032424021346A3431A46CB681A4375
:1048F00002608B68C3620B688362084B984208D0E1
:10490000094B984205D0094B984202D0084B984277
:1049100001D10B6903630123436110BD002C0140E9
:1049200000040040002000400040014000440140DD
:1049300000480140818CC907C90F002908D00168CF
:104940004968012252049143826A1143026851600E
:104950000222416A1140002907D001684968D20348
:104960009143C26A1143026851600422416A1140B6
:10497000002907D00168496812049143026B114372
:10498000026851600822416A1140002907D001687D
:10499000496812039143426B11430268516010222F
:1049A000416A1140002907D00168896812029143C9
:1049B000826B1143026891602022416A11400029F4
:1049C00007D00168896812029143C26B11430268E3
:1049D00091604022416A1140002915D00168496860
:1049E00092039143026C1143026851600122120547
:1049F000016C914208D10168496803225205914334
:104A0000426C1143026851608022416A11400029C2
:104A100007D00168496812039143826C1143026810
:104A20005160704710B504460020E0661B492068BD
:104A3000884207D01A492068884203D01949206863
:104A4000884221D1206800680821084008280AD13E
:104A50007D23DB0000228104204600F04EFA00286E
:104A600001D0032010BD20680068042108400428FC
:104A70000AD17D23DB0000220105204600F03DFA2B
:104A8000002801D00320EDE701216920015500BF76
:104A900000216820015500BF0020E3E700380140F5
:104AA000004400400048004070B505466C6A002193
:104AB0005A20015352200153012169200155E06E13
:104AC00010210843E0662046FEF786FE70BD70B5F3
:104AD00005466C6A2868006820210840002813D128
:104AE00000215A20015320688068402188432168B2
:104AF00088606920005D322803D1122169200155A8
:104B000002E00121692001552046FFF7B3F970BD8D
:104B100070B50446656A2846FFF7C2F970BD10B546
:104B200004462068006840218843216808606920A5
:104B3000005D322803D122216920015508E0206858
:104B40008068400840002168886001216920015583
:104B50002046FFF75FFA002010BD70B504465C20C8
:104B6000065B6920005D222803D06920005D3228A1
:104B700045D101210903A06888420BD12069002892
:104B800008D1656D2068808C30402880606D801C65
:104B9000606507E02068808CF1B20840626D511CAE
:104BA000616510705A20005B401E81B25A2001538B
:104BB000002922D1206800682021884321680860EC
:104BC0006920005D322803D11221692001550FE0D0
:104BD00020680068FF21013188432168086020684F
:104BE00080684008400021688860012169200155E3
:104BF0002046FFF73FF9002070BD0020FCE70220AF
:104C0000FAE70000FEB50446002510260027002024
:104C1000029001902169A068084361690843E16935
:104C200008430546206800688849084028432168F1
:104C3000086020684068032109038843E16808434D
:104C400021684860216AA069084305462068806899
:104C50000B210902884328432168886000BF7C49F2
:104C60002068884217D17B48006B8007800F00289E
:104C700006D0012808D0022808D0032808D101E076
:104C8000002607E0022605E0042603E0082601E0EE
:104C9000102600BF5CE07049206888421AD16D4838
:104CA000006B032109040840002808D001210904F1
:104CB000401A08D0401A08D0401A08D101E0002656
:104CC00007E0022605E0042603E0082601E010269E
:104CD00000BF3DE06149206888421AD15D48006B01
:104CE000032189040840002808D001218904401AC2
:104CF00008D0401A08D0401A08D101E0002607E089
:104D0000022605E0042603E0082601E0102600BF85
:104D10001EE053492068884201D1002618E051491D
:104D20002068884201D1002612E04F49206888425D
:104D300001D100260CE04D492068884201D10026AF
:104D400006E04B492068884201D1002600E0102689
:104D500000BF0121C903E06988423FD1042E1BD066
:104D600004DC002E07D0022E28D10EE0082E1DD024
:104D7000102E23D123E0FEF721F840000090616857
:104D8000FBF70AFA80B202901CE03A486168FBF730
:104D900003FA80B2029015E0FEF722F8400000907E
:104DA0006168FBF7F9F980B202900BE00120000482
:104DB0006168FBF7F1F980B2029003E000BF0120C7
:104DC000019000BF00BF2C49029808400746029896
:104DD0000007400F07432068C76035E0042E1CD051
:104DE00004DC002E07D0022E29D10EE0082E1ED0A2
:104DF000102E24D124E0FDF7E1FF00906168FBF75D
:104E0000CBF980B22168C8601DE01C486168FBF7DF
:104E1000C3F980B22168C86015E0FDF7E1FF00909A
:104E20006168FBF7B9F980B22168C8600BE0012026
:104E3000C0036168FBF7B0F92168C86003E000BFF8
:104E40000120019000BF00BF0198FEBDF369FFEF94
:104E5000003801400010024000440040004800407B
:104E6000004C004000500040001401400018014078
:104E7000001C01400024F400F0FF000000127A0042
:104E800001466920405C122803D06920405C32282A
:104E900031D15220405A00280DD108680068802383
:104EA00098430B68186008680068402318430B6833
:104EB00018600020704701231B03886898420CD1BA
:104EC0000869002809D1CA6C1088C005C00D0B689C
:104ED0001885C86C801CC86405E0CB6C581CC8647D
:104EE00018780B6818855220405A401E83B2522011
:104EF00043520020DEE70220DCE7FFB581B0044624
:104F00000E461D46FDF7D8FC07460398002839D108
:104F10002DE0681C00282AD0002D04D0FDF7CCFC21
:104F2000C01BA84223D920680068802188432168DB
:104F30000860206800682021884321680860206894
:104F40000068FF210131884321680860206880687B
:104F5000400840002168886001216920015500BF98
:104F600000216820015500BF032005B0F0BD206876
:104F7000C0693040B04201D1012000E0002000288B
:104F8000C7D037E02CE0681C002829D0002D04D0C1
:104F9000FDF792FCC01BA84222D92068006880213E
:104FA00088432168086020680068202188432168C0
:104FB000086020680068FF2101318843216808608B
:104FC00020688068400840002168886001216920CD
:104FD000015500BF00216820015500BF0320C4E730
:104FE0002068C0693040B04201D1012000E00020BB
:104FF0000028C8D10020B8E710B500240448FEF707
:10500000ECFB002C03D0012000070249486010BDD2
:10501000480F002000ED00E010B500240448FEF722
:10502000DCFB002C03D0012000070249486010BDC2
:10503000B80F002000ED00E010B500240948FEF78D
:10504000CCFB0948FEF7C9FB0848FEF7C6FB084839
:10505000FEF7C3FB002C03D0012000070549486080
:1050600010BD00002810002098100020081100201A
:105070007811002000ED00E010B5094809490860EA
:1050800000204860002107488160C16001614161E2
:10509000202181610902C161FDF792FA10BD000073
:1050A000080002403412002070B504460D465949EC
:1050B000206888420DD100BF5748806A000900016E
:1050C000554988620846806A082108435249886227
:1050D0007DE05249206888420DD100BF4E48806A69
:1050E000000900014C4988620846806A092108438A
:1050F000494988626BE04A49206888420DD100BF67
:105100004548806A00090001434988620846806A70
:105110000A2108434049886259E042492068884290
:105120000DD100BF3C48806A000900013A498862FD
:105130000846806A0B2108433749886247E03A49AC
:10514000206888420DD100BF3348806A0009000101
:10515000314988620846806A0C2108432E498862DA
:1051600035E03249206888420DD100BF2A48806A64
:1051700000090001284988620846806A0D21084319
:105180002549886223E02A49206888420DD100BF62
:105190002148806A000900011F4988620846806A28
:1051A0000E2108431C49886211E022492068884288
:1051B0000DD100BF1848806A0009000116498862B5
:1051C0000846806A0F2108431349886200BF00BF68
:1051D00019486066446200BF184860602046FEF7C8
:1051E000A3FB164868602846FEF79EFB0022114686
:1051F0000920FDF79FFB0920FDF790FB01216920A5
:10520000015528680146283101222046FEF7DCFDC1
:1052100070BD0000003801408000024000440040A2
:1052200000480040004C0040005000400014014085
:1052300000180140001C014034120020C0C62D009F
:1052400010B5094809490860002048600021074856
:105250008160C16001614161202181610902C161F8
:10526000FDF7AEF910BD0000300002406C120020C6
:105270000FB410B504A9074B02AA039800F006F971
:10528000044602A9002000F09DFC204610BC08BC8A
:1052900004B01847C55B00082021020C01D0102182
:1052A0001046020A01D010460839020901D0104602
:1052B000091F820801D01046891E420801D0881EAD
:1052C0007047081A704730B47446641E2578641C11
:1052D000AB4204D3635D5B00E31830BC18471D4646
:1052E000F8E7000000487047440D002001480068BE
:1052F00070470000440D002002E008C8121F08C1DA
:10530000002AFAD170477047002001E001C1121F46
:10531000002AFBD170470000014908607047000077
:10532000440D0020F0B51FB484B007980699020D13
:10533000014314D04A484B491018484305140F98AC
:1053400001280E981CD0281A401C0024464E4749BC
:10535000009401910290002814DA474227E00F9848
:10536000012443A3012808D0002104980F9A8460E7
:105370000360C260416009B0F0BD0E98C143F4E71C
:105380004042E2E7074612E0F80707D022463346DC
:1053900001990098FBF7B4F9019100902246334639
:1053A00010461946FBF7ACF904460E467F10002F55
:1053B000EAD10298019B0028009A0799069802DA20
:1053C000FBF79EF901E0FBF703FA04460E460022C4
:1053D000284BFBF795FA03D80020C043014607E0AD
:1053E0000022254B20463146FBF7D8F8FBF768FA38
:1053F000102409E0002C0ADB0A220023FAF7D2FF6E
:10540000059B30321A55641E02460A43F2D111221E
:10541000641C059B121B1C190F9B012B03D001233D
:1054200008430ED10AE0084304D011200E9000205A
:105430000F9084E70E98151A6D1E0BE00E988242AD
:1054400002DD00236D1C03E0824201DA00236D1EA1
:10545000002BEED004980F998260C16030C08AE7BB
:1054600001FCFFFF104D0000000024400000F03F51
:10547000300000000000F0430000E03F30380A2810
:1054800001D201207047002070470000FFB597B09F
:105490000646002518E2252877D100242746FD4935
:1054A000049400E00443761C32780120203A9040B6
:1054B0000842F7D130782A280ED0022230780146EF
:1054C0003039092916D804990A235943303940182C
:1054D0001443761C0490F1E7189802C804911890C0
:1054E000002904DA012040030443484204900220CA
:1054F0000443761C30782E2814D10420044370789D
:10550000761C2A2809D11898761C80C8189009E0C2
:105510000A214F43303FC719761C30780146303995
:105520000929F5D930786C2810D006DC4C281AD01F
:1055300068280ED06A2817D104E0742813D07A287E
:1055400012D110E00120400504430CE001210905BF
:1055500001E0032109050C437178814203D1012048
:1055600000052418761C761C3078119066280BD024
:1055700013DC58287DD009DC00287BD04528F6D0E4
:105580004628F4D047281AD1A5E118E0632835D081
:10559000642870D0652812D19DE170286CD008DC99
:1055A0006728F1D069287BD06E280DD06F2806D1EE
:1055B000BAE073282ED0752871D0782859D01A9A5D
:1055C000199990476D1C7EE16002400F022809D0B6
:1055D00003280DD00428189801680DD00D60001D17
:1055E000189070E11898EA1701680D604A60F6E7B4
:1055F000189801680D80F2E70D70F0E718986A4678
:1056000001781172001D18900020507202A80090BD
:10561000012005E0189802C8189000200091C043AE
:1056200061070DD5002101E00199491C0191B942A2
:1056300012DA8142F8DB009A515C0029F4D10BE0C8
:10564000002101E00199491C01918142FADB019A94
:105650000099895C0029F5D1019904981A9B471A91
:1056600021463846199A00F097FA019940194518D1
:105670000BE04FE02CE113E04EE000980099007839
:10568000491C00911A9A199990470198401E01905F
:10569000401CF2D1214638461A9B199A10E137E096
:1056A0000A200021009001916002410F022907D0D9
:1056B000189A01CA1892C2179446032908D00AE022
:1056C0001898C01DC108C90005C91891944607E083
:1056D00000B2C2179446042902D140B2C1178C46C9
:1056E00000226146944506DA0A4600214042914173
:1056F0008C462D2102E0210504D52B216A46117329
:10570000012103E0E10701D02021F7E7029155E0F4
:105710000A200AE0102008E0102000900021042058
:1057200004430191082703E0082000210191009023
:105730006002410F022907D0189A01CA189200226C
:105740009446032908D008E01898C01DC108C90074
:1057500005C91891944603E080B2042900D1C0B273
:1057600000210291210729D51199702906D0009AAC
:105770001021019B4A401A4305D00EE040216A46A1
:105780001173012108E06146014306D030216A46C9
:1057900011731199517302210291009A0821019B02
:1057A0004A401A430AD16146014301D1610705D538
:1057B00030216A46117301217F1E029111995829E7
:1057C00004D035A10E910DA90D910DE037A1F9E797
:1057D0006146019B009AFAF7E5FD0E9B8C469B5CA7
:1057E0000D9A521E0D92137061460143F0D10D982F
:1057F00005A9081A20300190600703D50120000494
:10580000844300E001270198874201DD381A00E057
:105810000020019900904118029809180498401A34
:105820000490E00306D421461A9B199A049800F0CC
:10583000B3F94519002706E003A81A9AC05D199923
:1058400090476D1C7F1C02988742F5DBE0030CD566
:1058500021461A9B199A049800F09EF9451904E014
:105860001A9A3020199990476D1C0099481E009093
:105870000029F5DC08E00D980D990078491C0D9180
:105880001A9A199990476D1C0199481E0190002998
:10589000F1DC63E109280100303132333435363729
:1058A000383961626364656600000000303132336C
:1058B000343536373839414243444546000000000C
:1058C00000F05AF94519761C3078002800D0E2E53E
:1058D00028461BB0F0BD600700D406271898C01DED
:1058E000C108C90048680A680831C30FDB0718916E
:1058F000190001D09CA108E0210501D59BA104E07D
:10590000E10701D09AA100E09AA1430011985B0839
:10591000109165280CD006DC452809D046281DD0FA
:10592000472841D141E0662818D067283CD13CE0A7
:105930000021112F01DB112000E0781C0191009063
:1059400008A911A8FFF7EEFC139905910021119AFF
:1059500015927F1C12980197009150E00120C0071A
:1059600003900120019008A9009711A8FFF7DAFC25
:10597000139A149905920022119B00921298159384
:10598000059A0192002901D0104602E0791C4018C6
:105990000190381A01D5019804E04042401E009061
:1059A000781C0190C01B029043E0012F00DA012710
:1059B0000021112F01DD112000E0384601910090F7
:1059C00008A911A8FFF7AEFC13990591119A0021BF
:1059D000129815920091019721070CD40599B942AC
:1059E00001DB019900E00191012904DD159A491EAE
:1059F000515C302906D0B84201DA011D05DA0121D7
:105A0000029115E00199491EEDE7002805DC009997
:105A1000411800910199091A03E0019A411C914231
:105A200000DD01910099401A401C02900120C0073E
:105A30000390200706D402990198814202DB0020DE
:105A4000C043029000206946C87707AF0121039840
:105A50000337C907884224D0022011902B201290CE
:105A6000039800280CDA404203902D20129007E0A2
:105A70000A210398FAF790FB30317F1E03903970AA
:105A80001199481E11900029F2DC03980028EFD1EB
:105A9000791E129808703078202108404530BF1ECA
:105AA000387006A8C01BC01D03901098007800280D
:105AB00000D00120019941180298C01709180398D5
:105AC00009180498401A401E0490E00306D42146A9
:105AD0001A9B199A049800F05FF8451910980078FD
