:020000040800F2
:10000000E86A0020410100086B0100086D0100084A
:1000100000000000000000000000000000000000E0
:100020000000000000000000000000002D3F00085C
:100030000000000000000000FF000008BD400008B4
:1000400075010008750100087501000875010008B8
:1000500075010008750100087501000875010008A8
:100060007501000875010008750100087501000898
:10007000750100087501000875010008C5410008F8
:100080007501000875010008750100087501000878
:100090007501000875010008750100087501000868
:1000A0007501000875010008750100087501000858
:1000B0004D4C00086D4C000875010008034885464A
:1000C00000F076FC00480047CD520008E86A0020A6
:1000D000064B19680868203080F30988022080F3F5
:1000E00014883FBCAE4662B600BD0000B8000020D8
:1000F000EFF3108072B6704780F310887047EFF30B
:1001000009800E4B1A6820381060F0C044464D46F6
:1001100056465F46F0C008B572B606F013FF62B6E9
:100120000CBC116808681030F0C8A046A946B24659
:10013000BB4680F309882038F0C81847B800002073
:100140000D480E49026800608A4203D00C4880477F
:100150000C4800470C480D4901600D480B490160EF
:100160000C4801688D4640680047FEE7FEE7FEE761
:10017000FEE7FEE7FEE70000F07F0020EFBEADDE09
:100180004D410008BD0000081810024001000000A9
:100190000000014000D8FF1F30B50B46014600208B
:1001A0002022012409E00D46D5409D4205D31D467D
:1001B0009540491B2546954040191546521E002D75
:1001C000F1DC30BD10B5202A04DB0846203AD040CF
:1001D000002110BD0B46D340D0402024A21A9140EC
:1001E0000843194610BD00000549064A08685043F7
:1001F000054A801808604008704701490860704748
:10020000B00000206D4EC6413930000003460B435C
:100210009B0703D009E008C9121F08C0042AFAD2BC
:1002200003E00B780370401C491C521EF9D2704742
:10023000D2B201E00270401C491EFBD2704700227E
:10024000F6E710B513460A4604461946FFF7F0FFD5
:10025000204610BD421E5378521C002BFBD10B7858
:100260001370491C521C002BF9D1704710B504467D
:1002700005E00B780370401C002B00D0491C521E77
:10028000F7D2204610BD421C0178401C0029FBD14A
:10029000801A704730B504460020034600E05B1C1E
:1002A000934203D2E05CCD5C401BF8D030BD0346E6
:1002B0000A780270401C491C002AF9D11846704780
:1002C00030B505460020034600E05B1C934205D292
:1002D000EC5CC85C201A01D1002CF6D130BD70B5A1
:1002E000064604F021FD046805460A220021304636
:1002F00000F0A6F92C6070BD70B5064604F014FD40
:10030000046805460A220021304600F099F92C6065
:1003100070BDF8B502464A40D40F42004B00520867
:100320005B089A4202D20246084611464A0023D090
:10033000C30D4A00DDB2120EAD1A202D35DA490286
:100340000126490AF6058A19002C00D052422021C4
:100350004F1B1146B9402A411018C20D9A4221D0B4
:10036000002C17D0012D08DCDA05801AD20F801975
:10037000D207DBB200F0A4F9F8BDDA05801A012338
:1003800040001B06C01880185A428018CA0F10433C
:10039000490007E04908C2071143DA05801A8019AD
:1003A0004008801800F084F9F8BD61000122511A5C
:1003B000001BF7E70122D2075140AAE70122D2072A
:1003C0005040A6E7024670B54A40D30FDB07400015
:1003D0002DD04A002AD0010E140E00021202091973
:1003E000400A520A8418E50104465443000A120ADE
:1003F0002E045043A4194219200CC543AA18120C0C
:100400000125AD03521C521912047F39240400D077
:10041000521C104301D44000491EC2B20C06C00950
:100420002018401C4008802A02D003E0002070BD44
:1004300040084000002900DA0020184370BD70B564
:1004400002464A40D50F40004A00ED0740085208D6
:10045000002814D0002A12D0C40DD30D410201206F
:10046000C0055202490A520AE41A091812187D34CA
:10047000914201D3641C00E04900002C01DA002005
:1004800070BD0023914201D3891A034340084900FB
:100490000028F7D100290AD0914202D10121C907D1
:1004A00005E0914201D2012101E00121C943E005AB
:1004B000C018401900F0FCF870BD41004002012254
:1004C000400AD205090E80187F2901DA0020704702
:1004D000962903DC9622511AC84070479639884005
:1004E0007047CB0FDB07490010B5490802460A43A5
:1004F00007D00A0D07240903E401090B121B002A87
:1005000001DC002010BDC900440F0C43C100E018FD
:10051000D205801800F0CCF810BDF0B51FB4064627
:10052000002082B005464024019100901BE0019913
:1005300022460F463046FFF745FE049A059B801A77
:10054000994110D310461946224600F016F8361A83
:100550008F410197224601200021009F00F00DF8F5
:1005600038184D4100902046641E0028DFDC019BB6
:1005700000982946324607B0F0BD10B5202A04DBAA
:100580000146203A9140002010BD914020239C1A42
:100590000346E3401943904010BD00000FB400B57E
:1005A00089B00CA900910B990023CB60204B214A04
:1005B00006930792042201921F4A02921F4A089250
:1005C00002466B46002000F08EFA09B008BC04B069
:1005D000184770B586B006460020C0430190002041
:1005E00015460C460091029104903246694604A8D3
:1005F000FFF7D4FF034604982118002D05D00028EA
:1006000001D00A4600E022462A6000280DD0002BC7
:1006100002DD0098884208D0081B01900094324601
:100620006946029404A8FFF7B9FF06B070BD000048
:100630003D0D00085D0D0008FFFFFF7FDD0900088C
:10064000F7B5009C0F4600262578641C002D05D0C8
:1006500000F0C0F90068405DC007F5D12B2D02D035
:100660002D2D18D0641E39462046029A00F088FBD2
:10067000002F04D03968A14201D100993960710579
:10068000022400290BDA4042002803DD04F04CFB71
:100690000460A007FEBD012080020643E3E70028B6
:1006A000F8DA04F041FB04600048FEBDFFFFFF7F65
:1006B000002904DA401C490001D14008400070477D
:1006C00070B40024050C05D11024000402D10029C7
:1006D00021D01124050E01D100020834050F01D1EB
:1006E0000001241D850F01D18000A41C002801DB1E
:1006F0004000641C002908D020252E1B0D46F54023
:10070000A14000D001212943084301061B1B000A18
:10071000DB1D02D5002070BC7047DB05181880185F
:100720000029F8DA401C4900F5D170BC40084000AF
:10073000704710B5002B08DA0024401C6141921864
:100740005B411A4301D14008400010BDF0B51FB411
:1007500082B005460C0003D0084604F0BFFA02E060
:1007600004F0BCFA20300246009021462846FFF7EC
:1007700004FF049B059A04460F461843114308439F
:1007800014D0184610431BD0009840210A1A18466E
:100790000599FFF717FD05460E46009A059904983E
:1007A000FFF7EBFE084305D0012004E02046394660
:1007B00007B0F0BD0020C11705430E432C4337435B
:1007C00000990E986305401A7905E40A00220C434B
:1007D000FD0A0A3002D500200146E9E7010510199B
:1007E00069410C9C0D9D00196941FFF7A2FFDFE7ED
:1007F000F0B51FB488B00B990998002448400999B6
:10080000C00F490049080991C0070B9900904900A1
:1008100049080B9109990898A64608431CD00B99E2
:100820000A98084318D0099801244000420D480056
:10083000410D099824050003000B204309900B98F3
:100840000003000B20430B9050181C494018002255
:1008500001901446104605E0002001460DB0F0BDA1
:10086000032801DA034600E003239C46C11A0AAEBE
:100870000AE05F0008ADED5B4F00F75B7D430027AA
:10088000AA187C41491C5B1E6145F2DD410004ABA6
:100890005A522104120C0A43240C401C0828DFDBA6
:1008A000019802900099704601910090059B049A6E
:1008B00007990698FFF74AFFD0E700000DFCFFFFFD
:1008C000F0B50C465C4085B0E40FE40703944C009F
:1008D00000266408590094464908024602962243BD
:1008E00021D062460A431ED06200570D4A000E0313
:1008F0002303550D012402462C492405781B1B0BAC
:10090000360B401823432643614600901C46501A7C
:10091000B44103D30098401C009002E09218009864
:100920005B41002803DA0020014605B0F0BD00203D
:10093000012109050746864611E064461D46141B41
:10094000B54106D36546521BB341744607430C4379
:10095000A646CD0740084908284392185B41054642
:100960000D43EAD11046184313D060461946504053
:100970007140084306D06046101AB34106D20122E6
:10098000002306E000220123DB0702E00122D2431C
:100990005310009874460105381C6141029C039D68
:1009A00000196941FFF7C5FEBFE70000FD03000025
:1009B000064C0125064E05E0E36807CC2B430C3CB2
:1009C00098471034B442F7D3FFF77CFBC883000884
:1009D000E883000800487047E47B000810B504462F
:1009E000FFF7F8FF0068005DC007C00F10BD0000F2
:1009F000FFB5087885B01546FF2805D0491C2D287D
:100A000004D00022002407E000240BE00122F9E7D3
:100A10000A235C430419491C0878FF28F8D1002AEE
:100A200000D06442002001902A7801462D2A01D08E
:100A30002B2A04D16D1C2D2A0DD0002201920026F4
:100A40002F78FF2F09D00A2200236D1C00F0EBF94C
:100A500038187141F4E70122F0E7089AA2180392CE
:100A600002460A430DD00024B24AB14D26460092F8
:100A700000F026FA049003980291002807DA474212
:100A80001AE0002105980A4606C009B0F0BD0746E5
:100A900012E0F80707D022462B4630460099FFF7B0
:100AA000A7FE0646009122462B4610461946FFF740
:100AB0009FFE04460D467F10002FEAD10398009B4D
:100AC000002802990498324602DAFFF7F9FE01E0A5
:100AD000FFF78EFE019A002A02D00122D207514070
:100AE000059A03C2D1E7FFB591B000200990002517
:100AF000ED432E209E685C681F460190B9696D1C0D
:100B0000129888470090396A88470028F6D10098E3
:100B1000401C0AD00D20C0018443002E12DD009835
:100B20002B2809D02D280DD103E00020C04315B09B
:100B3000F0BD012080020443B9696D1C12988847FA
:100B4000761E009003A9600501D52D2000E02B2022
:100B50006A461073491C0CA80F9102900AE0B9690B
:100B60006D1C12988847009001204002044313989E
:100B7000761E0560002E02DD00983028EFD0019926
:100B80000098884246D18020044308E00998401E1E
:100B900009900120400204431399681C0860B96958
:100BA0006D1C761E1298884700903028EED031E0F8
:100BB0000199884205D1200603D480200443761E83
:100BC0001EE0009804F0D0F8002826D00120400252
:100BD000044307A90F980331761E88420BD2009870
:100BE0000F99303808700F98401C0F90200607D5D9
:100BF0000998401E03E0200602D40998401C099081
:100C0000A00502D51399681C0860B9696D1C12987B
:100C100088470090002ECBDC59E0002E57DD00986D
:100C2000652801D0452852D1A00550D503200002E7
:100C30008443B9696D1C761E129888470090002E77
:100C40000CDD2B2804D02D2808D1FF2001300443CF
:100C5000B9696D1C12988847761E0090E00501D591
:100C60002D2100E02B21029801700298401C029077
:100C7000019025E00120400204430EA902980131B1
:100C8000761E88420ED20098029930380006000E77
:100C9000087003D10299019881420AD90298401C38
:100CA000029006E0E00501D5234801E022484042D9
:100CB0000990B9696D1C12988847009013980560D7
:100CC000002E04DD009804F04FF80028D2D1F96915
:100CD000129888470F99FF200870029903AA08709C
:100CE00000200A900B900CA90AA8099BFFF780FE30
:100CF000A00502D40120C04319E72420044209D0F2
:100D0000E00713D138680B9A0A99031D3B6000680D
:100D100006C00BE00B990A98FFF7E3FB0146E007DA
:100D200004D13868021D3A60006801602846FEE67A
:100D3000000024400000F03FF1D8FFFF4268002A85
:100D400008D001680B78491C002B03D0521E06C046
:100D5000184670470121C160881E70474268002A0A
:100D60000BD0C3680168002B07D183688B4204D085
:100D7000491E521C06C0002070470020C043704727
:100D8000F7B582B0029C00272078641C15460197B5
:100D9000302802D0002D15D015E020780127641CE2
:100DA000782804D0582802D0002D09D00BE0002D5F
:100DB00001D0102D07D1002710252078641C02E0F7
:100DC000082500E00A250026009610E0009901277A
:100DD00069430818020C294680B2714300908E18AE
:100DE0003804864201D3012001902078641C2946F2
:100DF00000F056F80028E9DA0398002805D0002F03
:100E000001D0641E00E0029C04600198002806D016
:100E100003F08AFF02210160C81E05B0F0BD0099F1
:100E200030040843F9E7F0B51FB486B00020009005
:100E3000019002900698069980B204900798090CD8
:100E400002040014114307900027089D0998069199
:100E50003E463C4603900398A9B20204000C03905E
:100E600004982D0C1543484300212246FFF785FBCB
:100E7000C719714110340E46402CECDB3846029AFB
:100E8000FFF77BFB009A019B801800905941029864
:100E90000191103002904028CCDB00980BB0F0BDDF
:100EA0003A2800D23038202302469A43412A01D3FF
:100EB00010463738884201D30020C04370470000F5
:100EC0000EB5054A02920022009213460192FFF7E6
:100ED0003DFC03B000BD00003304000070B58C1869
:100EE0000578401C6B075B0F01D10378401C2A1169
:100EF00006D10278401C03E006780E70401C491CA5
:100F00005B1EF9D12B0705D40023521E0DD40B70A4
:100F1000491CFAE70378401CCB1A921C03E01D78A9
:100F20000D70491C5B1C521EF9D5A142D8D300207C
:100F300070BD70B504460025206880680421084013
:100F40008008002829D020688068084000280BD03D
:100F50002068806802210840002805D12068806848
:100F6000102108432168886000F070FE05460EE0FD
:100F700000F06CFE401B022809D9606C1021084368
:100F80006064A06C01210843A064012070BD20684A
:100F90008068042108400028EAD10020F6E770B5F7
:100FA00004460025206880688007800F01280ED144
:100FB00020680068C007C00F002806D12068C068FC
:100FC0000121C9030840884201D1012000E000202E
:100FD000002837D02068806805210840012800D10A
:100FE00000E0002000280AD000BF206880680221AD
:100FF00008432168886003202168086009E0606C6C
:10100000102108436064A06C01210843A064012002
:1010100070BD00F01BFE05460EE000F017FE401B01
:10102000022809D9606C102108436064A06C01217A
:101030000843A0640120EBE720688068C007C00F68
:101040000028EAD10020E3E738B504460025002057
:101050000090206880688007800F01280ED12068EA
:101060000068C007C00F002806D12068C0680121B1
:10107000C9030840884201D1012000E00020002877
:1010800043D12068806822490840002801D101200E
:1010900000E00020002809D1606C10210843606442
:1010A000A06C01210843A064012038BD206880683D
:1010B0000121084321688860164917480068FFF736
:1010C0006BF8009002E00098401E00900098002805
:1010D000F9D100F0BBFD05460EE000F0B7FD401B66
:1010E000022809D9606C102108436064A06C0121BA
:1010F0000843A0640120D8E720680068C007C00F3B
:101100000121484048400028E7D00020CDE70000FA
:101110001700008040420F003400002010B500F09E
:10112000A3FD02F0D1FF02F08DFC02F063FD02F09E
:10113000CDFC02F035FD02F0F9FC02F083FB012248
:1011400040210920C00600F07BFDFF20F53000F0B3
:101150006BFC002240210920C00600F071FD6420D4
:1011600000F062FC012240210920C00600F068FD69
:10117000642000F059FC002240210920C00600F044
:101180005FFD642000F050FC012240210920C006D0
:1011900000F056FD642000F047FC002240210920A9
:1011A000C00600F04DFD03A0FFF799F80446FFF7D5
:1011B00024F810BD31333A34313A353100000000A3
:1011C000004870477036002030B5034600240020E8
:1011D0000025156027E000E05B1C1D78002D02D083
:1011E0001D78202DF8D100E05B1C1D78002D02D069
:1011F0001D78202DF8D01D78002D13D0641C8C4252
:1012000011D1184603E015686D1C15605B1C1D7834
:10121000002D02D01D78202DF5D11568002D00D1AC
:10122000002002E001E08C42D5D300BF30BD0000B9
:10123000F7B50546012631480068002835D1304809
:101240002E4908602CE02D48006800680768384681
:10125000FFF719F80446285D202802D0285D0028F1
:1012600019D1224639462846FFF72AF8002812D11C
:101270002248006800680C21415600290ADB2846F4
:1012800004F09AF91D49096809680C228A569042AF
:1012900000D0002608E01948006840681749086037
:1012A000164800680028CED100BF14480068002806
:1012B0000AD0002E08D11349029A0198FEF7D6FFF2
:1012C00000200E49086017E00C48006800280DD087
:1012D0000A48006800682A4683680299019898477E
:1012E0000646002E08D10549086005E00649029A25
:1012F0000198FEF7BBFF00263046FEBD940000209B
:1013000088000020008000085880000870B505465D
:101310000026002D02D172B600BFFEE7082006F0BD
:10132000FFFA0446002C02D172B600BFFEE7002C83
:101330000CD004F0A1FC2560002060600448006827
:1013400044600348046004F0A5FC0126304670BDEB
:101350009000002000BF29480078002849D0284884
:101360000078032803D026480078042841D1234878
:101370000078030003F0C9FC093B060E3B3B161F37
:1013800028313B001E48007802F0F0FD00201B4988
:1013900008702DE01A48007802F070FE002017490E
:1013A000087025E000211648007802F0E5FC0020D6
:1013B000124908701CE013491148007802F0DCFC67
:1013C00000200E49087013E00F490D48007802F024
:1013D000D3FC0020094908700AE00C48016808485D
:1013E000007802F0C9FC00200449087000E000BF4A
:1013F00000BF0A2004F022F8ADE700002900002019
:101400002A0000200000AC420000ACC22C000020EA
:101410000146134A0868904201D101207047114AE1
:101420000868904201D10220F8E70F4A086890420C
:1014300001D10320F2E70D4A0868904201D104204F
:10144000ECE70B4A0868904201D10520E6E7094A1B
:101450000868904201D10620E0E70020DEE70000A6
:10146000004400400048004000180140001C0140BA
:10147000004C00400050004000B501460B0003F056
:1014800044FC07110507090B0D0F1100064800BDAC
:101490000648FCE70648FAE70648F8E70648F6E794
:1014A0000648F4E70020F2E7AC0200201C0300200D
:1014B0006C040020DC0400208C030020FC030020CE
:1014C000F8B504460D4600260020009001210907CA
:1014D000A06B884215D0A06B012812D0A06B022807
:1014E0000FD0A06B03280CD0A06B042809D0A06BF0
:1014F000052806D0A06B062803D0A06B072800D0D3
:1015000000BF00BF4020005D012801D10220F8BDCE
:1015100001214020015500BF206880680421084057
:10152000800800287ED14D496868884264D02068D0
:10153000806A2A780121914008432168886201214C
:101540000907A06B884229D0A06B012826D0A06B88
:10155000022823D0A06B032820D0A06B04281DD024
:10156000A06B05281AD0A06B062817D0A06B0728FF
:1015700014D0A868216849694907490F88420DD0ED
:1015800020684069C008C00021684861206840693F
:10159000297A4907490F08432168486128681028BB
:1015A00005D02868112802D0286812284FD12C486D
:1015B00080682968102901D1C90407E02968112928
:1015C00002D10121890501E00121090608432449CE
:1015D0008860286810283AD1224923480068FEF71D
:1015E000DBFD0A214843009002E00098401E009075
:1015F00000980028F9D12AE02068816A2A78012021
:1016000090408143206881622868102805D02868AE
:10161000112802D02868122819D111488068296839
:10162000102900E00EE001D1C90407E02968112962
:1016300002D10121890501E00121090688430849F9
:10164000886004E0606C202108436064012600BFCC
:1016500000214020015500BF304658E7011000002E
:101660000027014040420F003400002001460820BE
:101670000A6810600868006C7047000070B5044686
:1016800000260025002C01D1012070BD606C0028CF
:1016900006D1A064002140200155204600F0C6F884
:1016A000606C1021084000287ED1002EFCD12068FB
:1016B00080680421084080080028F5D1606C890109
:1016C0008843022108436064206880688007800F97
:1016D00001280DD120680068C007C00F002805D17F
:1016E0002068C06889030840884201D1012000E0D9
:1016F000002000280FD12068C06818218843A16805
:1017000008432168C860206800698000800861681B
:101710000843216808612068C06842490840216880
:10172000C860A0698003E169C9030843216A4903CD
:101730000843616B012902D00121090300E0002167
:101740000843E16808432169022901D1042100E02E
:1017500000210843216B490008430543606A0128C2
:1017600005D1206A002802D1012000040543FF2191
:10177000C231A06A884203D0E16AA06A08430543E7
:101780002068C06828432168C86001210907A06B50
:10179000884216D0A06B012813D0A06B022810D06D
:1017A000A06B03280DD000E034E0A06B042808D023
:1017B000A06B052805D0A06B062802D0A06B0728D7
:1017C0000DD120684069C008C000216848612068C8
:1017D0004069218F4907490F084321684861206803
:1017E000C06811490840A84208D10020A064606C7C
:1017F0000221884301210843606410E0606C0221EB
:101800008843102108436064A06C01210843A06450
:10181000012604E0606C1021084360640126304614
:1018200033E700001902FEFFE7FF3F8310B586B0E3
:1018300004460F492068884217D100BF0D488069CF
:10184000491508430B4988610846806949150840D5
:10185000009000BF00BF01200190032002900020F3
:10186000039001A9044800F0EDF806B010BD000097
:10187000002401400010024000040048F8B504466E
:101880000D466069082801D1082711E02068C0686A
:10189000C007C00F00280AD0606C20210843606494
:1018A00000BF00214020015500BF0120F8BD0C27DA
:1018B00000F0CCF9064614E0681C002811D0002D79
:1018C00004D000F0C3F9801BA8420AD9606C04213F
:1018D0000843606400BF00214020015500BF032081
:1018E000E4E72068006838400028E5D0606C0121FA
:1018F0004902084360642068C068032189020840E7
:10190000002825D1206A002822D1206800680821FB
:10191000084008281CD120688068042108408008FD
:1019200000280DD1206840680C2188432168486058
:10193000606CFF210131884301210843606407E0A6
:10194000606C202108436064A06C01210843A064FE
:10195000A069002802D10C20216808600020A5E7BA
:1019600070B504460025206880680421084080087E
:1019700000282BD100BF4020005D012801D10220AA
:1019800070BD01214020015500BFE069012803D04E
:101990002046FFF759FB0546002D18D1606C0D4914
:1019A0000840FF210131084360640020A06400BFAB
:1019B00000214020015500BF1C20216808602068DC
:1019C0008068042108432168886000E002252846D9
:1019D000D6E70000FEF1FFFF70B50446002500BF0A
:1019E0004020005D012801D1022070BD012140206E
:1019F000015500BF2046FFF79CFA0546002D0CD18B
:101A00002046FFF7CCFA0546002D06D1606CFF2179
:101A10000131884301210843606400BF0021402058
:101A2000015500BF2846E0E731B5002400F00EF96B
:101A3000044600BF00F00AF9001B00998842F9D360
:101A400038BD000078B50346002200240020E3E002
:101A5000012696400D6835402C46002C7ED04D68FE
:101A6000022D02D04D68122D15D1D508AE001D46AD
:101A70002035A8595507EE0E0F25B5400646AE4352
:101A800030465607F60E0D69B5402843D508AD001F
:101A90001E4620367051186856000325B54006468C
:101AA000AE4330460D79AD07AD0F5600B540284323
:101AB00018604D68012D08D04D68022D05D04D6885
:101AC000112D02D04D68122D18D1986856000325AB
:101AD000B5400646AE4330465600CD68B540284373
:101AE00098605868012595400646AE43304610265A
:101AF0004D6835402D09954028435860D8685600F8
:101B00000325B5400646AE43304656008D68B540C5
:101B10002843D860012636074D683540B5427AD152
:101B200000BF404DAD69012635433E4EB561354697
:101B3000AD69ED07ED0F009500BF00BF3A4D960867
:101B4000B600A85995072E0F0F25B5400646AE439F
:101B500030460925ED06AB4203D100E05BE00025ED
:101B600014E0324DAB4201D101250FE0304DAB42C4
:101B700001D102250AE02F4DAB4201D1032505E03A
:101B80002D4DAB4201D1042500E005259607360F07
:101B9000B5402843244D9608B600A851274D286823
:101BA0000546A5432846012636044D683540B54212
:101BB00002D1054625432846204D28606868054621
:101BC000A5432846012676044D683540B54202D12A
:101BD000054625432846194D6860A8680546A54373
:101BE0002846012636054D683540B54202D10546E6
:101BF00025432846114DA860E8680546A5432846B8
:101C0000012676054D683540B54202D1054625438B
:101C100028460A4DE860521C0D68D540002D00D0C2
:101C200016E778BD0010024008000140000400489B
:101C300000080048000C0048001000480004014063
:101C4000002A01D0816100E081627047014800688C
:101C5000704700004800002002480068401C01490D
:101C6000086070474800002010B506480068102141
:101C7000084304490860002000F006F800F017F857
:101C8000002010BD0020024070B5044600F04AFA62
:101C900006467D21C900FEF77FFA054600F010FEDA
:101CA00000222146501E00F00FF8002070BD704742
:101CB00000BFC206D20E01219140024A116000BF4E
:101CC0007047000000E100E070B504460D4616467E
:101CD0002946204602F0BAF870BD0000F8B5044667
:101CE000002500260121090420680840884266D1A9
:101CF0005648006A03210902084003221202616863
:101D0000114088425BD000BF5048C06901210907DB
:101D100008434E49C8610846C0690904084000905C
:101D200000BF00BF4A4800680915084348490860D9
:101D3000FFF78CFF054606E0FFF788FF401B64288D
:101D400001D90320F8BD42480068FF210131084055
:101D50000028F1D03D48006A032109028843064665
:101D60003A48006A012109040843384908620846D4
:101D7000006A012109048843344908620846066262
:101D800002203040002811D0FFF760FF054607E031
:101D9000FFF75CFF401B2F49884201D90320D1E7A0
:101DA0002A48006A022108400028F1D02748006A2A
:101DB00003210902884361680843244908622078A6
:101DC000C007C00F002807D02048006B80088000A3
:101DD000A16808431D4908630221206808400228C1
:101DE00008D11A48006B032109048843E1680843BD
:101DF000164908630121890420680840884208D1F7
:101E00001248006B032189048843216908430F4964
:101E10000863202120680840202807D10B48006B68
:101E20001021884361690843084908630121890238
:101E300020680840884207D10448006B402188434D
:101E4000A16908430149086300207BE700100240B4
:101E5000007000408813000070B504460E4600254F
:101E6000AD480068C007C00FB0426ED2AA480068F3
:101E7000400840003043A849086008460068C00791
:101E8000C00FB04201D0012070BD0221206808407F
:101E9000022807D1A1484068F0218843A16808437F
:101EA0009E4948602078C007C00F002848D060686D
:101EB000012808D1994800680121490408400028F8
:101EC00021D10120E0E76068022808D1934800682A
:101ED000012149060840002815D10120D4E7606897
:101EE000032808D18D48406B0121090408400028CF
:101EF00009D10120C8E7894800680221084000286C
:101F000001D10120C0E785484068800880006168F1
:101F1000084382494860FFF799FE0546606801283A
:101F20000FD107E0FFF792FE401B7D49884201D99F
:101F30000320A9E7794840680C2108400428F1D122
:101F4000D6E06068022810D108E031E0FFF77EFE9D
:101F5000401B7349884201D9032095E76F484068C8
:101F60000C2108400828F1D1C2E0606803280FD195
:101F700007E0FFF76BFE401B6949884201D9032047
:101F800082E7664840680C2108400C28F1D1AFE098
:101F900007E0FFF75BFE401B6149884201D903203F
:101FA00072E75E4840680C2108400028F1D19FE0AC
:101FB000022120680840022807D158484068F021D3
:101FC0008843A1680843554948602078C007C00F7E
:101FD00000287ED06068012808D15048006801219F
:101FE00049040840002821D101204DE760680228FB
:101FF00008D14A480068012149060840002815D147
:10200000012041E76068032808D14448406B012162
:1020100009040840002809D1012035E73F4800683D
:1020200002210840002801D101202DE73B484068EB
:10203000800880006168084338494860FFF706FE61
:102040000546606801280FD107E0FFF7FFFD401B40
:102050003349884201D9032016E7304840680C21F3
:1020600008400428F1D134E0606802280FD107E06D
:10207000FFF7ECFD401B2A49884201D9032003E702
:10208000264840680C2108400828F1D121E060680A
:1020900003280FD107E0FFF7D9FD401B20498842F4
:1020A00001D90320F0E61D4840680C2108400C28A7
:1020B000F1D10EE007E0FFF7C9FD401B1849884247
:1020C00001D90320E0E6154840680C2108400028AB
:1020D000F1D1114800684008400030430E490860C3
:1020E00008460068C007C00FB04201D00120CBE60F
:1020F000042120680840042808D1084840680721C6
:1021000009028843E1680843044948600020FFF75A
:10211000BBFD0020B8E60000002002400010024095
:102120008813000010B500F025F806494968F02230
:1021300011400909044A515CC84004490860084636
:10214000006810BD00100240CC7A00083400002066
:1021500010B5FFF7E7FF0549496807221202114051
:10216000090A034A515CC84010BD0000001002403B
:10217000CC7A0008F0B589B02FA001460EC9C0681E
:1021800005AC0EC4089030A001460EC9C06801AC71
:102190000EC4049000240026002700250020009093
:1021A0002D4844680C20204000283DD0042804D04D
:1021B000082805D00C2836D132E02848009036E0B7
:1021C0000F2080042040800C05A90D5C2248C06AC5
:1021D0000007000F01A90E5C0320C003204001216D
:1021E0000904884206D131461C48FDF7D5FF6843F3
:1021F000074613E00320C00320400321C90388429F
:1022000006D131461648FDF7C7FF6843074605E08B
:1022100031461248FDF7C0FF68430746009706E0C5
:102220000F48009003E000BF0C48009000BF00BFC3
:10223000009809B0F0BD0000020304050607080974
:102240000A0B0C0D0E0F10100102030405060708FF
:10225000090A0B0C0D0E0F100010024000127A003C
:10226000006CDC0238B5044600252078C007C00F9A
:1022700000286FD0FE4840680C21084004280CD08C
:10228000FB4840680840082813D1F94840684903D2
:1022900008400121090488420BD1F548006801215A
:1022A000490408400028E4D06068002852D1012089
:1022B00038BD00BFEE480068012109048843EC499D
:1022C000086008460068012189048843E8490860DD
:1022D00000BFFFF7BBFC054606E0FFF7B7FC401B5D
:1022E000642801D90320E3E7E1480068012149049B
:1022F00008400028F1D100BF6068012806D1DC4801
:10230000006849100843DA49086032E06068002834
:102310000ED1D7480068012109048843D4490860D8
:1023200008460068012189048843D149086020E0FB
:10233000606805280FD1CE48006801218904084350
:10234000CB49086008460068012109040843C849D0
:1023500008600EE036E0C6480068012109048843A1
:10236000C349086008460068012189048843C049C0
:10237000086000BF6068002812D0FFF767FC0546C0
:1023800006E0FFF763FC401B642801D903208FE7B8
:10239000B74800680121490408400028F1D011E045
:1023A000FFF754FC054606E0FFF750FC401B64288D
:1023B00001D903207CE7AE480068012149040840A8
:1023C0000028F1D1022120680840022862D1A848E3
:1023D00040680C21084000280CD0A54840680840FF
:1023E00008281CD1A2484068490308400121C903BC
:1023F000884214D19E48006802210840002804D079
:10240000E068012801D0012052E799480068F821CE
:1024100088432169C9000843954908603AE0E068AB
:10242000002820D0924800680121084390490860A4
:10243000FFF70CFC054606E0FFF708FC401B64288C
:1024400001D9032034E78A480068022108400028A7
:10245000F2D087480068F82188432169C900084301
:102460008349086016E082480068400840008049BF
:102470000860FFF7EBFB054606E0FFF7E7FB401BB4
:10248000642801D9032013E7794800680221084035
:102490000028F2D1082120680840082831D1206A9C
:1024A000002817D07248406A0121084370494862E9
:1024B000FFF7CCFB054606E0FFF7C8FB401B64288E
:1024C00001D90320F4E66A48406A02210840002846
:1024D000F2D016E06648406A40084000644948620D
:1024E000FFF7B4FB054606E0FFF7B0FB401B64288E
:1024F00001D90320DCE65E48406A0221084000283A
:10250000F2D1042120680840042870D100BF584847
:10251000C069890608435649C8610846C06909046C
:102520000840009000BF00BF5248006809150843EA
:1025300050490860FFF78AFB054606E0FFF786FB77
:10254000401B642801D90320B2E64A480068FF21F5
:10255000013108400028F1D000BF4548006A40081A
:102560004000434908620846006A04218843404904
:10257000086200BFFFF76AFB054607E0FFF766FB4E
:10258000401B3D49884201D9032091E63848006A42
:10259000022108400028F1D100BFA068012806D11F
:1025A0003348006A01210843314908622CE0A068E1
:1025B00000280CD12E48006A400840002C490862CF
:1025C0000846006A04218843294908621CE0A06883
:1025D00005280DD12648006A0421084324490862D1
:1025E0000846006A01210843214908620CE034E0F2
:1025F0001F48006A400840001D4908620846006AFA
:10260000042188431A49086200BFA068002812D03C
:10261000FFF71CFB054607E0FFF718FB401B1649B8
:10262000884201D9032043E61148006A022108408C
:102630000028F1D011E0FFF709FB054607E0FFF79E
:1026400005FB401B0C49884201D9032030E60848AD
:10265000006A022108400028F1D1102120680840BA
:10266000102860D1606901282DD10148406B05E038
:10267000001002400070004088130000042108434D
:102680008E4948630846406B012108438B494863E3
:10269000FFF7DCFA054606E0FFF7D8FA401B64288E
:1026A00001D9032004E68548406B02210840002838
:1026B000F2D08248406BF8218843A169C9000843E1
:1026C0007E4948632FE06069401D00280FD17B4898
:1026D000406B04218843794948630846406BF821E0
:1026E0008843A169C9000843744948631BE07348E3
:1026F000406B04210843714948630846406B400819
:1027000040004863FFF7A2FA054606E0FFF79EFA8D
:10271000401B642801D90320CAE56848406B0221A8
:1027200008400028F2D1202120680840202852D1FA
:10273000624840680C2108400C280AD05F48406875
:102740000840082811D15D48406849030840884284
:102750000BD15A48406B01210904084000283AD0A7
:10276000E069012837D00120A2E5E069002819D0EE
:102770005248406B01210904084350494863FFF760
:1027800065FA054606E0FFF761FA401B642801D9A7
:1027900003208DE54948406B0121090408400028C9
:1027A000F1D018E04548406B0121090488434349B2
:1027B0004863FFF74BFA054606E0FFF747FA401B70
:1027C000642801D9032073E53C48406B01210904CA
:1027D00008400028F1D1606A00286CD03748406872
:1027E0000C210840082864D0606A022847D1334889
:1027F000006801210906884330490860FFF726FA7E
:10280000054606E0FFF722FA401B642801D90320A1
:102810004EE52A4800680121490608400028F1D108
:1028200000BF2648C06A00090001216B0843234904
:10283000C862A16AE06A0843204949687B22D20342
:10284000914308431D49486000BF084600680121C4
:102850000906084319490860FFF7F8F9054606E03C
:10286000FFF7F4F9401B642801D9032020E5134841
:1028700000680121490608400028F1D01BE00F48FC
:1028800000680121090688430C490860FFF7DEF95A
:10289000054606E0FFF7DAF9401B642801D903205A
:1028A00006E5064800680121490608400028F1D1E4
:1028B00001E00120FCE40020FAE4000000100240E6
:1028C00070B504462546681E0949884201D9012091
:1028D0000CE0681E074948610321081F01F0B6FAA1
:1028E00000200449886107200861002070BD0000B5
:1028F000FFFFFF0000E000E070477047024600BFA6
:102900003820805C012801D1022070470123382043
:10291000835400BF02233920835410684068702319
:10292000984313685860106840680B681843136830
:102930005860106880688023984313689860106816
:1029400080684B68184313689860012339208354CA
:1029500000BF00233820835400BF0020D5E710B506
:102960000446002C01D1012010BD3920005D002853
:1029700005D1002138200155204600F00DF8022134
:1029800039200155211D206801F024FC0121392046
:1029900001550020E8E7000010B586B00446214943
:1029A000206888421BD100BF1F48C069022108432C
:1029B0001D49C8610846C06902210840009000BF57
:1029C00000BFFF20413001900220029000200390C0
:1029D0000490059001A91548FFF734F820E0144948
:1029E000206888421CD100BF0F488069012109047A
:1029F00008430D498861084680690121090408409F
:102A0000009000BF00BF042001900220029000202F
:102A100003900490059001A90920C006FFF712F861
:102A200006B010BD0004004000100240000800483D
:102A300000400140F8B504460D46002600BF38208E
:102A4000005D012801D10220F8BD01213820015587
:102A500000BF022139200155206886687721304661
:102A600088430646FF21090230468843064620680F
:102A70008660286850283ED00CDC202863D004DC17
:102A8000002856D0102868D158E0302860D040285F
:102A900063D144E0602838D070280DD001210903AB
:102AA000401A02D0401A58D117E020688068C00848
:102AB000C0002168886051E0EB686A68A9682068F6
:102AC00001F0E8FB20688668772130468843064697
:102AD000772006432068866040E0EB686A68A96852
:102AE000206801F0D7FB2068806801218903084332
:102AF0002168886032E0EA686968206801F04AFD70
:102B00005021206801F0D5FB28E0EA686968206858
:102B100001F05BFD6021206801F0CBFB1EE0EA685C
:102B20006968206801F036FD4021206801F0C1FB92
:102B300014E00021206801F0BCFB0FE010212068A8
:102B400001F0B7FB0AE02021206801F0B2FB05E0AC
:102B50003021206801F0ADFB00E000BF00BF012183
:102B60003920015500BF00213820015500BF002049
:102B70006AE7704710B504462068006902210840E2
:102B8000400800281CD02068C06808404008002881
:102B900016D0481F216808610120207620688069CE
:102BA0008007800F002803D02046FFF7E2FF05E0F2
:102BB000204600F0C3F8204600F0B4F9002020764B
:102BC0002068006904210840800800281DD0206882
:102BD000C06808408008002817D0C84321680861F1
:102BE000022020762068806903210902084000281D
:102BF00003D02046FFF7BDFF05E0204600F09EF819
:102C0000204600F08FF90020207620680069082116
:102C10000840C00800281CD02068C0680840C008D0
:102C2000002816D0C8432168086104202076206857
:102C3000C0698007800F002803D02046FFF799FF66
:102C400005E0204600F07AF8204600F06BF90020FD
:102C500020762068006910210840000900281DD056
:102C60002068C06808400009002817D0C8432168C0
:102C70000861082020762068C06903210902084005
:102C8000002803D02046FFF774FF05E0204600F03F
:102C900055F8204600F046F90020207620680069AB
:102CA000C007C00F01214840484000280CD02068D0
:102CB000C068084048404840002805D0C81E216828
:102CC0000861204600F0BAF92068006980210840B8
:102CD000C00900280BD02068C0680840C00900283F
:102CE00005D0C843216808612046FFF705FE20682B
:102CF000006940210840800900280BD02068C06886
:102D000008408009002805D0C84321680861204692
:102D100000F095F92068006920210840400900284A
:102D20000BD02068C06808404009002805D0C8437F
:102D3000216808612046FFF7E0FD10BD704770B5BF
:102D400004460D46164600BF3820005D012801D11B
:102D5000022070BD01213820015500BF0221392019
:102D60000155002E06D0042E1BD0082E33D00C2E79
:102D700062D147E02946206801F0A8FA20688069FE
:102D800008210843216888612068806904218843FC
:102D90002168886120688069296908432168886101
:102DA0004BE02946206801F0EBFA20688069012198
:102DB000C90208432168886120688069012189026D
:102DC000884321688861206880692969090208436D
:102DD0002168886131E02946206801F035FB2068D0
:102DE000C069082108432168C8612068C0690421BE
:102DF00088432168C8612068C0692969084321683F
:102E0000C8611AE02946206801F080FB2068C0698B
:102E10000121C90208432168C8612068C0690121F5
:102E2000890288432168C8612068C069296909024C
:102E300008432168C86100E000BF00BF01213920BC
:102E4000015500BF00213820015500BF002080E758
:102E500010B50446002C01D1012010BD3920005DC1
:102E6000002805D1002138200155204600F00CF83B
:102E7000022139200155211D206801F0ABF9012103
:102E8000392001550020E8E710B586B004462149F5
:102E9000206888421BD100BF1F48C0690221084337
:102EA0001D49C8610846C06902210840009000BF62
:102EB00000BFFF20413001900220029000200390CB
:102EC0000490059001A91548FEF7BCFD20E01449C7
:102ED000206888421CD100BF0F4880690121090485
:102EE00008430D49886108468069012109040840AA
:102EF000009000BF00BF042001900220029000203B
:102F000003900490059001A90920C006FEF79AFDE0
:102F100006B010BD00040040001002400008004848
:102F2000004001407047000030B504460D460122C4
:102F30002946206801F0A0F91149206888420BD089
:102F400010492068884207D00F492068884203D082
:102F50000E492068884201D1012000E000200028AD
:102F600006D02068406C0121C903084321684864E9
:102F7000206800680121084321680860002030BDF6
:102F8000002C014000400140004401400048014045
:102F900030B504460D4600222946206801F06CF940
:102FA0002149206888420BD020492068884207D0F8
:102FB0001F492068884203D01E492068884201D1F9
:102FC000012000E00020002814D000BF2068006A23
:102FD0001949084000280CD12068006A891008406F
:102FE000002806D12068406C0121C903884321686C
:102FF000486400BF00BF2068006A0F4908400028ED
:103000000BD12068006A89100840002805D120688B
:103010000068400840002168086000BF0121392095
:103020000155002030BD0000002C0140004001404F
:1030300000440140004801401111000070477047F2
:103040007047704710B504462068C069C007C00FBC
:1030500000280FD020680068FF21013108400028B7
:1030600008D0012021680862E06E01210843E06673
:10307000692001552068C0690221084000280FD04E
:1030800020688068C007C00F002809D0022021688E
:103090000862E06E04210843E066012169200155C1
:1030A0002068C0690421084000280FD0206880688B
:1030B000C007C00F002809D0042021680862E06E14
:1030C00002210843E0660121692001552068C0699A
:1030D0000821084000280FD020688068C007C00F72
:1030E000002809D0082021680862E06E0821084302
:1030F000E066012169200155E06E002802D02046DB
:10310000FFF79FFF2068C0690121090508400028DA
:103110000ED02068806889000840002808D08810F8
:10312000216808620121692001552046FFF788FFC8
:103130002068C0692021084000280DD02068006860
:103140000840002808D0204601F032FB2068806942
:1031500008210843216888612068C06980210840EF
:10316000002807D0206800680840002802D02046C8
:1031700001F0B0FC2068C06940210840002807D059
:10318000206800680840002802D0204601F0F2FACA
:1031900010BD10B50446002C01D1012010BDA0695E
:1031A000002800D000E000BF6920005D002805D1A4
:1031B000002168200155204600F02CF802216920EA
:1031C00001552068006840084000216808602046DA
:1031D00001F042FB012800D1E0E7606A002802D03C
:1031E000204601F00DFA206840680921C902884391
:1031F00021684860206880682A21884321688860A7
:10320000206800680121084321680860204601F019
:103210006FFAC3E710B586B00446AF49206888420C
:1032200025D100BFAD488069012189030843AB491E
:10323000886108468069012189030840009000BF29
:1032400000BFC020019002200290012003900020C6
:103250000490059001A9A248FEF7F4FB0022114654
:103260001B20FEF731FD1B20FEF722FD31E19D49B9
:103270002068884227D100BF9848C06901214904CD
:1032800008439649C8610846C069012149040840BD
:10329000009000BF00BF0C2001900220029001208E
:1032A0000390002004900120059001A90920C00688
:1032B000FEF7C8FB002211461C20FEF705FD1C206E
:1032C000FEF7F6FC05E188492068884226D100BF58
:1032D0008248C0690121890408438049C8610846C1
:1032E000C069012189040840009000BF00BF02208E
:1032F00002900120039000200490302001900120D2
:10330000059001A97948FEF79DFB002211461D207A
:10331000FEF7DAFC1D20FEF7CBFCDAE074492068EA
:10332000884227D100BF6D48C0690121C904084304
:103330006A49C8610846C0690121C9040840009073
:1033400000BF00BF022002900120039000200490E3
:103350000320800201900020059001A96348FEF738
:1033600071FB002211461D20FEF7AEFC1D20FEF76A
:103370009FFCAEE05F49206888422ED100BF5748CD
:10338000C0690121090508435449C8610846C0695C
:10339000012109050840009000BF00BF02200290F3
:1033A0000120039000200490081201900220059053
:1033B00001A94E48FEF746FB04200190022005902B
:1033C00001A94D48FEF73EFB002211461D20FEF7E5
:1033D0007BFC1D20FEF76CFC7BE04849206888429E
:1033E00025D100BF3D488069202108433B498861C1
:1033F0000846806920210840009000BF00BF3020AF
:1034000001900220029001200390002004900520EA
:10341000059001A90920C006FEF714FB0022114601
:103420001D20FEF751FC1D20FEF742FC51E03449FF
:103430002068884224D100BF284880694021084381
:10344000264988610846806940210840009000BFF5
:1034500000BFC020019002200290012003900020B4
:1034600004900120059001A92048FEF7EBFA002204
:1034700011461D20FEF728FC1D20FEF719FC28E050
:1034800020492068884224D100BF144880698021E7
:1034900008431249886108468069802108400090ED
:1034A00000BF00BF03200002019002200290012013
:1034B0000390002004900120059001A90B48FEF71D
:1034C000C1FA002211461D20FEF7FEFB1D20FEF76B
:1034D000EFFB06B010BD00000038014000100240B4
:1034E0000004004800440040004800400008004834
:1034F000004C004000500040000C00480014014007
:1035000000180140001C0140FFB581B004460D4683
:1035100016466920005D012803D06920005D12284D
:1035200075D1002D01D0002E02D1012005B0F0BDD3
:1035300000BF6820005D012801D10220F6E70121CB
:103540006820015500BF0020E0666920005D122858
:1035500003D132216920015502E022216920015561
:10356000582006535A20065300BF01210903A068C2
:1035700088420AD12069002803D135495C200153D3
:1035800020E0FF215C2001531CE0A06800280AD144
:103590002069002803D1FF215C20015312E07F2124
:1035A0005C2001530EE001210907A068884209D17F
:1035B0002069002803D17F215C20015302E03F21D4
:1035C0005C20015300BF5C20005B009027E05A2084
:1035D000005B401E81B25A20015300222021204668
:1035E000049B01F0B4FA002801D003209EE70121DA
:1035F0000903A06888420BD12069002808D12F4612
:103600002068808C009908403880AD1C07E01CE0E1
:103610002068808C0099C9B2084028706D1C5A201F
:10362000005B0028D3DC6920005D322803D1122121
:103630006920015502E001216920015500BF0021E8
:103640006820015500BF002070E702206EE70000EF
:10365000FF01000038B50446002000902046FDF729
:10366000D7FE800004490D586946284602F0A9FF9C
:1036700001200249087038BDF801002059000020DF
:10368000FFB581B004460D4616466920005D01284D
:1036900003D06920005D222867D1002D01D0002EC3
:1036A00002D1012005B0F0BD00BF6820005D0128F7
:1036B00001D10220F6E701216820015500BF00205A
:1036C000E0666920005D222803D13221692001557E
:1036D00002E0122169200155502006535220065362
:1036E00023E05220005B401E81B252200153002291
:1036F00080212046049B01F02AFA002801D00320F3
:10370000D0E701210903A06888420AD12069002876
:1037100007D12F463888C005C00D21680885AD1C2B
:1037200003E028786D1C216808855220005B002882
:10373000D7DC002240212046049B01F008FA002833
:1037400001D00320AEE76920005D322803D1222199
:103750006920015502E001216920015500BF0021C7
:103760006820015500BF00209CE702209AE710B5B1
:1037700003466920C05C012803D06920C05C222870
:1037800035D1002901D0002A01D1012010BD00BF90
:103790006820C05C012801D10220F7E701246820DD
:1037A000C45400BFD9645020C2525220C2520020DB
:1037B000D8666920C05C222803D132246920C45411
:1037C00002E012246920C454186880680124204350
:1037D0001C68A06000BF00246820C45400BF1868A3
:1037E0000068802420431C6820600020CEE702206F
:1037F000CCE7000038B50446002000902046FDF7D5
:1038000007FE800004490D586946284602F0D9FE9B
:1038100001200249087038BDF80100205A0000203C
:1038200000B585B04020009001200190002002905A
:103830000320039069460920C006FEF703F905B08E
:1038400000BD00000EB51148114908600020486015
:1038500000210F488160C1600121016104214161A3
:1038600000218161C16101624162C1620163012184
:103870004163FDF703FF082000904002019000041F
:10388000029069460248FDF71BFE0EBD0024014070
:103890005C05002000B58BB000204B4A00900290E0
:1038A000034601920390802248A14B4803F088F818
:1038B00000204A4A00900290012301920390802246
:1038C00047A1494803F07CF80020484A0090029044
:1038D000022301920390802245A1434803F070F82F
:1038E0000020454A00900290032301920390802219
:1038F00042A13D4803F064F80020424A0090029043
:1039000004230192039080223FA1374803F058F826
:1039100000203F4A009002900523019203908022EC
:103920003CA1314803F04CF800203C4A0090029042
:10393000062301920390802239A12B4803F040F81E
:103940000020394A0123029000930192039003461C
:10395000802236A1394803F033F800200A90012173
:103960000AA801F07DFD3649486000200990012138
:1039700009A801F075FD32498860002008900121F6
:1039800008A801F06DFD2E49C860002007900121B4
:1039900007A801F065FD2A49086100200690012171
:1039A00006A801F05DFD264948610020059001212F
:1039B00005A801F055FD2249886102F08BF902F05B
:1039C000A9F90BB000BD0000080000204465666145
:1039D000756C745461736B00613F00081000002027
:1039E00050315461736B0000C53E00081400002084
:1039F00050325461736B0000180000205033546142
:103A0000736B00001C00002050345461736B000085
:103A10002000002050355461736B0000240000200A
:103A200050365461736B00000C00002046726F6EBC
:103A300074456E645461736B0000000055130008F8
:103A4000F801002008B500BF1F4840690121490462
:103A500008431D494861084640690121490408405E
:103A6000009000BF00BF00BF1748406949000843ED
:103A700015494861084640690121890408400090C1
:103A800000BF00BF00BF10484069490008430E490D
:103A90004861084640690121C9040840009000BF00
:103AA00000BF00BF08484069490008430649486113
:103AB00008464069012109050840009000BF00BF89
:103AC000FFF7AEFE08BD0000001002400EB500BFBB
:103AD0001448C069012108431249C8610846C069F9
:103AE000C007C00F009000BF00BF88040E490860E7
:103AF0000020486000210C4881603021C160FEF741
:103B00002EFF00200190029001A90748FEF7F6FE63
:103B1000002211460F20FEF7D7F80F20FEF7C8F855
:103B20000EBD0000001002402402002000B58DB040
:103B30001848194908603020486000211648816003
:103B40001649C16000210161FEF709FF0120000351
:103B5000099009A91048FEF76DFF0F48FFF778F9A3
:103B600000200790089007A90B48FEF7C7FE6020C9
:103B700000900020019002900490002269460648BF
:103B8000FFF7DDF8082269460348FFF7D8F80DB0C3
:103B900000BD000000040040B8050020204E0000D9
:103BA0000EB500BF1048C069202108430E49C86106
:103BB0000846C06920210840009000BF00BF0B48A4
:103BC0000B490860302048601021094881600121BC
:103BD000C160FEF7C4FE00200190029001A90448D4
:103BE000FEF78CFE0EBD00000010024000140040E5
:103BF0006002002010B500F00BF800F027F800F08C
:103C00007FF800F09BF800F03FF800F05BF810BD83
:103C100010B50C480C490860E12000034860002101
:103C200009488160C16001610C214161002181610D
:103C3000C16101620020044948620846FFF7A9FA01
:103C400010BD000000440040AC02002010B50C483C
:103C50000C490860E12000034860002109488160A8
:103C6000C16001610C21416100218161C16101627A
:103C70000020044948620846FFF78BFA10BD000097
:103C8000004800401C03002010B50C480C49086097
:103C9000E12000034860002109488160C1600161A2
:103CA0000C21416100218161C16101620020044950
:103CB00048620846FFF76DFA10BD0000004C004056
:103CC0008C03002010B50C480C490860E12000036B
:103CD0004860002109488160C16001610C21416197
:103CE00000218161C16101620020044948620846E7
:103CF000FFF74FFA10BD000000500040FC03002009
:103D000010B50C480C490860E12000034860002110
:103D100009488160C16001610C214161002181611C
:103D2000C16101620020044948620846FFF731FA88
:103D300010BD0000001801406C04002010B50C48B4
:103D40000C490860E12000034860002109488160B7
:103D5000C16001610C21416100218161C161016289
:103D60000020044948620846FFF713FA10BD00001E
:103D7000001C0140DC040020FEB504460D46012C69
:103D800004D0032C1ED0042C54D137E02B492846F4
:103D9000FCF7BFFA29490090FCF751FB2849019034
:103DA000FCF710FB074601218907FCF748FB244973
:103DB0000290FCF7AEFA0646FCF77FFB2149096842
:103DC000486338E01D492846FCF7A3FA1B490090D8
:103DD000FCF735FB1A490190FCF7F4FA0121890739
:103DE0000290FCF72CFB07461549FCF792FA0646B1
:103DF000FCF763FB1449096848631CE00F49284637
:103E0000FCF787FA0D490090FCF719FB0C4901906B
:103E1000FCF7D8FA012189070290FCF710FB07464E
:103E20000749FCF776FA0646FCF747FB064909689E
:103E3000C86300E000BF00BFFEBD00000000AC4250
:103E400000007A44F4050020B805002010B50028D1
:103E500019DA1A4A03071B0F083B9B089B00D2582C
:103E60008307DC0EFF23A3409A438B071B0E8407B6
:103E7000E40EA3401A43114B0407240F083CA40886
:103E8000A4001A5118E00E4A03231B02D21883081B
:103E90009B00D2588307DC0EFF23A3409A438B0775
:103EA0001B0E8407E40EA3401A43054B032424028F
:103EB0001B198408A4001A5110BD00001CED00E07D
:103EC00000E100E01CB5054600200190ECB200BF07
:103ED0001348005D002807D132200346012201A9C2
:103EE0000090204601F056FD684600790D280ED15D
:103EF000002001900B480470022009490855002356
:103F0000022219460848006801F072FF05E0684681
:103F10000079002801D00020019001F0CFFED7E702
:103F2000510000205B000020A0000020704700002E
:103F300010B500240948FDF713FD00BF0021C94357
:103F40000648FDF79BFC0028F8D10448FDF78EFBDE
:103F500084B20248FDF740FD204610BD5C050020FC
:103F600000BF7D20C00001F069FAFAE710B50446F1
:103F7000012C04D0032C0CD0042C1ED113E07D2086
:103F8000C0000F490968486300210D48FEF7CCFFC7
:103F900014E07D20C0000B490968486300210948EE
:103FA000FEF7C2FF0AE07D20C00006490968C86329
:103FB00008210448FEF7B8FF00E000BF00BF10BDB5
:103FC000F4050020B8050020F8B504460D46012C84
:103FD00004D0032C19D0042C45D12DE023492846C8
:103FE000FCF72DFA22490090FCF7ECF9074620492E
:103FF000FCF78FF90646FCF760FA1E49096848632A
:1040000000211C48FEF790FF2EE018492846FCF7D7
:1040100016FA17490090FCF7D5F907461449FCF742
:1040200078F90646FCF749FA134909684863002104
:104030001148FEF779FF17E00C492846FCF7FFF915
:104040000B490090FCF7BEF907460949FCF761F9F6
:104050000646FCF732FA08490968C8630821064891
:10406000FEF762FF00E000BF00BFF8BD0000AC42F9
:1040700000007A44F4050020B805002010B504467D
:10408000012C04D0032C07D0042C0FD109E000210F
:104090000848FEF77DFF0AE000210748FEF778FF99
:1040A00005E008210448FEF773FF00E000BF00BFF1
:1040B00010BD0000F4050020B805002010B5FDF784
:1040C000CBFD01F045FA10BD00B599B012200C905F
:1040D00001200F9011901020109012900220159046
:1040E00081031691C1041791002118910CA8FEF7C5
:1040F000B9F8012008900220099000200A900B9046
:10410000012108A8FDF7A8FE0E48019000200390A9
:104110000490059001A8FDF7E1FD00BF0A48806901
:10412000012108430849886108468069C007C00F1B
:10413000009000BF00BF00221146501EFDF7C4FDD5
:1041400019B000BD030004000010024019480068C7
:10415000012108431749086008464068164908408D
:10416000144948600846006814490840114908602D
:10417000084600680121890488430E490860084602
:1041800040683F21090488430A4948600846C06ADC
:1041900000090001C8620846006B0949084005494A
:1041A00008630846406B4008400048630020886070
:1041B00070470000001002400CB8FF08FFFFF6FE39
:1041C000ACFEF0FF10B50248FEF7D4FC10BD0000B5
:1041D0002402002010B500220268214B984206D02C
:1041E00001239B07984202D01E4B984205D17024B0
:1041F0001346A3431A464B681A43194B984212D0F0
:1042000001239B0798420ED0164B98420BD0164BB9
:10421000984208D0154B984205D0154B984202D0D1
:10422000144B984206D1032424021346A3431A4692
:10423000CB681A4302608B68C3620B688362084BC9
:10424000984208D0094B984205D0094B984202D0B9
:10425000084B984201D10B6903630123436110BDF0
:10426000002C0140000400400020004000400140BC
:10427000004401400048014030B5002301248C4037
:104280002346046A9C430462046A15468D402C430D
:10429000046230BD70B50C4600218168FF263602ED
:1042A0000D46B54329461D02154325432943816028
:1042B00070BD10B50A460021816870240B46A343E7
:1042C0001946072313431943816010BD70B50024BC
:1042D00000220023056A6D086D000562026A4368CA
:1042E000846970262546B5432C46A408A4000D68B1
:1042F0002C4302261546B5432A468D682A431C4D99
:10430000A84200D10BE01B4DA84200D107E01A4D96
:10431000A84200D103E0194DA8420AD100BF0826E7
:104320001546B5432A46CD682A4304261546B543AB
:104330002A460F4DA84208D00E4DA84205D00E4D7A
:10434000A84202D00D4DA8420CD1FF2601361D46D1
:10435000B5432B4676001D46B5432B464D692B438E
:104360008D692B43436084614D684563026270BD73
:10437000002C014000400140004401400048014041
:1043800070B5002400220023056A1026B54305629B
:10439000026A43688469072636032546B5432C46DE
:1043A000032636022546B5432C460D682D022C43C4
:1043B00020261546B5432A468D682D012A431E4DF9
:1043C000A84200D10BE01D4DA84200D100BF1C4DFA
:1043D000A84200D100BF1B4DA8420BD10AE08026A5
:1043E0001546B5432A46CD682D012A434026154679
:1043F000B5432A46104DA84208D0104DA84205D01A
:104400000F4DA84202D00F4DA8420ED10126B60290
:104410001D46B5432B4676001D46B5432B464D69D8
:10442000AD002B438D69AD002B43436084614D6823
:104430008563026270BD0000002C01400040014015
:10444000004401400048014070B5002400220023D0
:10445000056AFF260136B5430562026A4368C469EE
:1044600070262546B5432C46A408A4000D682C43AD
:10447000012676021546B5432A468D682D022A4349
:104480001E4DA84200D10BE01D4DA84200D100BF37
:104490001C4DA84200D100BF1B4DA8420CD10BE01F
:1044A0000126F6021546B5432A46CD682D022A4359
:1044B00076101546B5432A46104DA84208D0104D37
:1044C000A84205D00F4DA84202D00F4DA8420ED1F0
:1044D000012636031D46B5432B4676001D46B543DF
:1044E0002B464D692D012B438D692D012B434360D4
:1044F000C4614D68C563026270BD0000002C0140BC
:1045000000400140004401400048014070B50022D5
:1045100000230024056A01263603B5430562036AB9
:104520004468C269072636031546B5432A46032662
:1045300036021546B5432A460D682D022A43012648
:1045400076031D46B5432B468D682D032B430D4D39
:10455000A84208D00C4DA84205D00C4DA84202D06C
:104560000B4DA84207D10126B6032546B5432C467C
:104570004D69AD012C434460C2614D68056403621E
:1045800070BD0000002C014000400140004401408B
:104590000048014070B50B46144600210022026A13
:1045A000056A6D086D0005628169F0260D46B54308
:1045B0002946250129430A261546B5432A461546AC
:1045C0001D432A468161026270BD70B50B461446D8
:1045D00000210022056A1026B54305628169026A3E
:1045E0000F2636030D46B543294625032943A02649
:1045F0001546B5432A461D012A438161026270BDFA
:10460000818CC907C90F002908D0016849680122B7
:1046100052049143826A1143026851600222416A46
:104620001140002907D001684968D2039143C26A4A
:104630001143026851600422416A1140002907D0E9
:104640000168496812049143026B1143026851608A
:104650000822416A1140002907D001684968120305
:104660009143426B1143026851601022416A11402C
:10467000002907D00168896812029143826B1143B7
:10468000026891602022416A1140002907D0016828
:10469000896812029143C26B114302689160402203
:1046A000416A1140002915D001684968920391437D
:1046B000026C11430268516001221205016C9142A3
:1046C00008D101684968032252059143426C1143A5
:1046D000026851608022416A1140002907D00168B8
:1046E000496812039143826C11430268516070471C
:1046F00010B504460020E0661B492068884207D0B8
:104700001A492068884203D019492068884221D17B
:10471000206800680821084008280AD17D23DB00B2
:1047200000228104204600F012FA002801D0032064
:1047300010BD206800680421084004280AD17D23A8
:10474000DB0000220105204600F001FA002801D01C
:104750000320EDE701216920015500BF00216820F9
:10476000015500BF0020E3E700380140004400404D
:104770000048004010B50446206800684021884386
:10478000216808606920005D322803D12221692058
:10479000015508E020688068400840002168886072
:1047A0000121692001552046FFF724F8002010BDA3
:1047B00070B504465C20065B6920005D222803D0AA
:1047C0006920005D322845D101210903A068884293
:1047D0000BD12069002808D1656D2068808C30409D
:1047E0002880606D801C606507E02068808CF1B2D5
:1047F0000840626D511C616510705A20005B401EBC
:1048000081B25A200153002922D12068006820215A
:104810008843216808606920005D322803D1122195
:10482000692001550FE020680068FF2101318843AD
:10483000216808602068806840084000216888601E
:104840000121692001552046FEF704FF002070BDBC
:104850000020FCE70220FAE7FEB5044600251026FA
:1048600000270020029001902169A0680843616937
:104870000843E16908430546206800688849084004
:1048800028432168086020684068032109038843A1
:10489000E168084321684860216AA0690843054629
:1048A000206880680B2109028843284321688860BA
:1048B00000BF7C492068884217D17B48006B800785
:1048C000800F002806D0012808D0022808D003282D
:1048D00008D101E0002607E0022605E0042603E0F7
:1048E000082601E0102600BF5CE07049206888427D
:1048F0001AD16D48006B032109040840002808D034
:1049000001210904401A08D0401A08D0401A08D1E1
:1049100001E0002607E0022605E0042603E0082661
:1049200001E0102600BF3DE06149206888421AD1AD
:104930005D48006B032189040840002808D001214C
:104940008904401A08D0401A08D0401A08D101E062
:10495000002607E0022605E0042603E0082601E021
:10496000102600BF1EE053492068884201D100266E
:1049700018E051492068884201D1002612E04F49D1
:104980002068884201D100260CE04D492068884209
:1049900001D1002606E04B492068884201D100265B
:1049A00000E0102600BF0121C903E06988423FD121
:1049B000042E1BD004DC002E07D0022E28D10EE0DE
:1049C000082E1DD0102E23D123E0FDF7C1FB40009F
:1049D00000906168FBF7E0FB80B202901CE03A486F
:1049E0006168FBF7D9FB80B2029015E0FDF7C2FBCE
:1049F000400000906168FBF7CFFB80B202900BE0B3
:104A0000012000046168FBF7C7FB80B2029003E05D
:104A100000BF0120019000BF00BF2C490298084050
:104A2000074602980007400F07432068C76035E03B
:104A3000042E1CD004DC002E07D0022E29D10EE05B
:104A4000082E1ED0102E24D124E0FDF781FB00900B
:104A50006168FBF7A1FB80B22168C8601DE01C48BB
:104A60006168FBF799FB80B22168C86015E0FDF72B
:104A700081FB00906168FBF78FFB80B22168C86002
:104A80000BE00120C0036168FBF786FB2168C8606A
:104A900003E000BF0120019000BF00BF0198FEBDF0
:104AA000F369FFEF0038014000100240004400406D
:104AB00000480040004C00400050004000140140FD
:104AC00000180140001C01400024F400F0FF000029
:104AD00000127A0001466920405C122803D0692048
:104AE000405C322831D15220405A00280DD108684C
:104AF0000068802398430B681860086800684023AA
:104B000018430B6818600020704701231B03886856
:104B100098420CD10869002809D1CA6C1088C005D8
:104B2000C00D0B681885C86C801CC86405E0CB6C90
:104B3000581CC86418780B6818855220405A401ECB
:104B400083B2522043520020DEE70220DCE7FFB5AB
:104B500081B004460E461D46FDF778F807460398D7
:104B6000002839D12DE0681C00282AD0002D04D05F
:104B7000FDF76CF8C01BA84223D92068006880218B
:104B800088432168086020680068202188432168E4
:104B9000086020680068FF210131884321680860AF
:104BA00020688068400840002168886001216920F1
:104BB000015500BF00216820015500BF032005B04A
:104BC000F0BD2068C0693040B04201D1012000E052
:104BD00000200028C7D037E02CE0681C002829D02E
:104BE000002D04D0FDF732F8C01BA84222D920685E
:104BF00000688021884321680860206800682021BF
:104C000088432168086020680068FF2101318843DB
:104C1000216808602068806840084000216888603A
:104C200001216920015500BF00216820015500BF06
:104C30000320C4E72068C0693040B04201D10120A0
:104C400000E000200028C8D10020B8E710B50024FB
:104C50000448FEF7F7F9002C03D0012000070249B1
:104C6000486010BDAC02002000ED00E010B500244B
:104C70000A48FEF7E7F90A48FEF7E4F90948FEF7A3
:104C8000E1F90948FEF7DEF90848FEF7DBF9002CE8
:104C900003D0012000070649486010BD1C03002016
:104CA0008C030020FC0300206C040020DC040020A6
:104CB00000ED00E00FB410B504A9074B02AA039859
:104CC00000F05AF8044602A9002000F08FFA2046AE
:104CD00010BC08BC04B01847ED5100082021020C9C
:104CE00001D010211046020A01D0104608390209ED
:104CF00001D01046091F820801D01046891E4208C3
:104D000001D0881E7047081A704730B47446641E7C
:104D10002578641CAB4204D3635D5B00E31830BCB0
:104D200018471D46F8E7000000487047B40000200F
:104D30000148006870470000B400002002E008C885
:104D4000121F08C1002AFAD170477047002001E005
:104D500001C1121F002AFBD1704700000149086001
:104D600070470000B400002030380A2801D201202A
:104D70007047002070470000FFB591B00F46054610
:104D8000002606E025280AD0149A139990476D1C36
:104D9000761C28780028F5D1304615B0F0BD0024E7
:104DA00000940121F34A029400E004436D1C2B7827
:104DB0000846203B98401042F7D128782A280ED088
:104DC000022128780246303A092A15D8009A0A2387
:104DD0005A43303A80180C436D1C0090F1E701CF24
:104DE0000090002805DA0120400304430098404267
:104DF0000090022004436D1C28782E2815D1042031
:104E0000044368786D1C2A280AD101CF6D1C0290DA
:104E10000BE002990A225143303940186D1C029070
:104E20002878014630390929F3D928786C2810D020
:104E300006DC4C281AD068280ED06A2817D104E066
:104E4000742813D07A2812D110E0012040050443C1
:104E50000CE00121090501E0032109050C436978F3
:104E6000814203D10120000524186D1C6D1C287897
:104E700003906E281ED00CDC632831D004DC00289F
:104E80008AD0582811D1B2E064287BD069280CD18F
:104E900078E073282DD004DC6F2870D0702804D1FE
:104EA000A7E075286CD078286BD0149A1399904796
:104EB000761C62E06002400F022807D003280AD067
:104EC000042838680AD006603F1D56E03868F1179C
:104ED00006604160F8E738680680F5E70670F3E79A
:104EE0003878694608740020487404A803900120AB
:104EF00003E0386803900020C0433F1D61070FD5D1
:104F0000002101E00199491C029A0191914213DAB2
:104F10008142F7DB019A0399895C0029F2D10BE009
:104F2000002101E00199491C01918142FADB019ABB
:104F30000399895C0029F5D101990098139A401AC8
:104F400000902146149B00F03BF901998019461806
:104F500007E0039803990078491C0391149A139968
:104F600090470198401E0190401CF2D12146149BAD
:104F7000139A009800F014F986196D1C09E741E0B6
:104F800033E034E00A200021049005916002410FD3
:104F9000022905D001CFC2179446032905D007E0A6
:104FA000FF1DFF08FF0003CF06E000B2C2179446C2
:104FB000042902D140B2C1178C46002261469445B3
:104FC00006DA0A460021404291418C462D2102E03A
:104FD000210504D52B216A461176012103E0E10762
:104FE00001D02021F7E7019154E00A200BE01020C6
:104FF00009E01020049000210420044308200591BA
:10500000029003E008200021059104906002410F06
:10501000022905D001CF00229446032906D006E0DC
:10502000FF1DFF08FF0003CF8C4603E080B2042978
:1050300000D1C0B20021019121072BD5039970291D
:1050400006D0049A1021059B4A401A4305D00EE071
:1050500040216A461176012108E06146014306D0ED
:1050600030216A4611760399517602210191049A02
:105070000821059B4A401A430CD16146014301D1E6
:10508000610707D530216A46117601210191029905
:10509000491E02910399582904D037A103910FA901
:1050A0000F910DE039A1F9E76146059B049AFBF7E2
:1050B00034FA039B8C469B5C0F9A521E0F9213701E
:1050C00061460143F0D10F9807A9081A20300390D8
:1050D000600704D5012000048443029801E0012008
:1050E00002900399884201DD401A00E00020411837
:1050F0000290019809180098401A0090E00306D425
:105100002146149B139A009800F05AF88619002043
:10511000049008E006A9085C149A13999047049833
:10512000401C761C049001998842F3DBE0030CD507
:105130002146149B139A009800F042F8861904E067
:10514000149A302013999047761C0299481E0290B9
:105150000029F5DC08E00F980F990078491C0F91A1
:10516000149A13999047761C0399481E03900029BE
:10517000F1DCFBE6092801003031323334353637B3
:105180003839616263646566000000003031323393
:105190003435363738394142434445460000000033
:1051A000F8B5044600251E461746880404D405E0D9
:1051B00039462020B0476D1C641EF9D52846F8BD3D
:1051C000FFB50446002581B01E46C80301D530272F
:1051D00000E02027880404D505E038460399B0474D
:1051E0006D1C641EF9D5284605B0F0BD0A68531C35
:1051F0000B601070704730B583B00446FFF798FD20
:105200000546002000900246019021466846FBF7C3
:10521000E0F92846FFF7A2FD0199009803B030BDE0
:1052200008B50446002C02D172B600BFFEE71A484A
:1052300002881A4801682046FFF73CFD18480168BB
:105240002046FBF707F82046FBF71DF885B2002043
:10525000C04332232A46214600901248007800F0CD
:105260008DFD11481149086300BF00BF00BF00BF9A
:1052700000BFBFF34F8F00BF00BF00BF0C480D49F8
:10528000C86000BF00BF00BFBFF34F8F00BF00BFAB
:1052900000BF00E000BFFDE74E00002068000020D6
:1052A000600000205B000020EFBEADDEC07F00206C
:1052B0000400FA0500ED00E000BFEFF305800028D0
:1052C00001D0012070470020FCE70000FBF726FF1B
:1052D00000210320FEF778FE00210420FEF774FE73
:1052E00006490320FEF748FD04490420FEF744FD6B
:1052F000FEF7D0FA00F0AFF800BFFEE70000A041D3
:10530000F7B586B007460020049003900290002F66
:1053100002D172B600BFFEE704AA01210898FBF78C
:1053200053FF044603AA02210898FBF74DFF0546E8
:1053300002AA03210898FBF747FF0646002C0AD073
:105340002078502802D02078702804D1601CFAF709
:10535000D3FF2B4908702BA13846FAF7A8FF002D80
:105360004BD029A12846039AFAF7AAFF002803D1B7
:1053700001202749087040E026A12846039AFAF741
:105380009FFF002803D102202149087035E023A1A6
:105390002846039AFAF794FF002803D105201C49F8
:1053A00008702AE01EA12846039AFAF789FF002810
:1053B00003D10620164908701FE01BA12846039A56
:1053C000FAF77EFF002803D107201149087014E086
:1053D00017A12846039AFAF773FF00280DD1082079
:1053E0000B490870002E08D03046FFF704FF0191EA
:1053F0000090FBF776F810490860002009B0F0BD76
:105400002A0000200D0A000073746172740000000D
:105410002900002073746F70000000006D696E0039
:105420006D617843570000006D6178434357000079
:1054300073706565640000002C00002070B50446A0
:105440002546002D01D0294600E00121084601F043
:10545000C6FC002070BD10B501F01DFF002010BD7E
:1054600070B506460C46012C0FD103220021012005
:1054700000F067FD0546002D05D000231A461946A9
:10548000284600F030FE284670BD0021204601F07D
:1054900018F8F9E738B50446002500200090FFF71A
:1054A0000BFF00280FD06946204601F08AF801283A
:1054B00001D0FF2038BD009800280DD00120000742
:1054C0000649486008E000231A461946204600F0C5
:1054D0000AFE012800D0FF252846EBE700ED00E09A
:1054E000F8B506460C4600200090002E01D1802021
:1054F000F8BD0025601C002801D1451E05E0002CE8
:1055000003D02546002D00D10125FFF7D5FE002848
:1055100010D06A460021304601F0A1F8012801D0E0
:10552000FF20E5E7009800280ED00120000707497A
:10553000486009E000232A461946304600F0E8FE9C
:10554000012801D0FF20D3E70020D1E700ED00E0E3
:1055500010B502F079F8012801D000F037FC10BD39
:1055600070B504460D461646002C02D172B600BF37
:10557000FEE70B4802880BA12046FFF79BFB0122A8
:1055800040210920C006FCF75BFBC820FFF756FF4F
:10559000002240210920C006FCF752FB002070BD0C
:1055A0004E00002048692066726F6D206D6F647533
:1055B0006C652025640D0A000146002000220AE0E7
:1055C0000B78202B05D1012A04D0431C58B20122AC
:1055D00000E00022491C0B78002BF1D1012A01D1F7
:1055E000431E58B27047000030B503231B03174811
:1055F0004407640F002C05D0C01DC008C000134C28
:10560000041B1B1B0246124C22600024104D6C60D0
:10561000D0180838C008C0000E4C206000240D4D82
:105620002D686C600B4D2D682C601146441A4C603F
:10563000084C24680C60084D4C682C60074D4C6881
:105640002C600124E407064D2C6030BD700600205C
:105650007000002078000020800000207C000020E6
:1056600084000020F8B506460D4617460E4800682F
:10567000002802D10D480C4908600B4800680068FA
:105680002A4641683046FAF7F1FD0748006840684D
:105690000549086008460068002801D1002400E0A0
:1056A00001242046F8BD000098000020880000205A
:1056B00000BF01F0C3FD034800680128F9D900F0DC
:1056C000FDFAF6E7BC00002010B50146164800E0E0
:1056D000006803688B42FBD3024643689B188B42E9
:1056E00004D143684C681B19436001460A464B6865
:1056F0009B180468A34211D10C4C03682468A34290
:1057000008D04B68046864681B194B6003681B6809
:105710000B6005E0054B1B680B6001E003680B6044
:10572000884200D0016010BD700000207800002089
:105730000B4909680968002901D1012100E0002115
:10574000002904D00021C943064A116006E004493B
:105750000968C968C868034A416811607047000059
:1057600070010020D8010020F8B504460F46094D0D
:10577000002C02D172B600BFFEE729462046FAF798
:1057800096FD2846FAF77FFD0619304602F042F8EA
:105790000020F8BDFC7D000810B57D21C90005483A
:1057A0000068FAF7F9FC401E0349486107200861C8
:1057B00010BD00003400002000E000E00748006851
:1057C000401C002801D1012000E00020002802D167
:1057D00072B600BFFEE772B600BFFEE76C000020A5
:1057E000F8B504460F46094D002C02D172B600BF31
:1057F000FEE729462046FAF75AFD2846FAF743FD08
:105800000619304601F0ACFF0020F8BD507E0008BC
:105810000EB50024611E012000F030F944480678DE
:1058200000200290FBF7CCFC019042480068FAF798
:105830002AFD87B232233A463E480168304600F0DE
:1058400081FA00BF0020C0433223012202A9009048
:10585000304600F09FF83223012202A9304600F0C2
:1058600071FA6846007A0D283ED133480068FAF78D
:105870000AFD87B232233A462F480168304600F0CD
:1058800061FA002C03D12D492D48FAF710FD00BF15
:10589000012292022A480199FBF7CAFC05460198A9
:1058A000FAF7F1FC87B20020C04332233A46009059
:1058B0003046019900F062FA002DE9D120491F48D5
:1058C000FAF7F5FC002432211D48FAF7B8FC1D4810
:1058D0000068FAF7D8FC87B232233A4619480168C3
:1058E000304600F02FFA20E06846007A0A281CD0E3
:1058F0006846007A082807D1002C16DD601E44B2E5
:1059000000200F49085510E06846007A20280CDB7B
:105910006846007A7E2808DC322C06DA6846007A6F
:1059200040B207490855601C44B200F0C7F989E746
:105930005B000020A4000020A8000020B03A002056
:105940007E3A0020AC00002070B505460E46314678
:105950002846FAF7ACFC2846FAF795FC044602E024
:1059600020202855641C0F2CFADB0020285528190C
:1059700070BD000006480068002806D00449096888
:1059800008465030096D491C0160014800687047A5
:10599000B8000020FFB581B004460F461E46012521
:1059A000A1000F4A50583146FFF79AFD002813D145
:1059B00009E02046FBF760FD009039460A9B039AF8
:1059C000FDF7A2FD0546002D01D0032DF1D1A10068
:1059D000034A5058FFF75EFD284605B0F0BD0000B1
:1059E000F8010020F8B504460E4617460025002CA5
:1059F00002D172B600BFFEE7FEF79AFA05462B46C3
:105A000004480288044801682046FFF753F9002043
:105A1000F8BD00004E00002064000020F8B57D2194
:105A2000C90012480068FAF7B7FB461E00BF00BF66
:105A300000BF0F488069371A01F059FC04460D4831
:105A40004068012189060840002803D0641C0848EA
:105A50008069371A0A2060430546074801683846BE
:105A6000FAF79AFB45192846F8BD000034000020DB
:105A700000E000E000ED00E004000020F8B506467C
:105A80000C4600F0F9F821480068806D00281DD10F
:105A900001211E48006840300177002C16D01B48B9
:105AA0000068001D00F038F8601C002806D1174877
:105AB0000168091D164800F0C2F805E015480068A5
:105AC0000719384601F066F900F0F8F800F0E2F83E
:105AD00000F0D2F80D480068856D002D0DD0002E25
