:020000040800F2
:10000000580E0020D1000008FB000008FD00000889
:1000100000000000000000000000000000000000E0
:10002000000000000000000000000000FF000008C9
:100030000000000000000000010100085550000809
:100040000501000805010008050100080501000878
:1000500005010008050100089D1800089F18000808
:10006000050100087512000885120008DD1200085D
:100070000501000805010008050100083D510008C0
:1000800059510008050100086951000805010008E0
:100090000501000805010008050100080501000828
:1000A0000501000805010008050100080501000818
:1000B000F9590008095A0008050100080348854657
:1000C00000F0CEFC0048004715970008580E0020AD
:1000D0000D480E49026800608A4203D00C488047F0
:1000E0000C4800470C480D4901600D480B49016060
:1000F0000C4801688D4640680047FEE7FEE7FEE7D2
:10010000FEE7FEE7FEE70000F07F0020EFBEADDE79
:10011000E1500008BD000008181002400100000076
:100120000000014000D8FF1F30B50B4601460020FB
:100130002022012409E00D46D5409D4205D31D46ED
:100140009540491B2546954040191546521E002DE5
:10015000F1DC30BD70B500242546002801DA012409
:100160004042002901DA01254942FFF7DDFFAC4298
:1001700000D04042002C00D0494270BD10B5202A6A
:1001800004DB0846203AD040002110BD0B46D34086
:10019000D0402024A21A91400843194610BD000007
:1001A0000048704754B9000810B50446FFF7F8FF3F
:1001B0000068005DC007C00F10BD00000549064A79
:1001C00008685043054A8018086040087047014994
:1001D00008607047B00000206D4EC6413930000005
:1001E00003460B439B0703D009E008C9121F08C050
:1001F000042AFAD203E00B780370401C491C521EFB
:10020000F9D27047D2B201E00270401C491EFBD205
:1002100070470022F6E710B513460A460446194611
:10022000FFF7F0FF204610BD421C0178401C00295A
:10023000FBD1801A704710B5002200E0521C835C8D
:100240008C5CA34201D1002BF8D1D8B2E1B2401AA4
:1002500010BD03460A780270401C491C002AF9D1DF
:100260001846704770B5064605F022FC046805463E
:100270000A220021304600F061F92C6070BD70B593
:10028000064605F015FC046805460A2200213046A2
:1002900000F054F92C6070BD024670B54A40D30F8F
:1002A000DB0740002DD04A002AD0010E140E0002B8
:1002B00012020919400A520A8418E50104465443FF
:1002C000000A120A2E045043A4194219200CC543F7
:1002D000AA18120C0125AD03521C521912047F39C1
:1002E000240400D0521C104301D44000491EC2B265
:1002F0000C06C0092018401C4008802A02D003E0E8
:10030000002070BD40084000002900DA002018439A
:1003100070BD70B502464A40D50F40004A00ED0757
:1003200040085208002814D0002A12D0C40DD30D62
:1003300041020120C0055202490A520AE41A091872
:1003400012187D34914201D3641C00E04900002C56
:1003500001DA002070BD0023914201D3891A0343C2
:10036000400849000028F7D100290AD0914202D163
:100370000121C90705E0914201D2012101E00121DB
:10038000C943E005C018401900F010F970BD10B560
:1003900000229623114600F011F910BD4A0009030E
:1003A0000123090B1B051943094B10B5520D9A4245
:1003B00001DA002010BD064B34339A4203DC9A1A4E
:1003C000FFF7DCFE10BD03495118884010BD000046
:1003D000FF030000CDFBFFFFC20FD2074000400823
:1003E0000BD0C10D0723DB01C91840020905400AE3
:1003F0001143C2084007114370470020014670476F
:10040000CB0FDB07490010B5490802460A4307D065
:100410000A0D07240903E401090B121B002A01DC61
:10042000002010BDC900440F0C43C100E018D205E4
:10043000801800F0BBF810BDF0B51FB406460020D0
:1004400082B005464024019100901BE001992246AC
:100450000F463046FFF792FE049A059B801A994199
:1004600010D310461946224600F00CFB361A8F4175
:100470000197224601200021009F00F003FB38185D
:100480004D4100902046641E0028DFDC019B00984F
:100490002946324607B0F0BD0FB400B589B00CA9AB
:1004A00000910B990023CB60204B214A06930792C1
:1004B000042201921F4A02921F4A089202466B468A
:1004C000002000F07EFB09B008BC04B0184770B5EE
:1004D00086B006460020C0430190002015460C4619
:1004E0000091029104903246694604A8FFF7D4FFB8
:1004F000034604982118002D05D0002801D00A4693
:1005000000E022462A6000280DD0002B02DD009872
:10051000884208D0081B0190009432466946029434
:1005200004A8FFF7B9FF06B070BD0000190E00085F
:10053000390E0008FFFFFF7FA9010008F7B5009CF6
:100540000F4600262578641C002D05D0FFF728FEF5
:100550000068405DC007F5D12B2D02D02D2D18D09D
:10056000641E39462046029A00F078FC002F04D021
:100570003968A14201D1009939607105022400292E
:100580000BDA4042002803DD05F092FA0460A00770
:10059000FEBD012080020643E3E70028F8DA05F0FB
:1005A00087FA04600048FEBDFFFFFF7F002904DAE0
:1005B000401C490001D140084000704770B400243D
:1005C000050C05D11024000402D1002921D01124EA
:1005D000050E01D100020834050F01D10001241DD0
:1005E000850F01D18000A41C002801DB4000641CA1
:1005F000002908D020252E1B0D46F540A14000D033
:1006000001212943084301061B1B000ADB1D02D5FB
:10061000002070BC7047DB05181880180029F8DA34
:10062000401C4900F5D170BC4008400070470000F4
:10063000F0B507460846584087B0C00F0490480000
:100640000E46590040084908BC1A884105D2384670
:1006500031461E4617460B460246580040081043D6
:100660004CD0300D039040055900400D490D0590C8
:10067000401A0290402872DA18030121000B090584
:100680000843019004980092002805D00199524235
:100690000020884100920190029840210A1A019995
:1006A000009800F0EFF905460C466B4607CB00F0CA
:1006B000F9F9C0197141039A0E0D0023D71756405E
:1006C0001A467A40164344D0049A002A2DD0029A42
:1006D000012A039A15DC1205C01A9141012636053C
:1006E000001C7141D20F059ED20700930192029621
:1006F0002A46234600F012FC07B0F0BD38463146CA
:10070000FAE71605224A0F46B218C01AB74101216E
:100710000905001C4F4100187F4111461818794106
:10072000E20F10436D19644113E0E2076D081543B1
:100730006408C2071443039A01261205C01A9141A6
:100740003605001C7141CE07400830434908C018E7
:1007500051412A46234600F0D4FBCDE7FFE7049839
:1007600001224000C117121A00238B410498314620
:10077000C417381AA141EEE730B40124E4076340FE
:1007800030BC55E730B40124E407614030BC4FE78A
:100790000000E0FFF0B51FB488B00B990998002461
:1007A00048400999C00F490049080991C0070B99B1
:1007B0000090490049080B9109990898A6460843FA
:1007C0001CD00B990A98084318D0099801244000BE
:1007D000420D4800410D099824050003000B2043F9
:1007E00009900B980003000B20430B9050181C49F4
:1007F0004018002201901446104605E000200146F2
:100800000DB0F0BD032801DA034600E003239C4647
:10081000C11A0AAE0AE05F0008ADED5B4F00F75B5E
:100820007D430027AA187C41491C5B1E6145F2DD0F
:10083000410004AB5A522104120C0A43240C401C00
:100840000828DFDB01980290009970460191009022
:10085000059B049A0799069800F060FBD0E700001A
:100860000DFCFFFFF0B50C465C4085B0E40FE407DB
:1008700003944C0000266408590094464908024637
:100880000296224321D062460A431ED06200570DD1
:100890004A000E032303550D012402462C4924056A
:1008A000781B1B0B360B40182343264361460090F0
:1008B0001C46501AB44103D30098401C009002E03B
:1008C000921800985B41002803DA0020014605B029
:1008D000F0BD0020012109050746864611E0644667
:1008E0001D46141BB54106D36546521BB3417446E1
:1008F00007430C43A646CD074008490828439218F1
:100900005B4105460D43EAD11046184313D06046BB
:10091000194650407140084306D06046101AB34152
:1009200006D20122002306E000220123DB0702E0B9
:100930000122D2435310009874460105381C6141CE
:10094000029C039D0019694100F0DBFABFE700003B
:10095000FD030000F8B50546480040080C46284352
:1009600004D06000184A400D904201DD2846F8BDD1
:1009700015493539884210DC88420BDB290D2003EC
:1009800008432903014305D0E00F1049C00741186F
:100990000020F8BD00200146F8BD161A4020821B39
:1009A0002846214600F06EF8074600912846214669
:1009B0003246FFF7E3FB3A46009B00F0A2FA3246CC
:1009C00000F060F8F8BD0000330400000000F03FC4
:1009D0004A0009030123090B1B0519430A4B10B5F3
:1009E000520D9A4202DA0020014610BD064B343304
:1009F0009A4203DC9A1AFFF7C1FB10BD034BD218D1
:100A000000F040F810BD0000FF030000CDFBFFFF29
:100A100010B5002904DB0124E40740428C41214643
:100A2000002B04DB1C460123DB075242A3418B420F
:100A300000D1824210BD000010B5002904DB012462
:100A4000E40740428C412146002B04DB1C46012375
:100A5000DB075242A341994200D1904210BD0000F1
:100A6000064C0125064E05E0E36807CC2B430C3C01
:100A700098471034B442F7D3FFF724FBBCC30008F7
:100A8000DCC3000810B5202A04DB0146203A91405F
:100A9000002010BD914020239C1A0346E3401943D7
:100AA000904010BD10B5202A06DBCB170846203A2F
:100AB0001041C1170B4306E00B461341D0402024E0
:100AC000A21A91400843194610BD0000FFB50878EE
:100AD00085B01546FF2805D0491C2D2804D00022DA
:100AE000002407E000240BE00122F9E70A235C431D
:100AF0000419491C0878FF28F8D1002A00D0644264
:100B0000002001902A7801462D2A01D02B2A04D1F9
:100B10006D1C2D2A0DD00022019200262F78FF2F68
:100B200009D00A2200236D1C00F04AFA38187141DE
:100B3000F4E70122F0E7089AA218039202460A435A
:100B40000DD00024B24AB14D2646009200F084FA3E
:100B5000049003980291002807DA47421AE0002126
:100B600005980A4606C009B0F0BD074612E0F8072E
:100B700007D022462B4630460099FFF70BFE06466B
:100B8000009122462B4610461946FFF703FE044605
:100B90000D467F10002FEAD10398009B0028029990
:100BA0000498324602DAFFF75DFE01E0FFF7F2FD3E
:100BB000019A002A02D00122D2075140059A03C2AD
:100BC000D1E7FFB591B0002009900025ED432E201C
:100BD0009E685C681F460190B9696D1C1298884731
:100BE0000090396A88470028F6D10098401C0AD046
:100BF0000D20C0018443002E12DD00982B2809D05F
:100C00002D280DD103E00020C04315B0F0BD012018
:100C100080020443B9696D1C12988847761E0090C3
:100C200003A9600501D52D2000E02B206A46107332
:100C3000491C0CA80F9102900AE0B9696D1C12982A
:100C4000884700900120400204431398761E0560F7
:100C5000002E02DD00983028EFD0019900988842DC
:100C600046D18020044308E00998401E09900120E5
:100C7000400204431399681C0860B9696D1C761E14
:100C80001298884700903028EED031E001998842D0
:100C900005D1200603D480200443761E1EE0009870
:100CA00004F0D2FF002826D001204002044307A907
:100CB0000F980331761E88420BD200980F99303876
:100CC00008700F98401C0F90200607D50998401E09
:100CD00003E0200602D40998401C0990A00502D523
:100CE0001399681C0860B9696D1C129888470090B8
:100CF000002ECBDC59E0002E57DD0098652801D08E
:100D0000452852D1A00550D5032000028443B9697B
:100D10006D1C761E129888470090002E0CDD2B2843
:100D200004D02D2808D1FF2001300443B9696D1C7F
:100D300012988847761E0090E00501D52D2100E02D
:100D40002B21029801700298401C0290019025E02E
:100D50000120400204430EA902980131761E884208
:100D60000ED20098029930380006000E087003D1A8
:100D70000299019881420AD90298401C029006E02B
:100D8000E00501D5234801E0224840420990B969B5
:100D90006D1C12988847009013980560002E04DDA2
:100DA000009804F051FF0028D2D1F96912988847C1
:100DB0000F99FF200870029903AA087000200A907A
:100DC0000B900CA90AA8099BFFF780FEA00502D48E
:100DD0000120C04319E72420044209D0E00713D1C1
:100DE00038680B9A0A99031D3B60006806C00BE047
:100DF0000B990A98FFF704FB0146E00704D1386815
:100E0000021D3A60006801602846FEE600002440AA
:100E10000000F03FF1D8FFFF4268002A08D00168C7
:100E20000B78491C002B03D0521E06C01846704791
:100E30000121C160881E70474268002A0BD0C36838
:100E40000168002B07D183688B4204D0491E521CD5
:100E500006C0002070470020C0437047F7B582B03D
:100E6000029C00272078641C15460197302802D088
:100E7000002D15D015E020780127641C782804D0B7
:100E8000582802D0002D09D00BE0002D01D0102DE4
:100E900007D1002710252078641C02E0082500E017
:100EA0000A250026009610E00099012769430818DA
:100EB000020C294680B2714300908E183804864295
:100EC00001D3012001902078641C294600F0B5F878
:100ED0000028E9DA0398002805D0002F01D0641E0D
:100EE00000E0029C04600198002806D004F0E0FDB8
:100EF00002210160C81E05B0F0BD0099300408430E
:100F0000F9E710B5002B08DA0024401C6141921863
:100F10005B411A4301D14008400010BDF0B51FB439
:100F200082B005460C0003D0084604F09DFD02E0A7
:100F300004F09AFD20300246009021462846FFF733
:100F4000A1FD049B059A04460F461843114308432C
:100F500014D0184610431BD0009840210A1A184696
:100F60000599FFF70BF905460E46009A0599049876
:100F7000FFF788FD084305D0012004E020463946EC
:100F800007B0F0BD0020C11705430E432C43374383
:100F900000990E986305401A7905E40A00220C4373
:100FA000FD0A0A3002D500200146E9E701051019C3
:100FB00069410C9C0D9D00196941FFF7A2FFDFE715
:100FC000F0B51FB486B00020009001900290069802
:100FD000069980B204900798090C0204001411438A
:100FE00007900027089D099806913E463C460390CD
:100FF0000398A9B20204000C039004982D0C154329
:10100000484300212246FFF73DFDC71971411034C6
:101010000E46402CECDB3846029AFFF733FD009A6F
:10102000019B801800905941029801911030029064
:101030004028CCDB00980BB0F0BD3A2800D2303805
:10104000202302469A43412A01D31046373888426A
:1010500001D30020C04370470EB5054A029200221A
:10106000009213460192FFF759FF03B000BD000044
:101070003304000070B504462068816849071FD515
:101080008168490706D58168890703D481681022E1
:101090001143816001F028FA05460DE001F024FAC1
:1010A000401B022808D9042141200155606C012110
:1010B00008436064012070BD206880684007EDD45B
:1010C000002070BDF8B50446206881688907890F43
:1010D00001292FD10168C90702D1C168090429D5A6
:1010E000816805222546114004264035012906D095
:1010F0006E70606C0121084360640120F8BD816856
:1011000002221143816021680320086001F0ECF99C
:1011100007460BE001F0E8F9C01B022806D96E7003
:10112000606C0121084360640120F8BD206880687C
:10113000C007EFD10020F8BDF8B5044600200090AC
:10114000206881688907890F012905D10168C907CD
:1011500030D1C16809042DD48168174A2546114051
:1011600040350126002906D004206870606C3043A9
:1011700060640120F8BD81683143816002E000981D
:10118000401C009000983028F9D301F0ADF90746D3
:101190000BE001F0A9F9C01B022806D904206870F1
:1011A000606C304360640120F8BD20680068C04373
:1011B000C007EED10020F8BD1700008010B501F087
:1011C000A1F903F05DFF01F053F800F029F903F0F5
:1011D000F3FD03F069FE02F0D5FC03F009FE03F015
:1011E0004BFE0924E40601224021204601F075F956
:1011F000FF20F53001F030F800224021204601F0B8
:101200006CF9642001F028F801224021204601F009
:1012100064F9642001F020F800224021204601F00A
:101220005CF9642001F018F801224021204601F009
:1012300054F9642001F010F800224021204601F00A
:101240004CF906A0FFF70EF8FEF7C1FF05F046F9CE
:1012500005F052F908F0EAF910BD000031323A33D6
:10126000363A32360000000010B505F05FF908F09C
:1012700057FA10BD10B5024800F012FC10BD000076
:10128000AC01002010B50F480168C943890607D496
:101290000D490978002903D00C4800F001FC10BD6D
:1012A0000B490968C943890503D40A4800F0F8FBD3
:1012B00010BD0068C0438006FAD4074800F0F0FB78
:1012C00010BD0000000402403F0000207401002017
:1012D00000000240E40100208C02002010B50D48FF
:1012E0000168C943890303D40B4800F0D9FB10BD42
:1012F0000068C043800203D4084800F0D1FB10BD51
:1013000007480068C0438005F9D4064800F0C8FBD0
:1013100010BD0000000002401C020020540200200A
:1013200000040240C402002010B5046863604368F2
:10133000102B04D0036899600068C26010BD036878
:101340009A600068C16010BD13490988134A128869
:10135000002816D0012801D0002070471048002A2C
:1013600003D0002907D0AB207047814201D1002073
:10137000704701207047824201D101207047002050
:101380007047002903D0002A03D0AB20704700200B
:101390007047012070470000009001080098010884
:1013A000EEEE0000F8B5194F384600F079FA184E05
:1013B000304600F0AFFA174C002802D0E06980B246
:1013C000F8BD154D2869022188432861002138465F
:1013D00000F078FA304600F09DFA002802D0E0696B
:1013E00080B2F8BD28694008400028610B4800F031
:1013F00057FA304600F08EFA002802D0E06980B239
:10140000F8BD2969490849002961F8BD0090010823
:1014100050C30000B80000200020024000980108DE
:10142000F8B50025ED4301209A4942008852401C3E
:101430000B28FADD9848028898480088984E994B06
:10144000002A7DD0984C12194DD09849CA4210D12B
:10145000002817D0614288423BD18F4800F020FA23
:10146000934C204600F056FA00281CD0F06980B258
:10147000F8BDFFF797FF8E4800F04CFA0028F7D12F
:101480000020F8BD844800F00BFA894800F042FAC9
:10149000002802D0F06980B2F8BD864802690221B6
:1014A0008A430261ECE7834D296902208143296167
:1014B00000217A4800F006FA204600F02BFA0028B6
:1014C00002D0F06980B2F8BD286940084000286168
:1014D000D6E7FFF767FF764800F01CFA0028CFD068
:1014E000F06980B2F8BD00280DD0984267D16B48F2
:1014F00000F0D6F96E4D284600F00CFA002848D0CE
:10150000F06980B2F8BD00246348C188614A670071
:10151000D05B814200D125B2AC4214D0664900F0C4
:1015200043F901280FD05B486349C05B098800F08C
:101530005FF907465E4800F0EDF9002803D000E0AF
:1015400047E03846F8BD641CA4B20B2CDCD3002164
:10155000514800F0B7F9564D284600F0DBF9002855
:1015600002D0F06980B2F8BD524C206940084000BA
:1015700020614A4800F094F9284600F0CBF9002891
:1015800002D0F06980B2F8BD216902208143216157
:1015900076E7484C206902218843206100213E48BB
:1015A00000F090F9284600F0B5F9002802D0F06963
:1015B00080B2F8BD206940084000206160E7FFF775
:1015C000F1FE3B4800F0A6F90028E1D0F06980B2B6
:1015D000F8BD00280CD0984218D1304800F060F9CE
:1015E000334800F097F900280AD0F06980B2F8BDBE
:1015F000FFF7D8FE2E4800F08DF90028F7D13FE71D
:101600002C49086902229043086139E700242348E5
:10161000C188204A6700D05B814200D125B2AC422C
:1016200012D0254900F0C0F801280DD019482249F0
:10163000C05B098800F0DCF807461D4800F06AF935
:10164000002801D03846F8BD641CA4B20B2CDED3B0
:101650000021124800F036F9154C204600F05AF9E6
:10166000002802D0F06980B2F8BD124D2869400808
:1016700040002861084800F013F9204600F04AF9BC
:10168000002802D0F06980B2F8BD286902218843A1
:101690002861F5E6B40700200090010800980108D1
:1016A000B8000020FFFF00001211FFFFEFEEFFFF68
:1016B00050C30000002002401A000020F3B583B0A0
:1016C0000D4600240020FFF73FFE2F4A2F49012836
:1016D00004D0002805D0AB2005B0F0BD02920191E6
:1016E00001E0029101922A49029800F0EBF82948A2
:1016F00000F010F9284F002802D0F86980B2EBE71B
:10170000264801694908490001612946039800F00B
:101710006FF80028E0D1224E6500705B0399884283
:101720000BD0204900F040F8012806D01D49705B1D
:10173000098800F05DF80028CED1641CA4B20B2CFF
:10174000EAD3019800F0ACF8124D284600F0E2F818
:10175000002802D0F86980B2BEE7104C206902214F
:10176000884320610021029800F0ACF8284600F080
:10177000D1F8002802D0F86980B2ADE721694908A4
:1017800049002161A8E700000090010800980108C5
:10179000EEEE000050C30000B80000200020024020
:1017A000B40700201A00002070B505460E4601243B
:1017B0000020FFF7C9FDAB2808D00C4AC1028918E8
:1017C000401CC002921E8218891C0AE0AB2070BD2A
:1017D0001088A84204D1403AD08F3080002402E023
:1017E000121F8A42F4D8204670BD00000090010804
:1017F000F3B581B00D460120FFF7A6FDAB2807D059
:101800001B4AC1028C18401CC002911E411805E001
:10181000AB20FEBD2068401C04D0241D8C42F9D3AF
:101820008020FEBD2946204600F04CF8114E30467F
:1018300000F070F8104D002802D0E86980B2FEBDBB
:101840000E4F3869400840003861A01C019900F033
:1018500039F8304600F05EF8002802D0E86980B21E
:10186000FEBD3869400840003861E86980B2FEBDBD
:101870000090010850C30000B80000200020024082
:1018800070B504460D4629462046FFF7B1FF802873
:1018900003D129462046FFF711FF70BD70477047FE
:1018A000064A0021D16106490A6902231A430A61E6
:1018B000486108694022104308617047B800002061
:1018C0000020024010B5054B0022DA61044A13697A
:1018D000012423431361018010BD0000B8000020E3
:1018E000002002400949C868C206094803D5C269F8
:1018F00002231A43C261CA68520703D5C269012391
:101900001A43C2611420C8607047000000200240E2
:10191000B800002070B5044600F0E6FD0546104E04
:101920000AE0601C08D0002C04D000F0DDFD401B54
:10193000A04201D9032070BDF068C007F1D1F06862
:10194000800601D52020F060F068C00602D4F0685F
:10195000400703D5FFF7C6FF012070BD002070BD12
:10196000002002400268082111600068006C704786
:10197000F8B504460D466069082806D00C2700F02B
:10198000B3FD00902646403611E00827F7E7681CB3
:101990000DD0002D05D000F0A7FD0099401AA842F7
:1019A00005D903207070002030700120F8BD206838
:1019B00000683842EBD0A069002802D121680C20D1
:1019C00008607078042801D0152070700020F8BDE0
:1019D00070B5044600202168896849071ED4254651
:1019E00040352978012917D001212970E1690129A1
:1019F00002D02046FFF7A0FB002301280AD01221C5
:101A00006970636422681C21116021688A6804245B
:101A100022438A602B7070BD022070BD022070BD11
:101A200070B505462C464034207801280FD0012699
:101A300026702846FFF71EFB012805D02846FFF731
:101A400041FB012800D066700021217070BD02208A
:101A500070BDF8B504462068016849084900016076
:101A600000F042FD06460027254620350EE000F036
:101A70003BFD811B7D20C000814207D9606B202186
:101A800008436063032068702F70F8BD2068006809
:101A9000C007ECD1012068702F700020F8BD000055
:101AA000F8B50446F749F74DF64EF64F2068CB14CB
:101AB000783D643E503F88423FD9F3490A68A842C6
:101AC00001D1082137E0B04201D1802133E0B84292
:101AD00001D119462FE0EB493C39884202D101215E
:101AE000C90328E0E7492839884202D10121C90405
:101AF00021E0E4491439884202D10121C9051AE0E4
:101B0000E1490831884201D1082114E0DE491C3145
:101B1000884201D180210EE0DB493031884201D179
:101B2000194608E0D8494431884202D10121C9034D
:101B300001E00121C9040A4044E0D24980390A6821
:101B4000A84201D108213CE0B04201D1802138E017
:101B5000B84201D1194634E0CA493C39884202D121
:101B60000121C9032DE0C7492839884202D101214A
:101B7000C90426E0C3491439884202D10121C905AC
:101B80001FE0C049884201D101051AE0BE49083171
:101B9000884201D1082114E0BB491C31884201D19F
:101BA00080210EE0B8493031884201D1194608E061
:101BB000B5494431884202D10121C90301E0012124
:101BC000C9040A40214620310091002A70D00168E2
:101BD000C94309076CD40168082291430160A949EF
:101BE000206888423ED9A84201D1082037E0B0429F
:101BF00001D1802033E0B84201D118462FE0A1493D
:101C00003C39884202D10120C00328E09D4928398F
:101C1000884202D10120C00421E09A491439884247
:101C200002D10120C0051AE097490831884201D14C
:101C3000082014E094491C31884201D180200EE034
:101C400091493031884201D1184608E08E4944312B
:101C5000884202D10120C00301E00120C0048A496A
:101C6000486044E0A84201D108203DE0B04201D1E3
:101C7000802039E0B84201D1184635E0814A3C3A2B
:101C8000904202D10120C0032EE07E4A283A9042C1
:101C900002D10120C00427E07A4A143A904202D1CE
:101CA0000120C00520E0884203D10120C0061BE0CE
:101CB0002CE075490831884201D1082014E07249AE
:101CC0001C31884201D180200EE06F4930318842BA
:101CD00001D1184608E06C494431884202D1012004
:101CE000C00301E00120C004664980394860606B90
:101CF0000121084360630099042048700099002086
:101D00000870216B002901D0204688475D49206872
:101D10000B1588423FD95C490A68A84201D10421C9
:101D200037E0B04201D1402133E0B84201D1194639
:101D30002FE054493C39884202D10121890328E02F
:101D400050492839884202D10121890421E04D49B6
:101D50001439884202D1012189051AE04A49083123
:101D6000884201D1042114E047491C31884201D145
:101D700040210EE044493031884201D1194608E043
:101D800041494431884202D10121890301E0012106
:101D900089040A4044E03B4980390A68A84201D1DD
:101DA00004213CE0B04201D1402138E0B84201D1E9
:101DB000194634E033493C39884202D10121890374
:101DC0002DE030492839884202D10121890426E0DA
:101DD0002C491439884202D1012189051FE0294983
:101DE000884201D1C1041AE027490831884201D153
:101DF000042114E024491C31884201D140210EE025
:101E000021493031884201D1194608E01E49443148
:101E1000884202D10121890301E0012189040A409D
:101E2000002A71D00168C94349076DD40168890649
:101E300003D401680422914301601249206888425A
:101E400042D9A84201D104203AE0B04201D1402059
:101E500036E0B84201D1184632E00A493C3988429E
:101E600002D1012080032BE006492839884202D1A3
:101E70000120800424E003491439884206D101205E
:101E800080051DE08000024000040240C9498842EC
:101E900001D1042014E0C7491431884201D1402007
:101EA0000EE0C4492831884201D1184608E0C149F2
:101EB0003C31884202D10120800301E001208004EE
:101EC000BC490839486042E0A84201D104203BE007
:101ED000B04201D1402037E0B84201D1184633E08A
:101EE000B54A904202D1012080032DE0B24A14325B
:101EF000904202D10120800426E0AF4A283290426D
:101F000003D1012080051FE029E0884202D1012091
:101F1000800619E0A749884201D1042014E0A549B0
:101F20001431884201D140200EE0A2492831884274
:101F300001D1184608E09F493C31884202D1012076
:101F4000800301E0012080049B49443948600098E7
:101F500011214170E16A002901D020468847964A44
:101F600020683C3290423FD9924908390B68A84218
:101F700001D1022136E0B04201D1202132E0B84245
:101F800002D1012149022DE08B49884202D1012171
:101F9000490327E088491431884202D101214904CC
:101FA00020E085492831884202D10121490519E004
:101FB0008049884201D1022114E07E4914318842CF
:101FC00001D120210EE07B492831884201D1411501
:101FD00008E078493C31884202D10121490301E0FF
:101FE000012149040B4043E0734944390B68A8427E
:101FF00001D102213BE0B04201D1202137E0B842BB
:1020000002D10121490232E06B49884202D101210B
:1020100049032CE068491431884202D10121490466
:1020200025E065492831884202D1012149051EE099
:10203000904202D10121490619E05E49884201D14E
:10204000022114E05B491431884201D120210EE0C5
:1020500058492831884201D1411508E055493C31A1
:10206000884202D10121490301E0012149040B40CA
:10207000002B72D00168C94389076ED401688906B4
:1020800003D40168022399430160206890423ED93D
:10209000A84201D1022036E0B04201D1202032E036
:1020A000B84202D1012040022DE04349884202D1CA
:1020B0000120400327E040491431884202D1012029
:1020C000400420E03C492831884202D101204005EB
:1020D00019E03849884201D1022014E03549143111
:1020E000884201D120200EE032492831884201D1B6
:1020F000401508E02F493C31884202D101204003BD
:1021000001E0012040042B490839486043E0A8421F
:1021100001D102203CE0B04201D1202038E0B84299
:1021200002D10120400233E02349884202D101203C
:1021300040032DE020491431884202D1012040049F
:1021400026E01D492831884202D1012040051FE0C8
:10215000904203D1012040061AE029E01549884247
:1021600001D1022014E013491431884201D120200A
:102170000EE010492831884201D1401508E00D4990
:102180003C31884202D10120400301E0012040049B
:10219000094944394860606B6063009901204870C8
:1021A000009900200870A16A002901D020468847C4
:1021B000F8BD0000080402404400024070B5002849
:1021C0001DD00222014620310C464A7001680B687E
:1021D0000C4A13408568426806692A43C56835433E
:1021E0002A4345692A4385692A43C5692A431A4314
:1021F0000A600021416301206070002070BD012051
:1022000070BD00000FC0FFFFF8B504462046203027
:102210000578012D1ED00125057002264670206824
:102220000768AF4307602046FFF77EF82068016823
:102230003143016020680168042211430160206875
:102240000168082211430160206801682943016088
:102250000020F8BD0220F8BD31B500F045F9044674
:1022600000F042F90099001B8842F9D338BD000004
:1022700005480169090605D50449416004494160E2
:10228000002070470120704700200240230167456D
:10229000AB89EFCDF0B58E4600225BE00123934081
:1022A0009C4671460B40002B53D001685500032417
:1022B000AC40A1430160D10889000D182F6A560770
:1022C000F10E0F268E40B7432F628168A1438160D3
:1022D00041686546A9434160C168A143C160940853
:1022E0001E49A4006518AC6891070F0F0F263946E8
:1022F000BE40374627400924E406A04201D100240D
:1023000014E0174CA04201D101240FE0154CA0426B
:1023100001D102240AE0144CA04201D1032405E0BB
:10232000124CA04201D1042400E005248C40BC42A0
:102330000FD1A968B143A9600D490C689C430C609A
:102340004C689C434C608C689C438C60CC689C437C
:10235000CC60521C7146D140A0D1F0BD00000140BC
:102360000004004800080048000C00480010004825
:1023700000040140F0B5002290E001249440A446FE
:102380002340002B7ED04C68022C01D0122C0CD1A3
:10239000D408A40027183D6A5407E40E0F26A6406F
:1023A000B5430E69A6402E433E62066855000324DD
:1023B000AC40A6430F79BF07BF0FAF40374307605C
:1023C0004E68012E05D0022E03D0112E01D0122E00
:1023D0000ED18668A643CF68AF4037438760476811
:1023E0006646B7430E79F606F60F96403E434660C2
:1023F000C668A6438C68AC403443C4604C68E400B3
:102400004BD5294DAC6901263443AC619508274C66
:10241000AD002F19BD689407240F0F26A640B543C1
:102420000926F606B04201D1002614E0204EB04243
:1024300001D101260FE01F4EB04201D102260AE071
:102440001D4EB04201D1032605E01C4EB04201D121
:10245000042600E00526A6402E43BE60184D2C68D9
:102460009C434E68F60300D51C432C606C689C436B
:102470004E68B60300D51C436C60AC689C434E6844
:10248000F60200E009E000D51C43AC60EC689C4318
:102490004E68B60200D51C43EC60521C0B681C460B
:1024A000D44000D069E7F0BD0010024000000140B8
:1024B0000004004800080048000C004800100048D4
:1024C000000401400069084201D00120704700204B
:1024D000704742694A4042617047002A01D08161D9
:1024E0007047090481617047014800687047000027
:1024F0000000002002480168491C0160704700008C
:102500000000002010B50648016810221143016048
:10251000002000F007F800F016F8002010BD0000C1
:102520000020024010B5044600F0C4F97D21C90026
:10253000FDF7FAFD00F01AFC00222146501E00F0C3
:102540001DF8002010BD10B500221146501E00F0ED
:1025500015F810BDC106C90E012088400149086068
:102560007047000080E100E0C106C90E01208840EC
:10257000014908607047000000E100E010B502F07A
:1025800031FD10BDF8B5044620683B4DC00341D570
:10259000E86929040843E861384F38680915084399
:1025A0003860FFF7A1FF064606E0FFF79DFF801B9E
:1025B000642801D90320F8BD3868C005F5D5286A1C
:1025C00003273F0261683840394088420AD0286AB0
:1025D000B8432A6A012109040A432A622A6A8A4303
:1025E0002A6228626168C81FF9380ED1FFF77CFFA4
:1025F000064607E0FFF778FF811B2148814201D999
:102600000320F8BD286A8007F4D5286A6168B843BA
:10261000084328622078C00705D0286BA16880088D
:102620008000084328632078800706D5286B0321A3
:1026300009048843E168084328632068400306D5FD
:10264000286B032189048843216908432863207883
:10265000800605D5286B10218843616908432863EB
:102660002088400505D5286B40218843A16908438F
:1026700028630020F8BD00000010024000700040F8
:1026800088130000F8B504460F4687480068F0211B
:10269000C007C00F854EB8427DD2834802685208F9
:1026A00052003A4302600068C007C00FB84201D030
:1026B0000120F8BD2078800704D570688843A168A0
:1026C000084370602078C00739D06068012808D0BE
:1026D00002280BD003280ED03168890710D40120BE
:1026E000F8BD316889030BD40120F8BD3168890138
:1026F00006D40120F8BD716BC90301D40120F8BDD7
:1027000071688908890001437160FFF7EDFE054695
:102710006068012805D0022812D003281FD0644F1A
:1027200034E0634F06E0FFF7DFFE401BB84201D9FB
:102730000320F8BD70680007800F0128F3D1A3E0E3
:102740005B4F06E0FFF7D0FE401BB84201D90320E3
:10275000F8BD70680007800F0228F3D194E0544F51
:1027600006E0FFF7C1FE401BB84201D90320F8BDC7
:1027700070680007800F0328F3D185E00BE0FFF7B6
:10278000B3FE401BB84201D90320F8BD70680007B2
:10279000800FF4D178E02078800704D570688843F2
:1027A000A168084370602078C00760D06068012885
:1027B00008D002280BD003280ED03168890710D426
:1027C0000120F8BD316889030BD40120F8BD3168C0
:1027D000890106D40120F8BD716BC90301D4012021
:1027E000F8BD71688908890001437160FFF77CFEBC
:1027F0000546606801280CD0022818D0032824D090
:1028000031E0FFF771FE411B2948814201D90320C5
:10281000F8BD70680007800F0128F2D127E0FFF7AC
:1028200063FE411B2248814201D90320F8BD706834
:102830000007800F0228F2D119E0FFF755FE411B77
:102840001B48814201D90320F8BD70680007800F42
:102850000328F2D10BE0FFF747FE411B14488142E9
:1028600001D90320F8BD70680007800FF3D10E482E
:10287000016849084900394301600068C007C00F7A
:10288000B84201D00120F8BD2078400706D5706815
:10289000072109028843E168084370600020FFF7C0
:1028A00041FE0020F8BD0000002002400010024060
:1028B0008813000010B500F021F805494968054A61
:1028C0000906090F515CC8400349086010BD0000AB
:1028D00000100240A0B800080400002010B5FFF767
:1028E000E9FF04494968044A4905490F515CC84059
:1028F00010BD000000100240A0B8000870B5164DD1
:102900006A680C20114601401448042905D0144B74
:10291000082903D00C2900D1184670BD9102114C32
:10292000090F645CE96A0F4D0907090F1035695CEE
:10293000D203920F022A05D0032A07D0FDF7F4FB39
:10294000604370BDFDF7F0FB604370BD1846FDF7B6
:10295000EBFB604370BD00000010024000127A00E3
:10296000006CDC02B0B80008F8B504462078F84DD9
:10297000C00749D068680007800F012810D0686838
:102980000007800F022804D16868C003800F022866
:1029900006D00020A870FFF7A7FD0646ED4F0EE019
:1029A0002868800330D5606801282DD00120F8BD4B
:1029B000FFF79AFD801BB84201D90320F8BD2868B3
:1029C0008003F5D42079A870606800280ED0FFF746
:1029D0008BFD064606E0FFF787FD801BB84201D954
:1029E0000320F8BD28688003F5D50DE0FFF77CFDD6
:1029F000064606E0FFF778FD801BB84201D90320A8
:102A0000F8BD28688003F5D4207880074CD5686825
:102A10000007800F14D068680007800F022804D1D7
:102A20006868C003800F01280AD0E068002829D018
:102A30002868012108432860FFF756FD064616E086
:102A40002868800704D5E068012801D00120F8BD7E
:102A50002868F82188432169C9000843286023E0D9
:102A6000FFF742FD801B642801D90320F8BD2868C8
:102A70008007F5D52968F82081432069C00001430B
:102A8000296011E02868400840002860FFF72CFD0D
:102A9000064606E0FFF728FD801B642801D90320C5
:102AA000F8BD28688007F5D42078000727D5206A6C
:102AB000002812D0686A012108436862FFF714FDFC
:102AC000064606E0FFF710FD801B642801D90320AD
:102AD000F8BD686A8007F5D511E0686A40084000D3
:102AE0006862FFF701FD064606E0FFF7FDFC801B6C
:102AF000642801D90320F8BD686A8007F5D42078DE
:102B0000400750D5E869012109070843E861924F61
:102B10003868091508433860FFF7E6FC064606E00A
:102B2000FFF7E2FC801B642801D90320F8BD386858
:102B3000C005F5D5286A052188432862FFF7D4FC33
:102B40000646844F06E0FFF7CFFC801BB84201D950
:102B50000320F8BD286A8007F5D4286A0521884338
:102B6000A16808432862A068012803D0FFF7BCFCD5
:102B7000064615E0FFF7B8FC064606E0FFF7B4FC92
:102B8000801BB84201D90320F8BD286A8007F5D51B
:102B900009E0FFF7A9FC801BB84201D90320F8BD6A
:102BA000286A8007F5D42078C00642D560690421E0
:102BB00001280CD0401D27D0686B08436863686B00
:102BC000400840006863FFF78FFC06462EE0686B04
:102BD00008436863686B012108436863FFF784FC5E
:102BE000064606E0FFF780FC801B642801D903201D
:102BF000F8BD686B8007F5D5686BF8218843A1693B
:102C0000C9000843686314E0686B88436863686BB5
:102C1000F8218843A169C9000843686309E0FFF708
:102C200063FC801B642801D90320F8BD686B800712
:102C3000F5D4207880063ED568680007800F032809
:102C400015D068680007800F022804D16868C003A7
:102C5000800F03280BD00121E0690904002819D056
:102C6000686B08436863FFF73FFC06460EE0686B3D
:102C7000C00320D5E06901281DD00120F8BDFFF771
:102C800033FC801B642801D90320F8BD686BC003A6
:102C9000F5D510E0686B88436863FFF725FC0646AE
:102CA00006E0FFF721FC801B642801D90320F8BD52
:102CB000686BC003F5D4606A002852D069680907C0
:102CC000890F02294FD001273F06022806D0286825
:102CD000B8432860FFF708FC04463FE02868B84383
:102CE0002860FFF701FC064606E0FFF7FDFB801BAE
:102CF000642801D90320F8BD28688001F5D4E86A6A
:102D0000E16A000900010843E862A16A206B0843F8
:102D100069687B22D203914308436860286838437E
:102D20002860FFF7E1FB044606E0FFF7DDFB001B30
:102D3000642801D90320F8BD28688001F5D510E08A
:102D4000FFF7D2FB001B642808D90320F8BD000060
:102D500000100240881300000070004028688001C5
:102D6000EED40020F2E70120F0E7704710B50949E2
:102D7000401E884201D9012010BD074C606103212B
:102D8000081F02F02FF90020A06107202061002019
:102D900010BD0000FFFFFF0000E000E010B5FFF7EE
:102DA000E4FF10BD7047704770B502462032137EB5
:102DB000012B1BD0012414760223537603685D682F
:102DC0007026B5435D6003685D680E6835435D60DD
:102DD00003689D688026B5439D60006883684968E4
:102DE0000B43836054760020107670BD022070BDC6
:102DF00010B5022104462034617601680A6A084B46
:102E00001A4207D10A6A9B101A4203D10A68520873
:102E100052000A6000F020F800206076207610BD95
:102E20001111000070B50446002C05D02546203550
:102E3000687E002802D004E0012070BD204600F02A
:102E40003DF802206876211D206802F095F90120E6
:102E50006876002070BD000010B50068134A144960
:102E600090420BD1C86902229043C86101211148E8
:102E7000FFF710FA1020FFF76DFB10BD012292073B
:102E8000904207D1C86940084000C8610F20FFF791
:102E900061FB10BD084A9042FBD1C86920229043D3
:102EA000C8611220FFF756FB10BD0000000400406F
:102EB00000100240000400480014004000B585B036
:102EC00000681B4B1B490122984218D1CB69022094
:102ED0000343CB61009201900020029003200390F5
:102EE000049269461448FFF745FA00221146102063
:102EF000FFF744FB1020FFF737FB05B000BD0123AF
:102F00009B0798420BD1C8691043C8610022114643
:102F10000F20FFF733FB0F20FFF726FBEDE7074AF3
:102F20009042EAD1C86920221043C861E5E7000059
:102F3000000400400010024000040048001400405B
:102F40000222014620314A760068036801221343B9
:102F500003604A76002070470168CA6801231A435B
:102F6000CA600068016819430160002070470000D2
:102F70000222014620314A760068026A074B1A4253
:102F800007D1026A9B101A4203D10268520852000C
:102F900002600120487600207047000011110000F7
:102FA0000168CA6852085200CA600068016A064A8D
:102FB000114207D1016A9210114203D101684908F8
:102FC000490001600020704711110000F8B5044667
:102FD00025462035287E012817D001272F7602208C
:102FE0006876206882687726B243FF231B029A43E3
:102FF00082600868502838D00EDC20285DD006DCBE
:10300000002850D0102861D152E00220F8BD3028AD
:1030100058D040285AD13CE0602830D0702818D0D1
:1030200001221203801A0ED090424FD1CB684A6819
:103030008968206802F0F1F8206881680122920313
:103040001143816042E020688168C908C90081603D
:103050003CE0CB684A688968206802F0DEF82068A6
:103060008168B1433143816030E0CA6849682068B3
:1030700002F0F0F95021206802F0DAF826E0CA6880
:103080004968206802F0F7F96021206802F0D0F862
:103090001CE0CA684968206802F0DCF94021206819
:1030A00002F0C6F812E00021206802F0C1F80DE03D
:1030B0001021206802F0BCF808E02021206802F00E
:1030C000B7F803E03021206802F0B2F86F760020F4
:1030D0002876F8BD704770B5044620680169002560
:1030E000C9438907002916DBC168C943890712D47F
:1030F000E91E01610120207620688069800703D0E5
:103100002046FFF7E7FF05E0204600F099F820464B
:1031100000F048F9257620680169C943490718D4A9
:10312000C168C943490714D40421C943016102207D
:103130002076206880698005800F03D02046FFF745
:10314000C9FF05E0204600F07BF8204600F02AF990
:10315000257620680169C943090717D4C168C943A6
:10316000090713D40821C94301610420207620688F
:10317000C069800703D02046FFF7ACFF05E020467A
:1031800000F05EF8204600F00DF925762068016910
:10319000C943C90618D4C168C943C90614D410214B
:1031A000C9430161082020762068C0698005800F2E
:1031B00003D02046FFF78EFF05E0204600F040F8E0
:1031C000204600F0EFF8257620680169C943C90759
:1031D00008D1C168C943C90704D1891E01612046CD
:1031E00000F044F920680169C943090609D4C1689F
:1031F000C943090605D48021C94301612046FFF770
:10320000D1FD20680169C943490609D4C168C94391
:10321000490605D44021C9430161204600F027F941
:1032200020680169C943890609D4C168C943890670
:1032300005D42021C94301612046FFF7B4FD70BDCC
:103240007047F8B504460E4625462035287E0128ED
:103250000DD001202876022068760427002A08D0A5
:10326000042A19D0082A2ED00C2A55D13EE002207B
:10327000F8BD3146206801F0E3FF2068816908222B
:103280001143816120688169B94381612068816946
:103290003269114381613FE03146206802F016F83F
:1032A000206882690121C9020A438261206881691C
:1032B0000122920291438161206881693269120280
:1032C0001143816128E03146206802F045F820680A
:1032D000C26908210A43C2612068C169B943C1615A
:1032E0002068C16932691143C16115E03146206827
:1032F00002F076F82068C1690122D2021143C1614F
:103300002068C269012189028A43C2612068C169BB
:10331000326912021143C1610120687600202876CB
:10332000F8BD70B50446002C05D025462035687ED2
:10333000002802D004E0012070BD204600F00AF809
:1033400002206876211D206801F016FF01206876B2
:10335000002070BD00B585B000680F49884218D1C3
:103360000E48C26902210A43C26101200090019106
:103370000021029103210391049069460848FEF759
:10338000F9FF002203211020FFF7F8F81020FFF7C3
:10339000EBF805B000BD0000000400400010024042
:1033A000000400487047000010B504460122206860
:1033B00001F028FF0C482168814208D00B48814267
:1033C00005D00B48814202D00A48814204D1486CA2
:1033D0000122D2031043486420680168012211438E
:1033E0000160002010BD0000002C014000400140A1
:1033F000004401400048014030B5044600222068E6
:1034000001F000FF154A144821689310814208D04A
:103410001348814205D01348814202D012488142AC
:103420000AD1086A104207D1086A184204D1486CD0
:103430000125ED03A84348642068016A114206D1C2
:10344000016A194203D1016849084900016001205D
:1034500020346076002030BD002C014011110000A6
:10346000004001400044014000480140704770475F
:103470007047F8B504462068C1692546C90701268A
:103480006035002907D00168C90504D50662E06EE1
:103490003043E0666E722068C16904228B07022106
:1034A000002B07DA8368DB0704D00162E06E10436B
:1034B000E0666E722068C3695B0707D58368DB0727
:1034C00004D00262E06E0843E0666E722068C16953
:1034D00008270907002907DA8168C90704D00762AD
:1034E000E06E3843E0666E72E06E002802D020463F
:1034F000FFF7BEFF2068C169C90209D5816849028A
:1035000006D50121090501626E72204600F016FB06
:103510002068C169890609D50068800606D520465D
:1035200002F08FF820688169394381612068C169A0
:10353000090605D50068000602D5204602F0C2F94A
:103540002068C169490605D50068400602D52046B5
:1035500002F05EF8F8BD70B50446002C06D0204697
:1035600060300546407A002802D004E0012070BD9A
:10357000204600F029F80220687220680168490896
:1035800049000160204602F0A5F8012819D0606AC0
:10359000002802D0204601F081FF206841680922FE
:1035A000D20291434160206881682A229143816060
:1035B00020680168012211430160204601F0D4FF18
:1035C00070BD012070BD0000F0B585B001686F4886
:1035D00000256F4AC02602240123814216D190693A
:1035E0009903084390610096019402930395049512
:1035F00069466848FEF7BEFE002211461B20FEF712
:10360000BDFF1B20FEF7B0FF05B0F0BD6248814250
:1036100018D1D069012149040843D0610C200090E1
:10362000019402930395049309206946C006FEF7AE
:10363000A1FE002211461C20FEF7A0FF1C20FEF771
:1036400093FFE1E7554F5648B94215D1D169C601FC
:103650003143D16101940293039530210091049389
:103660006946FEF787FE002211461D20FEF786FF01
:103670001D20FEF779FFC7E74A4FB94217D1D1693C
:103680000126F6043143D16101940293039503218D
:103690008902009104956946FEF76CFE00221146EE
:1036A0001D20FEF76BFF1D20FEF75EFFACE73E4FCF
:1036B000B9421DD1D169012636053143D16101944A
:1036C000029303953112009104946946FEF752FE6D
:1036D00004200090049469463448FEF74BFE002213
:1036E00011461D20FEF74AFF1D20FEF73DFF8BE728
:1036F0002F4FB94218D190692021084390613020A2
:1037000000900194029303950520049009206946D6
:10371000C006FEF72FFE002211461D20FEF72EFFE9
:103720001D20FEF721FF6FE7224FB94214D19169A6
:1037300040273943916100960194029303950493C5
:103740006946FEF717FE002211461D20FEF716FF00
:103750001D20FEF709FF57E7174EB1428BD1916943
:103760008026314391610321090200910194029363
:10377000039504936946FEF7FDFD002211461D20C6
:10378000FEF7FCFE1D20FEF7EFFE3DE7003801408E
:10379000001002400004004800440040004800407F
:1037A00000080048004C004000500040000C004859
:1037B0000014014000180140001C0140FFB581B019
:1037C00004460E4627466037787A012804D012282E
:1037D00002D0022005B0F0BD002E1BD0002A19D067
:1037E000397A012918D0012139720021E1661228A5
:1037F00014D022207872254640352A836A8301211D
:10380000A0680903FF2288420ED12069002808D051
:10381000AA8315E00120DDE70220DBE73220787281
:10382000E9E72548A8830BE07F2100280BD001227F
:103830001207904204D1206900280BD03F20A883B2
:10384000A88B009022E02069002801D0A983F7E727
:10385000AA83F5E7A983F3E7401E688300222021AD
:103860002046049B02F064F8002801D00320B1E751
:103870000120A1680003814202D12069002810D0F4
:103880002068818C009801403170761C688B00287C
:10389000E2D1787A32280BD0012078720020387279
:1038A00098E72068808C009908403080B61CEDE7CE
:1038B00012207872F2E70000FF010000F7B504461D
:1038C000134625466035687A012803D0122801D0B6
:1038D0000220FEBD019A002A25D0002B23D0297A90
:1038E000012922D001212972626558210B5300263B
:1038F000E66612281BD022206872616E0D4888622D
:10390000616E0D48C862616E0C4808632168606E84
:103910002431FEF779FC20688168402211438160E0
:103920002E720020FEBD0120FEBD0220FEBD322011
:103930006872E2E7E355000807560008C155000821
:10394000F0B5034660335C7A012C03D0122C01D011
:103950000220F0BD002915D0002A13D01D7A012DB8
:1039600012D001251D724165014640310A834A8308
:1039700082682E03FF27B2420BD10269002A05D0CC
:103980008F8312E00120F0BD0220F0BD194A8A8326
:103990000BE07F26002A20D001273F07BA4204D13E
:1039A0000269002A20D03F228A830022C266122C9C
:1039B0001CD02221597201680C68FF26013634435D
:1039C0000C6001688C682C438C601A720068016876
:1039D0002022114301600020F0BD0269002A01D0BD
:1039E0008E83E2E78F83E0E78E83DEE73221597230
:1039F000E1E70000FF01000070B50546284605F02C
:103A0000ADFD0124030002F046F8071605080B0E71
:103A100011141600104804700DE0104804700AE0FC
:103A20000F48047007E00F48047004E00E4804706B
:103A300001E00E480470284605F090FD0C49097815
:103A4000884202D10B48047070BD284605F086FDFF
:103A5000C0B206F0A3FD70BD8200002083000020EC
:103A600084000020850000208600002087000020C0
:103A700091000020880000207047FFB581B0054606
:103A80000C462E466036707A012804D0222802D0D7
:103A9000022005B0F0BD002C11D0002A0FD0317AE1
:103AA00001290ED0012131720021E96622280AD0B5
:103AB000122070722F4640373A827A821EE001202F
:103AC000E7E70220E5E732207072F3E7401E7882D4
:103AD000002280212846049B01F02AFF002801D003
:103AE0000320D6E70121A8680903884202D128698A
:103AF000002810D020782968641C0885788A00285E
:103B0000E4D1002240212846049B01F011FF002847
:103B100008D00320BDE72088A41CC0052968C00D7B
:103B20000885EBE7707A322804D0012070720020FB
:103B30003072AEE722207072F9E77047704700B527
:103B400085B04020009001200190002002900320C9
:103B5000039009206946C006FEF70CFC05B000BDC5
:103B600010B50648012101604160002181600321F8
:103B7000C16001460248FEF7FDFB10BD4C04002069
:103B80000004004810B521484169012211434161F8
:103B9000416902221143416100F03AF800F0DEF879
:103BA00000F088F900F030FA00F0DAFA00F084FB57
:103BB00000F026FC012005F0FFFC00220A2100F0A5
:103BC000DDF8022005F0F8FC0A22114600F082F927
:103BD000032005F0F1FC14220A2100F025FA04204C
:103BE00005F0EAFC1E220A2100F0CAFA052005F0C1
:103BF000E3FC28220A2100F06FFB062005F0DCFC24
:103C000032220A2100F00CFC10BD0000001002401E
:103C10000548002141608160C1600161416120214E
:103C200081610902C16170477401002070B50446CA
:103C30003F4D3E4828602846FEF7C0FA3B483D4BC2
:103C400021686430F022994207D1816A91438162F0
:103C5000816A8022114381624AE0374B994207D141
:103C6000816A91438162816A9022114381623FE0BF
:103C7000324B994207D1816A91438162816AA022C5
:103C80001143816234E02E4B994207D1816A9143FE
:103C90008162816AB0221143816229E0294B9942F5
:103CA00007D1816A91438162816AC0221143816296
:103CB0001EE0254B994207D1816A91438162816A56
:103CC000D0221143816213E0204B994207D1816ACF
:103CD00091438162816AE0221143816208E01C4BBA
:103CE000994205D1816A91438162816A114381625F
:103CF00065666C62002211460A20FEF73FFC0A202E
:103D0000FEF732FCE120000360602046FFF723FC51
:103D100001256920055501220E492046FFF7CEFDF9
:103D2000204605F01BFC0C490D5470BD1C040240DC
:103D30007401002000380140004400400048004069
:103D4000004C0040005000400014014000180140A9
:103D5000001C0140180000208900002006480021B6
:103D6000416081608022C2600161416120218161E6
:103D70000902C16170470000AC010020F8B504469B
:103D80000F461646424D414828602846FEF716FA6F
:103D90003E49404A20687831904208D1886A00093B
:103DA00000018862886A08221043886252E03A4A19
:103DB000904208D1886A000900018862886A092255
:103DC0001043886246E0354A904208D1886A00096B
:103DD00000018862886A0A22104388623AE0304A09
:103DE000904208D1886A000900018862886A0B2223
:103DF000104388622EE02B4A904208D1886A00095D
:103E000000018862886A0C221043886222E0264AF8
:103E1000904208D1886A000900018862886A0D22F0
:103E20001043886216E0214A904208D1886A00094E
:103E300000018862886A0E22104388620AE01C4AE8
:103E4000904207D1886A000900018862886A0F22BF
:103E50001043886265666C62E12040026060204623
:103E6000FFF779FB002211460920FEF787FB0920A6
:103E7000FEF77AFB01216920015505483A468C3846
:103E800081192046FFF71AFDF8BD00000800024026
:103E9000AC010020003801400044004000480040D0
:103EA000004C004000500040001401400018014048
:103EB000001C014006480021416081608022C260F0
:103EC00001614161202181610902C16170470000E7
:103ED000E4010020F8B504460F461646414D40481F
:103EE00028602846FEF76AF93D493F4B0F222068BB
:103EF00050311202984207D1886A90438862886ADA
:103F0000CA141043886250E0384B984208D1886A3E
:103F100090438862886A092212021043886244E052
:103F2000334B984208D1886A90438862886A052298
:103F300052021043886238E02E4B984208D1886ABA
:103F400090438862886A0B221202104388622CE038
:103F5000294B984208D1886A90438862886A032274
:103F600092021043886220E0244B984208D1886A6C
:103F700090438862886A0D2212021043886214E01E
:103F80001F4B984208D1886A90438862886A07224A
:103F900052021043886208E01A4B984205D1886AA1
:103FA00090438862886A1043886265666C62E1208B
:103FB000400260602046FFF7CEFA002211460A2038
:103FC000FEF7DCFA0A20FEF7CFFA0121692001553D
:103FD00004483A46C43881192046FFF76FFCF8BD03
:103FE00030000240E401002000380140004400405D
:103FF00000480040004C00400050004000140140C8
:1040000000180140001C0140064800214160816009
:104010008022C26001614161202181610902C16188
:10402000704700001C020020F8B504460F461646F3
:10403000424D414828602846FEF7C0F83E49404BB3
:104040000F22206828311204984208D1886A9043D0
:104050008862886A0122D2041043886250E0394B9A
:10406000984208D1886A90438862886A09221204BB
:104070001043886244E0344B984208D1886A9043E8
:104080008862886A052252041043886238E02F4B08
:10409000984208D1886A90438862886A0B22120489
:1040A000104388622CE02A4B984208D1886A9043DA
:1040B0008862886A032292041043886220E0254BBC
:1040C000984208D1886A90438862886A0D22120457
:1040D0001043886214E0204B984208D1886A9043CC
:1040E0008862886A072252041043886208E01B4BEA
:1040F000984205D1886A90438862886A1043886232
:1041000065666C62E120400260602046FFF723FA9A
:10411000002211460B20FEF731FA0B20FEF724FA9D
:1041200001216920015505483A46FC38811920468D
:10413000FFF7C4FBF8BD0000580002401C0200203D
:10414000003801400044004000480040004C00405E
:10415000005000400014014000180140001C0140C4
:1041600006480021416081608022C2600161416196
:10417000202181610902C1617047000054020020C2
:10418000F8B504460F461646414D4048286028467B
:10419000FEF714F83D493F4B0F22206814311205F9
:1041A000984207D1886A90438862886A0A0410435B
:1041B000886250E0384B984208D1886A9043886200
:1041C000886A092212051043886244E0334B984202
:1041D00008D1886A90438862886A05225205104394
:1041E000886238E02E4B984208D1886A90438862F2
:1041F000886A0B221205104388622CE0294B9842F2
:1042000008D1886A90438862886A03229205104325
:10421000886220E0244B984208D1886A90438862E3
:10422000886A0D2212051043886214E01F4B9842E1
:1042300008D1886A90438862886A07225205104331
:10424000886208E01A4B984205D1886A90438862D8
:10425000886A1043886265666C62E1204002606093
:104260002046FFF778F9002211460B20FEF786F969
:104270000B20FEF779F90121692001550D483A46D6
:1042800081192046FFF71AFBF8BD00006C000240C0
:104290005402002000380140004400400048004023
:1042A000004C004000500040001401400018014044
:1042B000001C01402001002006480021416081606F
:1042C0008022C26001614161202181610902C161D6
:1042D000704700008C020020F8B504460F461646D1
:1042E0003D4D3C4828602846FDF768FF39493B4B67
:1042F00020686431F022984207D1886A904388622E
:10430000886A8022104388624AE0354B984207D180
:10431000886A90438862886A9022104388623FE0EE
:10432000304B984207D1886A90438862886AA022FD
:104330001043886234E02C4B984207D1886A90433E
:104340008862886AB0221043886229E0274B98422D
:1043500007D1886A90438862886AC02210438862C5
:104360001EE0234B984207D1886A90438862886A8E
:10437000D0221043886213E01E4B984207D1886A0E
:1043800090438862886AE0221043886208E01A4BF2
:10439000984205D1886A90438862886A104388628F
:1043A00065666C62E120400260602046FFF7D3F84A
:1043B000002211460A20FEF7E1F80A20FEF7D4F8A1
:1043C0000121692001550D483A4681192046FFF721
:1043D00075FAF8BD1C0402408C0200200038014030
:1043E0000044004000480040004C004000500040A5
:1043F0000014014000180140001C01402001002071
:1044000006480021416081608022C26001614161F3
:10441000202181610902C16170470000C4020020AF
:10442000F8B504460F461646414D404828602846D8
:10443000FDF7C4FE3D493F4B0F2220685031120268
:10444000984207D1886A90438862886ACA141043E8
:10445000886250E0384B984208D1886A904388625D
:10446000886A092212021043886244E0334B984262
:1044700008D1886A90438862886A052252021043F4
:10448000886238E02E4B984208D1886A904388624F
:10449000886A0B221202104388622CE0294B984252
:1044A00008D1886A90438862886A03229202104386
:1044B000886220E0244B984208D1886A9043886241
:1044C000886A0D2212021043886214E01F4B984242
:1044D00008D1886A90438862886A07225202104392
:1044E000886208E01A4B984205D1886A9043886236
:1044F000886A1043886265666C62E12040026060F1
:104500002046FFF728F8002211460B20FEF736F868
:104510000B20FEF729F80121692001550D483A4684
:1045200081192046FFF7CAF9F8BD000030040240A7
:10453000C402002000380140004400400048004010
:10454000004C0040005000400014014000180140A1
:10455000001C01402001002010B5094807490160F6
:10456000002141608160C160016141612021816160
:10457000C901C161FDF722FE10BD00000800024024
:10458000FC02002070B504460D4641492068414AAE
:10459000884208D1906A000900019062906A08215F
:1045A0000843906252E03C49884208D1906A000971
:1045B00000019062906A09210843906246E0374901
:1045C000884208D1906A000900019062906A0A212D
:1045D000084390623AE03249884208D1906A000963
:1045E00000019062906A0B21084390622EE02D49F1
:1045F000884208D1906A000900019062906A0C21FB
:104600000843906222E02849884208D1906A000954
:1046100000019062906A0D210843906216E02349E0
:10462000884208D1906A000900019062906A0E21C8
:10463000084390620AE01E49884207D1906A000947
:1046400000019062906A0F210843906219486066E9
:104650004462E126360366602046FEF77CFF6E600A
:104660002846FEF778FF14480560012669200655A4
:104670002968012228312046FFF720F9204604F05E
:104680006DFF0E4C2654284604F068FF265470BD7A
:1046900000380140800002400044004000480040D3
:1046A000004C004000500040001401400018014040
:1046B000001C0140FC0200205C0100208900002059
:1046C00010B5094807490160002141608160C1605F
:1046D0000161416120218161C901C161FDF76EFD68
:1046E00010BD0000300002403403002070B50446C5
:1046F0000D46414B0F212068404A0902984207D1DC
:10470000906A88439062906AD1140843906250E0A6
:104710003B4B984208D1906A88439062906A092185
:1047200009020843906244E0364B984208D1906AEF
:1047300088439062906A052149020843906238E0FC
:10474000314B984208D1906A88439062906A0B215D
:104750000902084390622CE02C4B984208D1906AE1
:1047600088439062906A032189020843906220E0A6
:10477000274B984208D1906A88439062906A0D2135
:1047800009020843906214E0224B984208D1906AD3
:1047900088439062906A072149020843906208E0CA
:1047A0001D4B984205D1906A88439062906A0843F5
:1047B00090621A4860664462E126360366602046CD
:1047C000FEF7C9FE6E602846FEF7C5FE1448456038
:1047D0000126692006552968012228312046FFF765
:1047E0006DF8204604F0BAFE0E4C2654284604F01C
:1047F000B5FE265470BD0000003801408000024024
:104800000044004000480040004C00400050004080
:104810000014014000180140001C01403403002036
:104820005C0100208900002010B50948074901609B
:10483000002141608160C16001614161202181618D
:10484000C901C161FDF7BAFC10BD0000580002406B
:104850006C03002070B504460D46414B0F212068C3
:10486000404A0904984208D1906A88439062906A4D
:104870000121C9040843906250E03B4B984208D1A3
:10488000906A88439062906A092109040843906203
:1048900044E0364B984208D1906A88439062906A0F
:1048A000052149040843906238E0314B984208D111
:1048B000906A88439062906A0B21090408439062D1
:1048C0002CE02C4B984208D1906A88439062906A01
:1048D000032189040843906220E0274B984208D1C5
:1048E000906A88439062906A0D210904084390629F
:1048F00014E0224B984208D1906A88439062906AF3
:10490000072149040843906208E01D4B984205D1F5
:10491000906A88439062906A084390621948606682
:104920004462E126360366602046FEF714FE6E60A0
:104930002846FEF710FE14488560012669200655BA
:104940002968012228312046FEF7B8FF204604F0EE
:1049500005FE0E4C2654284604F000FE265470BD79
:104960000038014080000240004400400048004000
:10497000004C00400050004000140140001801406D
:10498000001C01406C0300205C0100208900002015
:1049900010B5094807490160002141608160C1608C
:1049A0000161416120218161C901C161FDF706FCFE
:1049B00010BD00006C000240A403002070B5044646
:1049C0000D46414B0F212068404A0905984207D106
:1049D000906A88439062906A11040843906250E0A4
:1049E0003B4B984208D1906A88439062906A0921B3
:1049F00009050843906244E0364B984208D1906A1A
:104A000088439062906A052149050843906238E026
:104A1000314B984208D1906A88439062906A0B218A
:104A20000905084390622CE02C4B984208D1906A0B
:104A300088439062906A032189050843906220E0D0
:104A4000274B984208D1906A88439062906A0D2162
:104A500009050843906214E0224B984208D1906AFD
:104A600088439062906A072149050843906208E0F4
:104A70001D4B984205D1906A88439062906A084322
:104A800090621A4860664462E126360366602046FA
:104A9000FEF761FD6E602846FEF75DFD1448C560B7
:104AA0000126692006552968012228312046FEF793
:104AB00005FF204604F052FD0E4C2654284604F013
:104AC0004DFD265470BD00000038014080000240BA
:104AD0000044004000480040004C004000500040AE
:104AE0000014014000180140001C0140A4030020F4
:104AF0005C0100208900002010B5094807490160C9
:104B0000002141608160C1600161416120218161BA
:104B1000C901C161FDF752FB10BD00001C04024039
:104B2000DC03002070B504460D463D4B20683D4A2D
:104B3000F021984207D1906A88439062906A802160
:104B4000084390624AE0384B984207D1906A884304
:104B50009062906A9021084390623FE0334B984204
:104B600007D1906A88439062906AA02108439062BE
:104B700034E02F4B984207D1906A88439062906A44
:104B8000B0210843906229E02A4B984207D1906AED
:104B900088439062906AC021084390621EE0264BD1
:104BA000984207D1906A88439062906AD021084366
:104BB000906213E0214B984207D1906A884390623B
:104BC000906AE0210843906208E01D4B984205D1AD
:104BD000906A88439062906A0843906219486066C0
:104BE0004462E126360366602046FEF7B4FC6E6040
:104BF0002846FEF7B0FC14480561012669200655D9
:104C00002968012228312046FEF758FE204604F08C
:104C1000A5FC0E4C2654284604F0A0FC265470BD7A
:104C20000038014080040240004400400048004039
:104C3000004C0040005000400014014000180140AA
:104C4000001C0140DC0300205C01002089000020E2
:104C500010B5094807490160002141608160C160C9
:104C60000161416120218161C901C161FDF7A6FA9D
:104C700010BD0000300402401404002070B504464A
:104C80000D46414B0F212068404A0902984207D146
:104C9000906A88439062906AD1140843906250E011
:104CA0003B4B984208D1906A88439062906A0921F0
:104CB00009020843906244E0364B984208D1906A5A
:104CC00088439062906A052149020843906238E067
:104CD000314B984208D1906A88439062906A0B21C8
:104CE0000902084390622CE02C4B984208D1906A4C
:104CF00088439062906A032189020843906220E011
:104D0000274B984208D1906A88439062906A0D219F
:104D100009020843906214E0224B984208D1906A3D
:104D200088439062906A072149020843906208E034
:104D30001D4B984205D1906A88439062906A08435F
:104D400090621A4860664462E12636036660204637
:104D5000FEF701FC6E602846FEF7FDFB1448456136
:104D60000126692006552968012228312046FEF7D0
:104D7000A5FD204604F0F2FB0E4C2654284604F014
:104D8000EDFB265470BD0000003801408004024055
:104D90000044004000480040004C004000500040EB
:104DA0000014014000180140001C014014040020C0
:104DB0005C0100208900002010B50C4C60690121C5
:104DC000C9040843606160698910084360616069D3
:104DD000C90008436061FEF7B2FE606901218904E1
:104DE00008436061FEF7BCFE10BD000000100240E9
:104DF0001CB50121084889070160002444608460D3
:104E00003021C160FEF70EF8009401946946024813
:104E1000FDF7CAFF1CBD00003C07002010B58EB096
:104E20001448134901603021416000248460C4604B
:104E30000461FDF7F7FF012000030A900AA90D485D
:104E4000FEF7C4F80B48FEF76CFA0894099408A919
:104E50000848FDF7A9FF602001900294039405948F
:104E6000082201A90348FEF7ECF90EB010BD0000BE
:104E700000040040000700201CB50A4808490160F2
:104E800030214160102181600024C460FDF7CAFF19
:104E90000094019469460348FDF786FF1CBD00009D
:104EA000001400407807002010B500F00BF800F067
:104EB00021F800F067F800F07DF800F033F800F01A
:104EC00049F810BD10B50A4808490160E1214902BE
:104ED000416000218160C16001610C2242618161F9
:104EE000C16101624162FEF736FB10BD0044004023
:104EF0006004002010B50A4808490160E121490218
:104F0000416000218160C16001610C2242618161C8
:104F1000C16101624162FEF71EFB10BD0048004006
:104F2000D004002010B50A4808490160E121490277
:104F3000416000218160C16001610C224261816198
:104F4000C16101624162FEF706FB10BD004C0040EA
:104F50004005002010B50A4808490160E1214902D6
:104F6000416000218160C16001610C224261816168
:104F7000C16101624162FEF7EEFA10BD00500040CF
:104F8000B005002010B50A4808490160E121490236
:104F9000416000218160C16001610C224261816138
:104FA000C16101624162FEF7D6FA10BD00180140EE
:104FB0002006002010B50A4808490160E121490295
:104FC000416000218160C16001610C224261816108
:104FD000C16101624162FEF7BEFA10BD001C0140D2
:104FE000900600208307FF22DB0E9A408907090EF6
:104FF000994000280BDA0007000F0838830808489A
:105000009B001818C36993430B43C361704783081F
:1050100004489B001818036893430B4303607047D0
:1050200000ED00E000E400E0BFF34F8F03490248C9
:10503000C860BFF34F8FFEE70400FA0500ED00E003
:105040000346012000214A009A5A1040491C0129B8
:10505000F9DB704710B5FDF74DFAFDF79FFE0749E4
:105060004868002801D0401E48604868002804D1E4
:105070000878002801D004F0AFFE10BD1C0000200D
:1050800070B598B012200B9001250E951095102048
:105090000F90119002261496C002159040011790AF
:1050A000002416940BA8FDF75FFC07950896099459
:1050B0000A94012107A8FDF7E5FA07480090029439
:1050C000039404946846FDF75DFA04488169294316
:1050D000816118B070BD00000300040000100240A0
:1050E000124801680122114301604168104A1140D1
:1050F000416001680F4A1140016001680122920479
:105100009143016041683F22120491434160C16AAA
:1051100009090901C162016B074A11400163416B32
:105120004908490041630021816070470010024036
:105130000CB8FF08FFFFF6FEACFEF0FF10B5044907
:10514000012008700348FDF7C6FF06F005F810BD02
:10515000190000203C07002010B50248FDF7BBFFF6
:1051600010BD00000007002010B50248FDF7B3FF96
:1051700010BD000078070020F0B502681B4B012429
:10518000A4071B4D984203D0A04201D0A84203D1EE
:105190007026B2434E683243164E174F98420DD0D8
:1051A000A0420BD0A84209D0144CA04206D0B04275
:1051B00004D0B84202D0124CA04204D103242402ED
:1051C000A243CC68224302608A68C2620A68826293
:1051D000984206D0B04204D0B84202D0084A904269
:1051E00001D10969016301214161F0BD002C014039
:1051F0000004004000400140004401400020004005
:105200000048014010B501238B40046A9C430462AE
:10521000036A8A401343036210BD30B58468FF25DA
:105220002D02AC431B0213430B432343836030BD69
:10523000826870239A430A4307210A4382607047B9
:10524000F0B5026A520852000262056A4368826938
:105250007024A243920892000C68144302229543E2
:105260008A682A43154E164FB04207D0B84205D07F
:10527000144DA84202D0144DA84206D10825AA43D5
:10528000CD681543042295432A46B04207D0B84260
:1052900005D00C4DA84202D00B4DA84208D1FF25E5
:1052A0000135AB436D00AB434D691D438B692B4307
:1052B00043608461496841630262F0BD002C014093
:1052C000004001400044014000480140F0B5026A3E
:1052D00010239A430262056A436882690724240303
:1052E000A24303242402A2430C6824021443202274
:1052F00095438A6812012A43134EB04207D1802594
:10530000AA43CD682D01154340272A46BA43B0422F
:1053100008D00E4DA84205D00D4DA84202D00D4D2B
:10532000A8420AD10125AD02AB436D00AB434D69E4
:10533000AD001D438B699B002B434360846149682A
:1053400081630262F0BD0000002C0140004001407A
:105350000044014000480140F0B5026AFF230133D8
:105360009A430262046A4368C2697025AA4392089C
:1053700092000D6815430122520294438A6812027A
:105380002243134EB04207D1C7141446BC43CA6827
:10539000120222430415A243B04208D00D4CA04291
:1053A00005D00D4CA04202D00C4CA0420AD10124E1
:1053B0002403A3436400A3434C6924011C438B6969
:1053C0001B0123434360C5614968C1630262F0BDAC
:1053D000002C0140004001400044014000480140D1
:1053E00070B5026A01231B039A430262046A426891
:1053F000C36907252D03AB4303252D02AB430D687D
:105400002D021D4301235B039C438B681E0326432F
:105410000C4B984208D00C4B984205D00B4B98424D
:1054200002D00B4B984206D10124A4031346A34398
:105430004A6992011A434260C56149680164066283
:1054400070BD0000002C01400040014000440140BC
:105450000048014030B5036A046A640864000462CD
:105460008469F025AC43120122430A24A3430B4371
:105470008261036230BD30B5036A1024A343036226
:105480008369046A0F252D03AB4312031A43A0233B
:105490009C43090121438261016230BD10B5818CBA
:1054A000C90707D001684A6801235B049A43836AED
:1054B0001A434A60818C890707D501684A6801232D
:1054C0001B049A43C36A1A434A60818C490707D573
:1054D00001684A6801239B049A43036B1A434A609C
:1054E000818C090707D501684A680123DB039A43C9
:1054F000436B1A434A60818CC90607D501688A68E4
:1055000001231B039A43836B1A438A60818C8906AB
:1055100007D501688A6801235B039A43C36B1A436A
:105520008A60818C490612D501684B6801221205F8
:10553000046C934323434B60016C914207D1016893
:105540004A6803235B059A43436C1A434A60818C83
:10555000090607D501684A680123DB04806C9A4379
:1055600002434A6010BD000070B504460025E566A0
:1055700020680068114E00070AD501213346002239
:105580004905204600F0D4F9002801D0032070BD61
:105590002068006840070AD50121334600228905AA
:1055A000204600F0C5F9002801D0032070BD01207D
:1055B000603460722572002070BD0000FFFFFF01A3
:1055C00010B5406A0022014640314A834A820122D6
:1055D00069210A54C16E10221143C166FDF748FFCC
:1055E00010BD10B5406A00225A210A5201466031AE
:1055F0004A7A322A04D001224A72FEF7FDF910BD20
:1056000012224A72F9E710B5406AFEF735FA10BD6A
:1056100010B501680A6840239A430A600146603168
:105620004A7A322A0AD0026893685B085B0093606A
:1056300001224A72FEF781FA002010BD22224A722E
:10564000F8E770B502464032938B014660314C7AE0
:10565000222C03D0322C01D0022070BD0125846899
:105660002D03AC4202D10469002C0ED00468A48C36
:105670001C40436D5D1C45651C70538B5B1E1B04F9
:105680001B0C53830AD0002070BD446D0568AD8C9F
:105690001D402580436D9B1C4365EEE7026813683F
:1056A0002024A34313604A7A322A0FD00268136879
:1056B000E400A3431360026893685B085B00936097
:1056C00001224A72FEF798F9002070BD12224A7238
:1056D000F8E70000F8B50446102000210026A36872
:1056E0002269E569134362692A43134322681568F6
:1056F000684F3D401D4315602268536803252D0304
:10570000AB43E5682B435360A369226A13432268C5
:1057100095680B273F02BD431D4395605E4F25688A
:105720005E4B0203BD4212D11B6B9B079B0F06D041
:10573000012B08D0022B08D0032B4ED101E0002012
:105740004BE0022049E0042047E0082045E0544FA8
:10575000BD4212D11B6B03273F043B4007D09B1A6D
:1057600007D09B1A07D0934237D1022035E00020A2
:1057700033E0042031E008202FE04A4FBD4214D12D
:105780001B6B0327BF043B4009D00127BF04DB1B71
:1057900007D0DB1B07D0BB421FD102201DE0002039
:1057A0001BE0042019E0082017E03F4B9D4201D187
:1057B000002012E03D4B9D4201D100200DE03C4B0A
:1057C0009D4201D1002008E03A4B9D4201D10020CA
:1057D00003E0394B9D4200D100200123E769DB0340
:1057E0009F422CD100280ED0022814D0042818D0B3
:1057F00008281ED001260A0912010807400F10438D
:105800002168C86024E0FDF769F840006168FAF794
:105810008BFC81B2EFE729486168FAF785FC81B219
:10582000E9E7FDF76BF840006168FAF77DFC81B2AB
:10583000E1E710466168FAF777FC81B2DBE7002800
:1058400008D002280FD0042814D008281BD0012625
:105850003046F8BDFDF742F86168FAF765FC21684B
:1058600080B2C860F4E716486168FAF75DFC80B260
:10587000E860EDE7FDF742F86168FAF755FC21684A
:1058800080B2C860E4E718466168FAF74DFCE8604A
:10589000DEE70000F369FFEF00380140001002402E
:1058A0000044004000480040004C004000500040D0
:1058B0000014014000180140001C01400024F400C5
:1058C00000127A006921095C122903D0322901D023
:1058D00002207047014640314A8A002A12D0012333
:1058E00082681B039A4202D10269002A16D0C26C58
:1058F000531CC364006812780285488A401E48829F
:105900000020704701680A6880239A430A60006893
:10591000016840221143016000207047C26C036897
:105920001288D205D20D1A85C26C921CC264E4E7BB
:10593000FFB581B0044616461D46FCF7D5FD074667
:10594000314626466036002924D04DE0681C21D01F
:10595000002D04D0FCF7C8FDC01BA8421AD920684E
:10596000026880218A4302602068016820229143F6
:10597000016020680168D20091430160206881685D
:1059800049084900816001207072002030720320B4
:1059900005B0F0BD2068C16902988843D6D128E0DF
:1059A000681C21D0002D04D0FCF79EFDC01BA8422E
:1059B0001AD92068026880218A4302602068026840
:1059C00020218A43026020680168FF22013291434E
:1059D0000160206881684908490081600120707277
:1059E000002030720320D3E72068C1690298884301
:1059F000D6D00020CCE7000010B50248FDF739FDF5
:105A000010BD00006004002010B50848FDF731FD0E
:105A10000748FDF72EFD0748FDF72BFD0648FDF76B
:105A200028FD0648FDF725FD10BD0000D00400202C
:105A300040050020B0050020200600209006002030
:105A40000FB410B504A9074B02AA039800F004F99B
:105A5000044602A9002000F09BFC204610BC08BCB4
:105A600004B01847916300082021020C01D01021D6
:105A70001046020A01D010460839020901D010462A
:105A8000091F820801D01046891E420801D0881ED5
:105A90007047081A704730B47446641E2578641C39
:105AA000AB4200D21D46635D5B00E31830BC184773
:105AB00000487047B40000200148006870470000AB
:105AC000B400002002E008C8121F08C1002AFAD161
:105AD00070477047002001E001C1121F002AFBD16E
